:020000040000FA
:06000000020A990201C989
:03002B000208D4F4
:030033000206437F
:0300430002078928
:030053000200FAAE
:03006B0002061D6D
:1000830002015E0101FF01010503010F10FEFF3BA9
:10009300133B133B133B13F111EB113B1362220090
:1000A3000000002623000000000C0000000C0001EB
:1000B30000000F15000000000000C915000000003B
:1000C300000000000000FFFF0102007D05000000AA
:1000D300F0056400020200080000050207051E0285
:1000E300051E020A0A03B80B02803E0102FFFF1439
:1000F30096511800020206C0E074F21203E2A2AFA6
:10010300E433FED2AFE5A7FFE5A1F5085F54106025
:1001130006121D0D75A1EFE5085F54086008121D56
:100123001375A1F7802BEFA2E0C0D0E508A2E092FF
:10013300F01209D6158182F05017906198E0F8907B
:1001430008CFE0C398A2D265D0335002E8F075A17E
:10015300FEEEA2E092AF7F01020441C0E074F2120E
:1001630003E2A2AFE433FED2AF9061A4E0F8759B43
:1001730000E59158540860087591F7121D5B802AB9
:10018300E59158541060087591EF121D61801BE8CA
:10019300A2E0C0D0E591A2E092F01209D6158182C7
:1001A300F05007E0C2E0F0121EA59061A3E0F8E56D
:1001B300E9585404600E121E7B75E9FB906193E0CD
:1001C300A2E640F2808BC0E074F21203E2A2AFE435
:1001D30033FED2AF9061A5E0F8E5BF585404600642
:1001E30075BFFB121EBD020154C3E498F8E499F9EC
:1001F30012022D8026C3E49AFAE49BFBE920E7E987
:1002030012022DE498F8E499F922C3E498F8E499EA
:10021300F912022DE498F8E499F9C3E49AFAE49BFD
:10022300FB22EB20E7CFE920E7E0B90010BB000891
:10023300E88AF084F8AAF022E4FBC8FA22EB7022E1
:100243007B10C833C8C933C9335007C39AC3DBF221
:1002530080069A50012ADBEAC833F4C8C933F4C9CB
:10026300FA2275F008E4C833C8C933C933C99AC937
:100273009B5004C92AC93BD5F0ECFBC833F4C8E44E
:10028300C9FA22080808EAC0E0EBC0E086F0E7A458
:10029300FA180986F0E7A42AFA180986F0E7A42ACF
:1002A300FA180986F0E7A42AFA1986F0E7A4FBE511
:1002B300F02AFA190886F0E7A42BFBE5F03AFA19BD
:1002C3000886F0E7A42BFBE5F03AFA18180986F044
:1002D300E7A4C5F02BFBE43AFA1908E7C5F0C6A476
:1002E30026F6E5F03BFBE43AFA1886F0E7A4F6E5D8
:1002F300F00826F6E43B08F6E43A08F6D0E0FBD033
:10030300E0FA22E4CFC0E0E4CEC0E0E4CDC0E0E414
:10031300CCC0E075F020C3E633F608E633F608E612
:1003230033F608E633F6181818EC33FCED33FDEE1C
:1003330033FEEF33FFC3EC9709ED9709EE9709EF0F
:1003430097191919400FFFEC97FC09ED97FD09EE7A
:1003530097FE191906D5F0BEECF709EDF709EEF78C
:1003630009EFF7191919D0E0FCD0E0FDD0E0FED079
:10037300E0FF222518C582C0E0E51934FFC583C01C
:10038300E0E518C3958224F810AF088583198582A8
:10039300188008858319858218D2AFCEF0A3E52093
:1003A300F0A37808E608F0A3DEFAEFF0A3E58124D2
:1003B300FAF8E608F0A3E608F0A3E608F0A30808B5
:1003C300E608F0A3E608F0A315811581D0E0FED07E
:1003D300E0F8158115811581E8C0E0EEC0E022C088
:1003E300D02518C582C0E0E51934FFC583C0E0E518
:1003F30018C3958224F310AF08858319858218806A
:1004030008858319858218D2AFC8F0A3E9F0A3EA5F
:10041300F0A3EBF0A37908E709F0A3D8FAECF0A373
:10042300EDF0A3EEF0A3EFF0A3D0E0F0A3D0E0F063
:10043300A3D0E0F0A3E520F0A3E5F0F0A322851913
:1004430083851882E0C0E0A3E0F9A3E0FAA3E0FB10
:10045300A37808E0F608A3DFFAE0FCA3E0FDA3E03D
:10046300FEA3E0FFA3E0C0E0A3E0C0E0A3E0F5D07B
:10047300A3E0F520A3E0A3F5F010AF088583198569
:1004830082188008858319858218D2AFD082D083E1
:10049300D0E0F8D0E032120AFBB900030204DBE437
:1004A3009003017896790C8002F0A3D8FCD9FA90D6
:1004B3000E96AA82AB83900086787579018015E445
:1004C30093A3AC82AD838A828B83F0A3AA82AB838E
:1004D3008C828D83D8E9D9E775823175838D740455
:1004E30012084C758269758321740012084C0E0042
:1004F3000975F0108E1A8F1B85821F85831E851840
:1005030082851983E0CEA3E0CF851F82851E83EB0E
:10051300C9EAC8EDCBECCAC3E833C8E933C9EA3347
:10052300CAEB33CBC3EA9EF51DEB9FF51CB3500416
:10053300AB1CAA1DEC33CCED33CDD5F0DAAE1AAF3C
:100543001B22D083D082ECC0E0EDC0E0E493A3FC97
:10055300E493A3FDED4C600D120661EC24FFFCED6A
:1005630034FFFD80EFE493A3FCE493A3FDED4C6023
:100573000D120734EC24FFFCED34FFFD80EFD0E0D7
:10058300FDD0E0FCE493A3C0E0E493C0E02285192E
:1005930083851882E0A3FEE0A3F5207808E0A3F6A4
:1005A30008DFFAE0A3FFE0A3C0E0E0A3C0E0E0A31C
:1005B300C0E0E0A3C0E0E0A3C0E010AF088582186C
:1005C3008583198008858218858319D2AFD083D09B
:1005D30082020852D083D082E9C0E0E493A3C386A9
:1005E300F0C5F095F0F908E493A386F0C5F095F013
:1005F300700BE493A3C3994005E9048002A3E47557
:10060300F002A42582F582E5F03583F583D0E0F985
:10061300E493A3C0E0E493C0E022C0E074F21203C9
:10062300E2A2AFE433FED2AFE589A2E15003121B8D
:10063300DB758900C2C5EEA2E092AF7F01020441DF
:10064300C0E074F21203E2A2AFE433FED2AFE58B53
:10065300A2E05003121BDB758B00C2E880D8C0E018
:10066300C3E49396087401939618400FE49366705D
:100673000808740193661870007019A3A3C3E49368
:1006830096087401939618A3A3400DD0E0D0E0D050
:10069300E0020581A3A3A3A3A3A3D0E022D083D028
:1006A30082C5F0E493A3C5F0C395F0F5F0E493A3FA
:1006B300C395F04005E5F0048001E475F002A4253C
:1006C30082F582E5F03583F583E493A3C0E0E493F8
:1006D300C0E0227404800474028000CCC0E0EDC04A
:1006E300E0E518C39CCCAD1950011D10AF068C1862
:1006F3008D1980068C188D19D2AF1207CED0E0FD6C
:10070300D0E0FC2274028000CCC0E0EDC0E0E5182C
:10071300C39CCCAD1950011D10AF068C188D1980E8
:10072300068C188D19D2AF1207ACD0E0FDD0E0FCD7
:1007330022C0E0C0F088F0E4936670080874019367
:1007430066187000A8F0A3A3700BD0F0D0E0D0E03F
:10075300D0E0020581A3A3D0F0D0E022D083D082E1
:10076300CCC0E0E493A3600612082D1470FAE4935E
:10077300A3600612091E1470FAD0E0FCE493A3C030
:10078300E0E493C0E022C0E074F21203E2A2AFE41B
:1007930033FED2AFC2C0E5D1A2E45003121C83EEF4
:1007A300A2E092AF7F01020441CAC0E0E493A3C573
:1007B30082CCC582C583CDC583F0A3C582CCC58257
:1007C300C583CDC583DAE5D0E0CA22CAC0E0E0A381
:1007D300C582CCC582C583CDC583F0A3C582CCC5F4
:1007E30082C583CDC583DAE6D0E0CA227009080842
:1007F30008226016181818C6C333C608C633C608BD
:10080300C633C608C633C6D5E0EA22C008C3E0969D
:10081300F50808A3E096420808A3E096420808A357
:10082300E09645087001D3D00822C0E0E493A3D337
:100833009C5010E493A3C39C400AD0E0D0E0D0E0E6
:1008430002077CA3A3A3D0E022C09FF59FE473D04B
:100853009F22D083D082C09FE493C0E0740193C0F1
:10086300E0740293F59F227404800A740380067473
:100873000280027401C0E0F404120885D0E0120A79
:10088300D6222518F58210AF08F5184002151980F5
:1008930008F51840021519D2AF85198322BB01024E
:1008A300E722C082C08389828A83BB0003E080027F
:1008B300E493D083D08222C0D0251810AF08F51856
:1008C300500205198008F51850020519D2AFD0D08F
:1008D30022C0E0C0D0E8C0E0E5A8D2AFC2C7A2E71B
:1008E30092AFD0E0F8D0D0D0E0326016080808C646
:1008F300C313C618C613C618C613C618C613C6D55F
:10090300E0EA22C3E0C696F608A3E0C696F608A37B
:10091300E0C696F608A3E0C696F622C0E0E493A3E9
:100923006C7009D0E0D0E0D0E002077CA3A3D0E054
:1009330022251810AF08F518400215198008F5187C
:1009430040021519D2AF22E76670100809E76670F6
:100953000A0809E76670040809E76622E066701072
:1009630008A3E066700A08A3E066700408A3E066C3
:1009730022C3E09608A3E09608A3E09608A3E096B6
:10098300A2D265D03322C3E096F008A3E096F00824
:10099300A3E096F008A3E096F022E026F008A3E097
:1009A30036F008A3E036F008A3E036F022E627F697
:1009B3000809E637F60809E637F60809E637F622A6
:1009C300E026F608A3E036F608A3E036F608A3E02F
:1009D30036F622C0E0E8C0E0E58124FCF8E6A2E7B1
:1009E300D0E0F8D0E022E647F60809E647F6080922
:1009F300E647F60809E647F622E657F60809E657FA
:100A0300F60809E657F60809E657F622E056F6080F
:100A1300A3E056F608A3E056F608A3E056F622E054
:100A230056F008A3E056F008A3E056F008A3E056FA
:100A3300F022700422600D18C6C333C608C633C63D
:100A4300D5E0F41822E4C396F608E496F608E49693
:100A5300F608E496F622600D08C6A2E713C618C688
:100A630013C6D5E0F322C6F4C608C6F4C608C6F416
:100A7300C608C6F4C622C3E7960809E7960809E73D
:100A8300960809E79622C3E09608A3E09608A3E038
:100A93009608A3E0962275D00075814075180175FC
:100AA300190300020499E0F608A3E0F608A3E0F6B0
:100AB30008A3E0F622600C08C6C313C618C613C603
:100AC300D5E0F422E6F008A3E6F008A3E6F008A3D5
:100AD300E6F022CAC0E0E6F0A308DAFAD0E0FA2290
:100AE300E0FAA3E0FBA3E0FCA3E0FD22EAF0A3EB22
:100AF300F0A3ECF0A3EDF022E5C754F84401F5C7E9
:100B03007901222518F582E43519F58322C2AF75E0
:100B1300D69F0200002212085527E1021208557CD5
:100B2300E302120855C9E4021208556CE5021208E3
:100B330055B3E602120855D1E60212085580250086
:100B4300120855922500120855E425001208554550
:100B53002600120855CF26001208557327001208E5
:100B630055C72700120855E027001208550628002C
:100B7300120855412800120855852800120855AC63
:100B83002800120855FD2800120855AD2900120847
:100B930055652A001208552D2B00120855ED2B0020
:100BA300120855312C00120855562C00120855997D
:100BB3002C00120855E62C001208553E2E00120890
:100BC30055C42E00120855E22E001208550C2F00B2
:100BD300120855262F00120855352F0012085540CC
:100BE3002F00120855003000120855593000120822
:100BF300551B3100120855233100120855E7310007
:100C03001208555332001208557E3300120855A3BB
:100C13003300120855193400120855AB340012087A
:100C230055033500120855C33500120855E2350047
:100C3300120855F136001208550F370012085521D6
:100C43003700120855903700120855E5380012088E
:100C530055173900120855AA3900120855E339000F
:100C63001208552F3A001208554B3B0012085594B1
:100C73003D001208559F3D00120855AA3D00120879
:100C830055B53D00120855BF3D00120855CA3D0039
:100C9300120855E43D00120855EE3D00120855F8C0
:100CA3003D00120855033E001208552B3E00120862
:100CB30055863E00120855903E00120855B43E007A
:100CC300120855D83E00120855363F001208557ACF
:100CD3003F00120855963F001208550D40001208B8
:100CE30055454000120855914000120855EE40004A
:100CF300120855A841001208558C4300120855E507
:100D030043001208551545001208553B45001208CB
:100D130055C44600120855404A00120855124C00AB
:100D2300120855DB4D00120855884E00120855F382
:100D33004F00120855925000120855D75000120860
:100D430055415100120855505100120855D7530010
:100D5300120855895500120855F65500120855D545
:100D63005600120855EE57001208556B5900120829
:100D7300558A5900120855DF5900120855E45A00E4
:100D83001208550C5B00120855645B0012085543AA
:100D93005C00120855875C00120855D25C001208EB
:100DA300553D5D001208557E5E00120855E25E0057
:100DB300120855306000120855906200120855C1A0
:100DC3006200120855796400120855CE64001208B7
:100DD30055D265001208556F6600120855C86600A3
:100DE3001208557B67001208551D6800120855BD8F
:100DF3006800120855626900120855E5810112085E
:100E0300552482011208556B8401120855B58401DB
:100E1300120855D085011208553886011208556D00
:100E23008601120855E18701120855648A011208E8
:100E3300558D8B01120855238C011208552B9501F2
:100E4300120855C09501120855A798011208559A22
:100E53009901120855089A011208554E9B01120870
:100E630055309C01120855159E0112085526A00104
:100E730012085590A00112085562A101120855905D
:100E8300A1011208554DA20112085524A30112080D
:100E930055EBA3011208558FA401120855B8A401FC
:100EA300120855DAA40112085530A7011208550893
:100EB300A8011208554CA801120855B4A80112083C
:100EC300556CA9011208559EA901120855E2A90102
:100ED30012085518AA0112085564AA01120855B937
:100EE300AA01120855BEAA0112085511AB01120836
:100EF3005536AB0112085545AC01120855A9AC0192
:100F030012085519AD01120855A5AD011208557205
:100F1300B00112085556B101120855D9B201120891
:100F2300550FB501120855BDB5011208556DB6012F
:100F3300120855AEB80112085551B9011208559857
:100F4300B90112085544BB0112085558BB011208D8
:100F53005562BB011208558ABB0112085596BB01A5
:100F6300120855B5BB01120855D5BD011208552409
:100F7300BF0112085568BF0112085510C0011208BD
:100F830055F3C0011208559EC101120855EAC2016A
:100F9300120855E8C3011208558EC4011208551EE4
:100FA300C50112085535C5011208556CC501120853
:100FB3005576C50112085581C5011208559FC50113
:100FC300120855E3C50112085540C60112085565BC
:100FD300C6011208557FC6011208550BC701120836
:100FE3005528C80112085595C8011208557CC90136
:100FF300120855A3C90112085517CA0112085592C0
:10100300CA0112085596CB011208558CCC0112085F
:10101300553BCD011208554ECE01120855EACE01BB
:1010230012085577CF0112085555D0011208558D76
:10103300D001120855E5D001120855AED1011208AE
:1010430055CFD10112085556D2011208557AD20153
:101053001208559CD201120855E5D201120855FB1E
:10106300D401120855E2D50112085593D60112088E
:1010730055C9D80112085519D90112085559D90172
:101083001208559BD901120855F7D90112085525A5
:10109300DA0112085549DA011208559CDA011208DF
:1010A30055CADA0112085503DB0112085558DB0152
:1010B300120855BEDB0112085512DD011208553521
:1010C300DF01120855A2DF01120855CBDF01120818
:1010D3005556E001120855BDE00112085508E1011B
:1010E3001208552CE10112085550E101120855ABC5
:1010F300E101120855C6E1011208557FE201120809
:1011030055E1AA0412085520AB0412085578800251
:10111300120855BE80021208559E8102120855A07E
:101123008202120855A383021208552F8502120862
:10113300558D85021208554A8602120855688702A2
:10114300120855D9870212085515880212085563EB
:1011530088021208556D8802120855B188021208D8
:10116300550D8902120855A88902120855258A02CD
:10117300120855F48A021208558D8B02120855ADD8
:101183008B02120855E38B02120855148C021208C5
:1011930055D58C02120855E58C02120855398D027B
:1011A300120855548D02120855668D021208556FA8
:1011B3008D02120855C98D02120855258E02120898
:1011C30055718E021208558C8E02120855BD8E027F
:1011D300120855DA8E02120855E68E021208555A85
:1011E3009002120855739002120855DA9002120801
:1011F30055ED9002120855FB9002120855AF91026B
:101203001208559392021208559993021208552316
:1012130094021208552D94021208559A940212084A
:1012230055B19402120855E394021208551C950215
:10123300120855469502120855A79502120855C77C
:101243009502120855E595021208552B96021208CD
:10125300555197021208559E9702120855CD9702D1
:101263001208554398021208556B9802120855A4A8
:101273009802120855B298021208550A99021208E8
:1012830055599902120855989902120855C899029E
:10129300120855F49902120855FF99021208551DB8
:1012A3009A02120855DF9A02120855E99A021208A7
:1012B30055249B021208553A9B021208558F9B0234
:1012C300120855A39B02120855B19C02120855C47B
:1012D3009C02120855D99C021208557B9D021208E4
:1012E30055FE9D02120855BC9E02120855C79E0268
:1012F300120855F39F021208550FA00212085561F8
:10130300A002120855A0A002120855B5A0021208A7
:101313005517A102120855A6A102120855F1A10200
:1013230012085542A402120855C0A40212085535EA
:10133300A50212085557A7021208556FA7021208F3
:101343005572A7021208557EA70212085592A702EA
:101353001208559AA702120855CDA7021208557D07
:10136300A802120855F3A80212085566A90212082A
:10137300551AAA02120855CFAA02120855EEAA025C
:101383001208558EAB021208559AAB02120855C5C6
:10139300AB02120855C8AB0212085532AC02120850
:1013A300555AAD0212085532AE02120855BDAE02AF
:1013B300120855D6AF0212085593B002120855CC45
:1013C300B002120855FDB002120855BBB102120853
:1013D30055EBB102120855C6B2021208555FB302AB
:1013E300120855EAB3021208559BB4021208551E9F
:1013F300B50212085550B50212085591B5021208EC
:10140300552BB10312085590B103120855CDB10302
:101413001208551CB20312085532B40312085515AD
:10142300B6031208557FB903120855BAB903120857
:1014330055DCB9031208553FBA0312085573BA03B2
:1014430012085596BA03120855C3BA031208551F5A
:10145300BB03120855159B03120855939B031208EF
:1014630055C99B03120855359C03120855A89D03C3
:10147300120855C49D03120855099E031208559777
:101483009E03120855F09E031208551DA00312086F
:10149300552FA1031208558CA103120855F8A10377
:1014A30012085559A2031208559AA2031208554768
:1014B300A30312085559A40312085584A403120860
:1014C30055CFA40312085516A503120855A8A50362
:1014D30012085563A603120855C5A904120855AD91
:1014E300A004120855BEA0041208550FA104120847
:1014F3005554A104120855FEA104120855D1A6049F
:10150300120855869D04120855DE9E04120855DA0A
:10151300A6031208557FA7031208559FA7031208B5
:1015230055BFA703120855D3A7031208552BA803C9
:101533001208555BA803120855DCA903120855824B
:10154300AA0312085564AB03120855B5AB0312087E
:1015530055F8AB031208553BAC03120855A1AC0375
:10156300120855C2AC031208554EAD031208557F3D
:10157300AD03120855F3AD03120855A1AF031208CA
:10158300557BB003120855BDB0031208552BD80282
:10159300120855CFFD03120855F0FD031208552616
:1015A300FF0312085550FF031208556F8A041208EF
:1015B30055EA8A04120855F58A04120855168B0455
:1015C300120855D88E03120855DB8E031208559561
:1015D3008F03120855C08F03120855079003120892
:1015E300552C900312085545E002120855819003CB
:1015F300120855BA9003120855E391031208551ABD
:1016030092031208553A9203120855D59203120811
:10161300559A9303120855D193031208554695031F
:10162300120855E99503120855E296031208550B63
:1016330097031208555F970312085525980312085C
:1016430055539803120855E89903120855699A03EC
:101653001208559C9A031208556BBB031208557563
:10166300BB03120855C1BB031208552FBC03120854
:101673005550BC0312085567BC0312085517BD0328
:10168300120855ABBF03120855B4BF031208550720
:10169300C00312085530C00312085597C00312083F
:1016A3005528C1031208556AC103120855B4C10372
:1016B30012085513C2031208553FC203120855D02E
:1016C300C2031208550FC3031208554EC303120871
:1016D3005583C30312085595C303120855A7C303C3
:1016E300120855C6C303120855CFC3031208558504
:1016F300C403120855C5C403120855CFF1031208D9
:1017030055A2F203120855BCF203120855CDF20399
:10171300120855E2F40312085501F5031208559C0B
:101723009904120855D299041208551B9A041208F9
:10173300556B9B04120855AE6900120855ED6A00FB
:10174300120855296B00120855E86C001208551150
:101753006D00120855A46F00120855E86F001208B7
:101763005571710012085509720012085571720003
:101773001208551273001208555473001208559439
:1017830073001208551F75001208558F7600120852
:1017930055B47800120855E278001208550979000B
:1017A3001208551279001208556D79001208550078
:1017B3007A001208551E7D001208559F7D001208FD
:1017C30055E0FF02120855F6FF0212085544AA0419
:1017D3001208550A87041208551D8704120855BAC2
:1017E3008704120855F58704120855108804120857
:1017F300553588041208557A8804120855AB8804B5
:10180300120855DC8804120855628A0412085576BA
:10181300A304120855ACA304120855C8A304120864
:10182300550AA4041208551AA404120855AFA404B7
:10183300120855B9A404120855EEC403120855FD45
:10184300C503120855B2C603120855F2C60312089F
:101853005582C90312085560CA0312085586CD0381
:10186300120855BBCD0312085500800312085558C2
:101873008003120855418103120855DA81031208C7
:1018830055248203120855818203120855DA820314
:10189300120855EE82031208552083031208551EC1
:1018A3008403120855828403120855A68403120880
:1018B30055F584031208550B850312085518850343
:1018C300120855488503120855618503120855F21D
:1018D30085031208550186031208558986031208E9
:1018E30055E386031208552E8703120855508703C4
:1018F300120855C78903120855FC89031208558C31
:101903008A03120855018B031208557E8B031208B4
:1019130055BA8B03120855108C03120855D48C0347
:10192300120855F98C03120855038D031208550646
:101933008D031208558F8D03120855AA8D031208C3
:1019430055BD8D03120855E98D03120855248E03E6
:10195300120855278E03120855328E031208556E4E
:101963008E03120855818E03120855A88E031208A0
:101973005594AA04120855ACAA0412085574D70347
:10198300120855C3D70312085565D9031208552306
:10199300DB031208556BDB031208558DDC031208B9
:1019A30055BEDD03120855E0DD031208553CDE0386
:1019B300120855BEDE03120855B9E201120855DAC2
:1019C300E20112085564E301120855E9E301120824
:1019D3005565E401120855CEE4011208551AE501D4
:1019E30012085599E5011208552BE601120855B75F
:1019F300E601120855F9E60112085565EB011208D4
:101A030055E5EC0112085524ED011208550BEE01C2
:101A13001208550EEE01120855C2EE01120855F7D1
:101A2300EF01120855E2F10112085562F4011208A0
:101A3300551BF50112085538F6011208558FF901A7
:101A43001208559FF90112085500FB011208558C25
:101A5300FB01120855C0FC01120855B1FD01120823
:101A63005533FE01120855F8E602120855B2E70293
:101A730012085524E80212085533E802120855AD3E
:101A8300E8021208551CE90212085523EA0212085B
:101A9300554CEA02120855ECEA021208553AEB02D9
:101AA300120855B1EB021208556AEE0212085541AD
:101AB300EF02120855AEEF021208552BF10212087D
:101AC30055DFF1021208558DF202120855E8F202B1
:101AD30012085553F30212085553F40212085568BD
:101AE300F50212085573F60212085586F70212081A
:101AF300551FF80212085591F80212085557F902BA
:101B030012085535FA0312085589FA03120855E1EC
:101B1300FA031208552CFB031208558EFB03120817
:101B230055FAFB03120855ADFC03120855EEFC03EE
:101B330012085504FD0312085560FD031208559E53
:101B4300FD031208554697041208557797041208A7
:101B530055319804120855979804120855089904AA
:101B6300120855BC8D04120855488F04120855C439
:101B7300A704120855D5A70412085575A80412081E
:101B830055CE9B04120855DC9B04120855E47F00D4
:101B93001208552FA9041208553FA9041208555AD3
:101BA300A904120855BBA904120855CFA5041208AD
:101BB3005554A604120855B8A6041208552D9F04BF
:101BC3001208554F9F04120855B59F04120855D5A6
:101BD3009F041208551BA00412085576A00412088E
:101BE3005520ED0312085535ED031208554EEE034B
:101BF3001208558FEE03120855A9EE031208552952
:101C0300EF0312085542F003120855B6F003120809
:101C130055D0F003120855E3F003120855F1F00311
:101C23001208550BF10312085522F1031208554C03
:101C3300F1031208559AF1031208550080041208A3
:101C4300550E80041208558880041208556C8104CF
:101C530012085525830412085535AC04120855ABF8
:101C6300FA0212085518FB02120855D9FB02120892
:101C73005549FC0212085552FD02120855CAFE02CC
:101C83001208552EFF0212085583FF021208558CC5
:101C9300FF021208559BFF02120855AEFF021208FD
:101CA30055C4FF02120855CDFF02120855AFE303D6
:101CB30012085504E40312085500E60312085532CE
:101CC300E60312085554E6031208556DE60312089D
:101CD3005586E60312085590E7031208552BE803CF
:101CE30012085515A20412085539A20412085552B8
:101CF300A20412085585A204120855B6A2041208BC
:101D030055E4A20412085546A30412085555A3042A
:101D13001208555FA3041208556CA304120855F367
:101D23008F0412085519900412085556900412088E
:101D330055659004120855849004120855EC9004DC
:101D4300120855F590041208555491041208557859
:101D5300910412085537920412085544920412084C
:101D6300555592041208556EAB041208558BAB04FB
:101D7300120855A2E80312085500EA031208550D8C
:101D8300EA0312085520EA031208553FEA03120832
:101D93005555EA0312085569EA03120855DEEA03AA
:101DA30012085543EB03120855F3EB03120855C809
:101DB300EC03120855D8EC03120855E7EC0312089C
:101DC3005596A804120855BAA804120855E2A804A7
:101DD3001208550AA904120855839204120855AA39
:101DE3009204120855CB920412085530930412083A
:101DF30055E994041208550295041208550E9504EA
:101E03001208552295041208554095041208554AA4
:101E13009504120855549504120855679504120841
:101E230055BA9504120855F39504120855229604E1
:101E3300120855709604120855BF9604120855DA15
:101E43009604120855E49604120855F596041208F0
:101E5300553B9704120855A0FF0312085538CE03CB
:101E630012085562CE031208557ECE03120855910F
:101E7300CE03120855A7CE0312085504CF03120848
:101E83005537CF0312085573D30312085599D4035A
:101E9300120855CCD40312085518D503120855441B
:101EA300D6031208556CD60312085581D6031208BF
:101EB3005591D603120855D5D60312085536D703C4
:101EC30012085546D703120855CBFE01120855E6F2
:101ED300FE011208550FFF0112085529FF011208D0
:101EE300554EFF011208556DFF0112085585FF017C
:101EF300120855B3FF01120855CDFF011208552AE8
:101F0300AB041208558A83041208559183041208FE
:101F1300559D8404120855CD8404120855F3840496
:101F2300120855168504120855388504120855728F
:101F33008504120855D88504120855118604120821
:101F4300555D86041208558A8604120855AA86042C
:101F5300120855FC7D00120855147E001208550224
:101F63007F00120855E17F00120855BCA404120833
:101F7300552EA5041208556CA504120855ADA504E9
:101F83001208555AF60312085579F603120855C874
:101F9300F603120855E4F60312085515F703120861
:101FA3005525F70312085532F7031208553FF70377
:101FB3001208552BF80312085569F80312085573D4
:101FC300F80312085583F9031208558EF903120812
:101FD30055A0F903120855A9F903120855B3F903DB
:101FE300120855F2DE0312085537E303120855456C
:101FF300E303120855E0AB04120855AAAB04120818
:10200300550DAC0412085557AC04120855F4D6020A
:1020130012085548D6021208558ED4021208553EAE
:10202300D202120855C5D1021208556CD10212080A
:1020330055FCD002120855D3D002120855B3CE0274
:102043001208557FCE021208554CCE0212085530A5
:10205300CE0212085542CD02120855FACC021208DC
:102063005545CB02120855C5CA02120855C2CA0209
:10207300120855BFC9021208558DC902120855CA64
:10208300C802120855F5C60212085586C602120880
:102093005529E002120855ADDF0212085564DF022C
:1020A3001208551CDF021208556ADE021208555841
:1020B300C60212085555C60212085542C602120836
:1020C30055EDC502120855DCDD02120855DCC502C8
:1020D300120855CEC40212085598C4021208553F7F
:1020E300C402120855CFDD021208554D90031208A1
:1020F30055F5C30212085596C30212085565C3026B
:102103001208552DC002120855EDBF02120855E101
:10211300BF0212085541BF0212085581BE021208C0
:102123005503BC0212085594B90212085552B9025C
:1021330012085526B802120855DBB7021208551AC1
:10214300B702120855EDB60212085530B60212084E
:1021530055C6B50212085500B602120855C9DA026F
:1021630012085517B10300000080FBE47300013629
:10217300360101000102010001030100010401060F
:102183000605020000070100340801000F090401DD
:10219300010D0100FF0E08000017020000190100E5
:1021A300FF1A0100011B0100FE1C0100081D0200B3
:1021B300001F010001200100012102000023010092
:1021C3000F24020000260100012701000828020055
:1021D300FF2A0100072B0102402C0100002D010002
:1021E300012E0100012F0100FF30010B1C310800FB
:1021F300003A0100083B01000F2F010000030271A8
:102203000230016002110270020102020202028026
:1022130002100261023A0041006302730272026219
:1022230002430200021302380000020002040212F9
:102233000200020002000200020402040237003717
:10224300003C024402000239000002000265020061
:1022530002350281020002050282028302000203A8
:102263000071003001600011007000310220035042
:10227300048000100061000000140063007300720A
:102283000062004300000013000600000000000489
:1022930000120000000000000000000400040037EA
:1022A3000037003C0244000000000000000000650D
:1022B30000000035008100000005000000830000DD
:1022C3000003047104020460041104700402040294
:1022D300040104020410046104000414046304737D
:1022E300047204620443040004130406040004009B
:1022F30004040412040004000400040004510464F0
:10230300000004000400044404000400040004006A
:102313000465040004350481046400050400048397
:102323000400040103710301030103010301030119
:10233300032203020301031003000300030003004D
:102343000300030003000342030003240306030006
:1023530003000304031203250323032503230304B8
:1023630003040300030003000344030003000323E7
:102373000300036503210035038103000305030004
:1023830003000300030101710101010101110101B6
:10239300013101010101018001100161013B0014C0
:1023A300006301730172016201430100011301061D
:1023B300013D01350004011201000100010001008B
:1023C3000104010401330133013C014401320136AC
:1023D30000000100016501000135008101000105D4
:1023E3000182018301000136000100060000000F95
:1023F3000000000000000000000000000003FFFFD9
:1024030000000403FFFF0000FFFF0FF4010005C4F9
:10241300040320000100000B000000000000000086
:1024230003010F0000A31A13001F1A0100A31A02CD
:1024330000D7190300DD190400E3190500E91906A3
:1024430000F5191100131A1400191A1500071AFFC1
:10245300FF000001430E06730E086D0E0B7F0E1076
:10246300BF0D02490E05610E074F0E0C250E0D37E9
:102473000EFF000003EAF5E5D5D5C5B5A59595850D
:1024830085757565655555454535352525151505F9
:102493004B127B1251125712751269126312811279
:1024A30087128D1299125D1245123F1200160F000A
:1024B300000B150B020002220F320000063B134DE6
:1024C300135313151259130F121B124F1149118570
:1024D300118B117F1137119B13B913BF13A113ADC7
:1024E30013A713303016181920231A1C1E300C0E94
:1024F300020B040B0A0708000F00383C3E363B3B37
:10250300352B432C303017181921301B1D1F300079
:102513000119161816161523030000034948424DE6
:1025230018172505028F135F13651371136B136F50
:10253300129312B3139F12A51202040201010101A7
:1025430009025B1161115511911100000000000097
:102553006711791100BE040A150004007F00E80327
:102563000C002800000000000308100C0A030809EF
:1025730000040001FF1E1E0C05040F1008C082C0DA
:10258300838A828B83E0D2E7F012192902376DC068
:1025930082C0837900122A4C12593AC082C08390B8
:1025A30003341246C0D083D082C3E09CA3E09D5085
:1025B3000C12600EFAA3E01225C360010902376D05
:1025C300FBEA75F00BA4FAA8F075F00BEBA428FB5B
:1025D300900336E02AF8A3E03B8882F583E0540FAA
:1025E3002274F71203768908122A4C122AF2ACF0ED
:1025F30075F00BE9A42CF9900336E028FEA3E0392B
:10260300FF7401650860067402650870208A828B76
:1026130083122ADE12399C74026508701B12299DED
:10262300122B2570138E828F83E4F0800BEA240330
:10263300FCEB122AC0122ACCEEFAEFFB120B3D027E
:1026430038F974F412037612693579008E828F8318
:10265300E06076890A890B8065E50A75F00BA4FAB8
:10266300A8F075F00BE50B1225D07046E50A75F05E
:102673000BA4F8AAF075F00BE50B122B048E828FD6
:1026830083E0850882850983122BE6850882850904
:1026930083A312399CEE2403FCEF122AC912377A62
:1026A3001253B4AA08AB09120B3D790190033412FB
:1026B3004DC9E50A2401F50AE50B3400F50B12298F
:1026C300A5E50A9AE50B9B4090023B4674F512037D
:1026D30076EAFEEBFF740B120B0612377F750A01C5
:1026E300EC4D602BEC126951ED12593A1239947981
:1026F30001120B49E5084509606F85088285098346
:10270300A312693F7902AA08AB09120B49805AE563
:10271300084509602B12593E12400812377B122BD1
:102723000F700CEEFAEFFB120B4FE9F50A80CBEEBC
:102733002403FA122A4770317903EEFAEFFB80CAB9
:102743008E828F83A3E064FE7003A3E0F4700BEE2C
:1027530024030A0A0A122A47700CEEFAEFFB120B43
:102763004FE9F50A8003750A00A90A7F0302059160
:1027730074F7120376900334123909EA4B602FEA97
:1027830075F00BA4FAA8F075F00BEBA428FBEAFE96
:10279300EBFF12172B900336123909900336124CB4
:1027A3000E6012EEFCEFFD790012166B80079003AA
:1027B30036E4F0A3F00238F9900334124378C3EE01
:1027C30098EF9922C082C083EC4D6005121F7D8073
:1027D300097C087D00790012166B02376D74F612BE
:1027E30003767900EA4B601878008808125C81EB65
:1027F30012600A60047901780808E8C3940840EA83
:102803000239A574F712037674F3120934ECFEED62
:10281300FF851882851983E4F004120B06EAF0A3FE
:10282300EB12513A7403120B06AC82AD83EEFAEF4E
:10283300FB120B61EEFAEFFB120B670238F474F72D
:1028430012037674F3120934ECFEEDFF85188285CA
:102853001983E4F0EAFCEBFD7403120B06122BDF81
:102863007401120B061239908E828F8312399C7475
:10287300FE68700374FF69600479018002790002C5
:1028830038F474F7120376EAFEEBFF1228E37014B0
:102893001228EE8E828F83E0F4F88A828B83E058CD
:1028A300F0120B3DA9080238F974F7120376EAFE19
:1028B300EBFF7508008E828F83E060221228E3709D
:1028C3001D1228EE8A828B83E08F838E82F8E05874
:1028D300700CE0F88A828B83E048F0120B3D80C4D1
:1028E300120B43E9F508740165082212694A122A9A
:1028F300F6122A38FAA3E039FB2274F41203768A1B
:10290300088B097C007D0012299D122ACC122A5DB6
:1029130012693C7900850882850983A3E064FE700F
:1029230003A3E0F460717E007F008062EEFAEF1291
:1029330025C36057EEFAEFFBEA75F00BA4FAA8F093
:1029430075F00BEBA428FB900336E02AF50AA3E00D
:102953003BF50B850882850983A3125088850A827B
:10296300850B83A3E06A7003A3E06B701EE50A2462
:1029730003FAE50B122A48700AE50A2403FCE50B67
:10298300122AC9122A51790112595012333C1229C1
:10299300A5EE9AEF9B4095023B46EA24030A0A0AF6
:1029A300EB22900334125527C32274F31203768A61
:1029B300088B098A828B83A312693F122A4C1269FE
:1029C3003C750C0012299D122A4870547E007F002A
:1029D3008049122A2AFAA3E0398A82F583E0540F48
:1029E3006036122A2AF50AA3E039F50BE50A240317
:1029F300FCE50B122AD33400FB121F77E964017044
:102A030017850A82850B83A31255E8A312399C12FA
:102A13002A51750C0112595012333C1227BB40B294
:102A2300A90C7F05020591EEF8EFF9E875F00BA408
:102A3300F8122A3822AAF075F00BE9A42AF99003B8
:102A430036E02822EF122B1F22126950EB22122AA2
:102A53005D12594BEEF0A3EFF022E508126951E540
:102A6300092274F5120376EAFEEBFF8E828F83A3AD
:102A730012693F7C007D00EE24030A0A0AEF122A42
:102A8300CCEEFAEFFB120B43E9F50A7401650A7009
:102A93002912694A122AF2AAF075F00BE9122B04E3
:102AA300850882F583122ADE122B0F700DE50824A8
:102AB30003FCE509122AC0122ACC02276C3400FD5C
:102AC300EE2403FAEF22122AD33400FB120B612205
:102AD3003400FDE5082403FAE50922A3122AE322C0
:102AE300122AE722E0F8A3E0F98E828F83A3221251
:102AF3002AF6223400F58312437CE875F00BA4F820
:102B030022122A3EF508A3E039F50922E8F0A3E9E9
:102B1300F0E5082403FAE509122B1F22122B256482
:102B230001223400FB120B67E92274F3120376745B
:102B3300E6120934126935750C0175080075090030
:102B4300750A00750B00851882851983E4F0EE245D
:102B530003FCEF3400FD7403120B06122BDFE96450
:102B6300017023740B120B061239947401120B06B5
:102B730012508C7003A3E069605185188285198314
:102B8300858208858309740D120B06E4122BE67403
:102B93000E120B0612399C740D120B06AA82AB831C
:102BA300120B85E96401700B740D120B0685820A02
:102BB30085830B780A120872AC08AD09EEFAEFFBB5
:102BC300120B5574021208BAE9F50CEEFAEFFB1278
:102BD3000B7FA90C741A1208BA022A25122EB212FC
:102BE3000B8B2212390412437822C082C0837800EF
:102BF30079008003122CDD1229A5E89AE99B50295C
:102C0300E8FAE9FBEA75F00BA4FAACF075F00BEB0C
:102C1300A42CFB900336E02AFCA3E03B8C82F583D3
:102C2300E0540F70CF79008002790102376DC082C2
:102C3300C08390255B1243CEEC75F012A4FCA8F080
:102C430075F012EDA428FD79FF7A3E7B0912166B0D
:102C530002376D74F7120376E9FEEAFF7A007B0010
:102C6300780079008028E8FCE9FDEC75F012A4FCFB
:102C730085F00875F012EDA425081230F2C39E40CA
:102C83000AE0FCEFC39C4003123211122CDD123018
:102C9300E640D30238F9C082C0837800790080030C
:102CA300122CDD122CD1501F1230F6F470F2E8759D
:102CB300F012A4F8AAF075F012E9A42AF9743E28D8
:102CC300FA740939FB80047A007B0002376D902582
:102CD3005B1231A7C3E89AE99B22E8240108E9348F
:102CE30000F92274F012037674F31209348A0A8B02
:102CF3000B8C0C8D0D8908EC450D6016AA0CAB0DE1
:102D0300120BD98A0E8B0FAE0EAF0FEE4F6003027C
:102D13002DA4120BAF8A0E8B0FA80EA90FE8FEE9A4
:102D2300FFE849607C902569122E066022740365D2
:102D33000860067404650870167A047903120BA9F7
:102D4300902569122E1D40077A007B00022E039006
:102D53002567122E06601B74016508600674026500
:102D630008700F7A027901120BA9902567122E1DA4
:102D730050D68518828519837401F0120B061253FD
:102D8300B4AC0CAD0D7403120B06122EAB740B1204
:102D93000B06123787123D7CE412539C12108F806E
:102DA30004EE4F604A780074FF2508C39404500270
:102DB30078048E828F831253B48E828F83A3A3A34E
:102DC300A3E508F0E88E828F83A3A3A3A3A31253E2
:102DD300BC1202251231BE8E828F83A3A3A3A3A3A9
:102DE300A3A3F01231B5120AE3125934120AEF12F7
:102DF3002E0B4005900E9AE4F0120F69EEFAEFFBEA
:102E03000243821254D649227A047900120BA99004
:102E1300255B125FF0EA98EB9922122E3675832513
:102E230075825BE493C398F8A3E49399F9C3EA9892
:102E3300EB9922E493F8740193F92274F212037666
:102E430074F31209348A088B09ECFEEDFF750A004E
:102E5300EEFAEFFB120BD98A0C8B0DA80CA90DE827
:102E630049603E88828983E065087004A3E06509B0
:102E7300602F88828983A3A3A3A3E0C39405502171
:102E83001257E28518828519837401F0120B06121A
:102E930057E6EEFCEFFD7403120B06122EAB750A18
:102EA30001A90A740D024E80122EB2120B9722AAA8
:102EB30082AB83120B61851882851983AA82AB8347
:102EC3002274F6120376122F00600FA3A3A3A3E0CC
:102ED30014C3940450047901800279000239A57463
:102EE300F6120376122F00600FA3A3A3A3E014C36B
:102EF300940250047901800279000239A5120BD3A0
:102F03008A828B83E58245832274F6120376122F1D
:102F130000600BA3A3A3A3E07004790180027900EE
:102F23000239A5C082C083EAFCEBFD7A007B000274
:102F3300376AC082C0837C007D0002376A74F41252
:102F4300037674F3120934EAFEEBFF8C0A8D0BC38C
:102F5300EC94F8ED94FF4007EE4F7003022FF975E0
:102F63000800750900802E8518828519837401F085
:102F7300123364120B0612337260137403120B06BE
:102F8300AC82AD83EEFAEFFB121F77E97049E508D7
:102F9300240112319290255BE41254DEE50898E592
:102FA30009995052E50875F012A4F8AAF075F012C9
:102FB300E509A42AF912602360D4EE4F70A974FFC7
:102FC300650A700474FF650B60C4123354650A709C
:102FD30004A3E0650B70B7E50875F012A4F508A823
:102FE300F075F012E509A428F509743E2508FA7472
:102FF300093509FB80047A007B00023B4174F4121B
:10300300037674F3120934750800120BD98A0A8BFC
:103013000BAE0AAF0BEE4F602A85188285198374B5
:10302300011238FEF8A3E0F9740B120B06123A1FD3
:10303300120B797C127D0079FFEEFAEFFB12166B0F
:10304300750801122E0B5009900E9A7401F0120F9D
:1030530069A908023B4174F7120376E9FE74FE6A1C
:10306300700374FF6B7800790070058052122CDDB9
:103073001230E6504AE8FCE9FDEC75F012A4FCAF0F
:10308300F075F012EDA42F1230F2F460E0E8FCE9E1
:10309300FDEC75F012A4FC75F012EDA42FFD743E47
:1030A3002CF58274093DF583E06A7003A3E06B702D
:1030B300BC80091230F614C394044017122CDD129D
:1030C3002CD15018EE70EC1230F664016005E06408
:1030D3000370E9123345FAA3E0FB80047AFE7BFF19
:1030E3000238F990255B1243D2C3E89CE99D221272
:1030F300324622E8FAE9FBEA75F012A4FAACF0755D
:10310300F012EBA42CFB74422AF58274093BF5837D
:10311300E022120BEB02376DC082C083790180F28B
:1031230074F01203768A0A8B0B7A047901120BA9C5
:103133008A0C8B0DEA450D603EEAC333FAEB33FB91
:1031430012172B8A088B09AE08AF09EE4F60237A5A
:10315300FE7BFF120BF174FE6A700374FF6B601B3E
:10316300850882850983123909E508240212319200
:1031730080E1750C0080047E007F00850A82850B48
:1031830083E50CF0EEFAEFFB024387E5082407F52D
:1031930008E5093400F5092290255B1243D2C3EAFE
:1031A3009CEB9D22E493FA740193FB2212165F7445
:1031B3000322125945E4F09081D722E88E828F834F
:1031C300A3A3A3A3A3A3A3A31231E074011231E029
:1031D300A3F0EE2410125948E4F0A3F022123D8824
:1031E300A3A3A322C082C0837A007B0080041912A8
:1031F300321112319B5010123230C3940550F0E952
:1032030070EC12321A80047A007B0002376DEA24D4
:10321300010AEB3400FB22EA75F012A4FA75F012EE
:10322300EBA428FB743E2AFA74093BFB22EAFCEB6D
:10323300FDEC75F012A4FCA8F075F012EDA42812B1
:10324300324622FD74422CF58274093DF583E02257
:1032530074F712037674F31209347E007F0002328E
:10326300F8E50875F017A4F8A9F0126284FAA3E050
:10327300FBEEF8EFF9E875F012A4F8ACF075F01274
:10328300E9A42C1233536A7003A3E06B603FE50893
:1032930075F017A4F8AAF0EA126283F8A3E0F974B0
:1032A30001120B06E0687003A3E0696020E508756E
:1032B300F017A4F8EAF974BA28FC740A39FD740308
:1032C300120B06AA82AB83121F77E96014E5087517
:1032D300F017A4F8A9F074B828FA740A39FB12108D
:1032E3009B050890256DE493F8E508C39850030205
:1032F300326412333C90255B1265CA5039EEF8EF05
:10330300F9123345F47003A3E0F460E6851882856F
:1033130019837401F0EEF8EFF9E875F012A4F8756B
:10332300F012E9A42AF9123364120B061233726005
:10333300C175080080AD0238F4EE24010EEF3400AD
:10334300FF22E875F012A4F8AAF075F012E9A42A96
:10335300F912335822743E28F582740939F583E053
:1033630022744028F582740939124376740B22E8DB
:10337300F0A3E9123A27120B91E922C082C083908D
:10338300033D745BF0A3740EF090033F7455F0A3F8
:10339300740EF09003437475F0A3740CF002376D50
:1033A30074F7120376EAFEEBFF900377E06408609C
:1033B3001BE0640460168E828F83E0540364017003
:1033C3004812377A123E7DE06406703D8E828F8309
:1033D300A3A3E064FE7003A3E0F4602D8E828F83C9
:1033E300A3A3123990900368E0687003A3E06970A7
:1033F3000BEE2415F582EF12600A6008120F09E93B
:10340300F5088008120F0F80F67508C2EEFAEFFB7D
:103413001217310228A774F41203768A088B098ADB
:10342300828B83E0F8A3E0FAE82AFAE43400FB1283
:10343300172B8A0A8B0BAE0AAF0BEE4F606385081E
:1034430082850983E0FC7D00790012166B8E828FE2
:1034530083A3A312693F120F4B8E828F83A3A3A36F
:10346300A3123909850882850983E0F8EE28F8EF6D
:103473003400123998850882850983A3E0C0E0EE01
:10348300240D125937D0E0F0120F5DEE240E1259BD
:1034930037E9124FE9E0C0E0EE2411125937D0E0CA
:1034A300F0EEFAEFFB023B4674F412037674EB1270
:1034B30009348A088B098C0A8D0BE9FE900377E0A7
:1034C30064046005E06408700479C2802EA3780860
:1034D300120AC7EE90037E123774120AC7740512DC
:1034E3000B06E9F07404120B067401F07407120B57
:1034F30006E4F090037774021236EA7415023B4334
:1035030074F612037674EB120934EAFEEBFF124CE5
:103513000B60030235A77A077B0012172B90033940
:10352300123909124C0B60788E828F83120AE39052
:10353300033A123E80120AEF126803C0E01235B359
:10354300D0E0F0EE2405FAEF3400FB8A088B098AF9
:1035530082F583E0C0E01235AED0E0123B3DE0C01F
:10356300E01235AEA3D0E012397D120AE38518824A
:10357300851983120AEF88828983E0C0E0740512FB
:103583000B06D0E0F0850882850983E0C0E074046F
:10359300120B06D0E0F07407120B061236E9800610
:1035A30079108002790174150239A21235B3A3226E
:1035B300900339E0FAA3E0F5838A82A3A3A3A322AD
:1035C300C082C083124C0B600D90033912551590C5
:1035D3000339E4F0A3F0120E7912103B02376D7435
:1035E300F012037674EB120934ECFEEDFF890874D4
:1035F30025120B06780C120AA97429120B06E0F99E
:10360300742A120B06E0FC742B120B06E0FD740FF8
:10361300697005740F6C6012900EF5E0640270051A
:1036230079C10236E4E9C39C40F6900378780C1222
:103633000AC7E50890037EF0E990037CF0ECA3F061
:10364300ED90037FF074FF6A700374FF6B701D903D
:103653000F00E0F47003A3E0F47005121683800CEE
:10366300900F001238D1E8F0A3E98007900375EAC0
:10367300F0A3EBF0EE4F6017EEFAEFFB1210FBE94D
:103683006401700BEEFCEFFD7A897B03121F7D90C2
:103693000368E4F0A3F090036BF0A3F0900388F0C9
:1036A300900EF5E06402700890037C740FF0A3F0B1
:1036B3009003777405F014120B06E4F0900378126C
:1036C3000AE3851882851983120AEF90037EE0C00E
:1036D300E07405120B06D0E0F07407120B061236E5
:1036E300E97415024384E4123A27121FAD2274F7DA
:1036F300120376E9900338F07A807B009003C2E0EE
:10370300F91217F7120C3F79000238F9C082C0830F
:10371300900338E07003121A0D120C3F804CC082E4
:10372300C083900338E0900E997004E4F0802D7408
:1037330001F0900338E0F460237C41E0C3944150EE
:1037430002E0FCECF8E0C398F0EC75F0E8A4CCA838
:10375300F075F003A428FD7A801243DA7A997B0E80
:103763007941121F958003120BDFD083D0820208A8
:1037730052123988780822EE12594622E0F508A33E
:10378300E0F5092212378B22122AE7A32274F512DD
:10379300037674E2120934851882851983ECF0A349
:1037A300EDF0EAFEEBFF89087429120B06E0F50938
:1037B300742C120B06E0F50A900377E064046005AD
:1037C300E06408700579C20238C2742A120B06E05D
:1037D30064FE7003A3E0F4700579C30238C290035A
:1037E300777403123A237950121F95742A120B0629
:1037F300AA82AB83794B121F958518828519831290
:1038030038D112399CE50890036AF0742A120B062A
:103813001238CA12399CE5099003621238D874CE63
:1038230055094480C0E07412120B06D0E0F0740115
:10383300250A900388F0740F120B067402F0742AA1
:10384300120B061239907407120B06E8F0A3E91263
:10385300390F7410120B0612399C7405120B06E50E
:1038630008F0741B120B06E4F090037D740FF07ADA
:103873007D7B037954121F9590037C740FF07A7C3F
:103883007B037947121F9590037CE0C3940F502369
:103893007405120B06E0C0E07402120B06D0E0F0D0
:1038A3007404120B067401F004120B06AA82AB8394
:1038B300121FB97405120B06AA82AB83121F9B74E5
:1038C3001E1208BA02276E12437890036B2212432A
:1038D3007890037522F0EEFCEFFD7A897B03121FCB
:1038E3007D2274F7120376EB90037FF0120E67804C
:1038F30005740D1208BA7F01020591123904A3E081
:103903002212397DA322EAF0A3EBF022123983F8C5
:10391300A3E0F92274F712037674F8120934EAFE6D
:10392300EBFF7900900377E0640870448518828583
:10393300198374FDF0A374FFF0120F457402120B88
:10394300061239097405120B06E4123904E0C0E0CB
:103953007404120B06D0E0123978C0E07406120B1F
:1039630006D0E0F07407120B06E4123A23120F8715
:1039730074080238F612397DE022F08E828F83229A
:10398300123988E022F08518828519832212437840
:1039930022E0F8A3E0F9125945E8F0A3E9F0221276
:1039A30008BA7F02020591C082C08390034974055F
:1039B300F0A3740DF09003EF74E1F0A3740FF09093
:1039C300034D743BF0A3740DF090034F7405F0A303
:1039D300740DF09003517441F0A3740DF002376D30
:1039E30074F412037674F91209348A088B098C0A69
:1039F3008D0B8518828519837808120AC7740412FF
:103A03000B06E9F07405120B06E4F07406120B06BC
:103A1300E4123A23120C217407023B43E8F0A3E9B2
:103A2300123A2722123988AA82AB832274F4120332
:103A3300768A088B098A828B83125953EE4F70035F
:103A4300023B3B900312124C0E60158A828B83A3B8
:103A5300A3E0F9EEFAEFFB900313123E8012216EFE
:103A63008E828F83A3A3A3A3A3A3A3A3A3E0640230
:103A730070748E828F83A3A3A3A3A3A3E0540270C5
:103A830003023B0D850882850983A3A3E064E960F3
:103A9300798E828F83A3A3A3A3A3A3A3A3A3A3E04A
:103AA3007014900EF8E0048E828F83A3A3A3A3A3C4
:103AB300A3A3A3A3A3F08E828F83A3A3A3A3A3A3F0
:103AC300A3A3A3A3E014123B3DA3A3A37404F09008
:103AD3000EF912538EE8F0A3E91264678B0BEA45E3
:103AE3000B7003125E458E828F83A3A3A3A3A3A3AC
:103AF300A3A3A3E0640260128E828F83A3A3A3A374
:103B0300A3A3A3A3A3E06406702E8E828F83A3A333
:103B1300A3A3A3A3E0A2E0501F850882850983A382
:103B2300A3E0F9EEFAEFFB1220498E828F83A3A361
:103B3300A3A3A3A3E054FEF08009123D8422740DD5
:103B43001208BA7F0402059174EC12037674DD1235
:103B53000934EAFEEBFF8C088D097437120B0678E3
:103B63000C120AA9750A007405120B06AC82AD8308
:103B7300120B197412120B06E070087415120B065F
:103B8300E060207405120B06E0A2E6501E8E828FC1
:103B930083A3A3A3A3A3A3A3A3A3125088120FBD1C
:103BA300E960087903121F65023D6A7405120B066A
:103BB300E0540C64047005750B018003750B00E081
:103BC300A2E55035750A01E50BA2E0402C120F4B1C
:103BD3008A108B11A810A91112377AE0687003A319
:103BE300E06960157405120B0612694612508412BF
:103BF3002055E96004790480AC7405120B06E0A239
:103C0300E650227406120B06E05403701874051272
:103C13000B06E0540C640C600CE0540C6408600563
:103C230075100180037510007405120B06E0540330
:103C3300F8740268700C126946125084120B2B023E
:103C43003D6A740168703AE510A2E05003123D72B8
:103C53007405120B06A882A9837403120B06E8F0FD
:103C6300A3E912436C851882851983123D7CE0C059
:103C7300E07402120B06D0E0123A2312213F023DF8
:103C83006AE86003023D6A90035FE0640170108E8E
:103C9300828F83A3A3A3A3A3A3E07003023BF874BF
:103CA30022120B06740212436C741A120B06123999
:103CB3009CE510A2E050087405120B06123D72E554
:103CC3000BA2E0506AEE240FF582EF12600AC0E007
:103CD3007417120B06D0E0F0900314124C0E70030D
:103CE300023D6A120F4B8A128B13A812A913741A7E
:103CF300120B06E0687003A3E069706B780C12087E
:103D03006A780A1208767808120872A910740C12DD
:103D13000B06AC82AD837421120B06AA82AB83908F
:103D23000314123E7D12216E74071208BA8038788C
:103D33000C12086A780A120876780812087290033F
:103D4300751206DAEE2412F582EF125D387423122F
:103D53000B06AC82AD83740E120B06AA82AB8312E0
:103D6300203D74091208BA74231208BA026432128D
:103D73006946125523120B1F22E8F0A3E9123D8472
:103D830022123D8822F08E828F83A3A3A3A3A3A331
:103D93002274F71203761218E10238F974F712034A
:103DA300761218E70238F974F71203761218F30241
:103DB30038F9C082C0831218ED02376D74F712030D
:103DC300761218F90238F974F71203767409120B94
:103DD30006E0F5087808120876121905740102380E
:103DE300F6C082C08312191102376DC082C08312DC
:103DF300191702376D74F712037612191D0238F979
:103E030074F7120376EAFEEBFF8908740165087004
:103E1300147900120D7D902578E493FC7900EEFA75
:103E2300EFFB120CF30238F974F412037674F912EF
:103E33000934E9FE8A088B098C0A8D0B7413120B63
:103E4300061250889005B0124C0E6027EE8518823A
:103E5300851983F07401120B067808120AC7EAF871
:103E6300EBF97405120B06123A1F9005B0123E7D52
:103E730012216E023A1AFB90034BE0F8A3E0F5839C
:103E8300888222C082C08312195302376D74F712DD
:103E93000376900E9CE0F97E00800B125FF6540DC2
:103EA30064017001190E12408A5003E970ED023863
:103EB300F974F7120376900E9DE0F97E00800B12E1
:103EC3005FF6548D64817001190E12408A5003E924
:103ED30070ED0238F974F2120376890BE975F00676
:103EE300A4240CF508E5F01231968A0CE508250C9C
:103EF300FAE5093400FB12172B8A0C8B0DAE0CAFBD
:103F03000DEE4F6027AC08AD09790012166B12371E
:103F13007AE50BF0EE2508F8EF3509F98E828F83E9
:103F2300A3A3A3A3A3A3A3A3A312399CEEFAEFFB1A
:103F3300024E8374F6120376EAFEEBFF120CCF9067
:103F43000E9BE0F8E9C3984009900345125088128C
:103F53000CD5EE2402F8EF125698900347125552EF
:103F6300900347E004F0EEFAEFFB120CDB850882C6
:103F7300850983E0025B4EC082C0837900900345CC
:103F83008001091250888A828B83E582458370F20F
:103F930002376D74F7120376EAFEEBFFEE4F6056BD
:103FA300900345124C0E604E888289837A007B0011
:103FB300EE65827003EF6583600FAA82AB83123FC5
:103FC300FCE5824583602F80E79003451240086833
:103FD3007002EF698E828F837008123990900345C7
:103FE300800312644412399CEEFAEFFB12210FEEA8
:103FF300FAEFFB1217310238F91240002212437C08
:104003008882898322124378EE22C082C083900380
:1040130045800488828983124C0E600B88828983D1
:104023001246C0EC4D70EC8A828B83E4F0A3F0E877
:104033004960068882898380039003451239090207
:10404300376D74F712037690034580048A828B835D
:104053001240854B60257E0080010E12408A50EC91
:10406300EE75F006A4FCADF0EA2CFCEB3DFDEC2470
:1040730010F582ED1240DA70E180047A007B0002D1
:1040830038F9125527EA221240E3EEC3982274F757
:104093001203767D0080010D1240DFEDC39850348A
:1040A300ED75F006A4FEA8F0E8FFEA2EFEEB3FFF55
:1040B300EE2410F582EF1240DA70DCED75F006A401
:1040C300FEE8FFEA2EFAEB3FFBEA2411F582EB123E
:1040D300600A4CF00238F912601669221240E3229A
:1040E300126950EB3400F583E0F82274F61203767C
:1040F300120DF57A007B008025EAF8EBF9E875F0FC
:1041030006A4F8ACF075F006E9A42C1254FC12686E
:1041130011A3E41255F2F0A312681712698E9025C9
:1041230063122E1540D37A007B00801C8A088B090A
:1041330074037808120A35124FB0A374FEF0A30477
:104143001253D2A3E412698E90256C12418D40DC88
:104153007A007B00801D8A088B0974037808120A91
:104163003574E0125C82740D1264C974FEF0A3040A
:1041730012698E90257212418D40DB902576E4936F
:10418300900353F01241970239A5E493F8C3EA98D8
:10419300EB9400227CE87D037A107B009003C2E05D
:1041A300F91217F12274F012037674F51209348AA6
:1041B300088B09890A8C0BE9A2E050147508FC7579
:1041C30009FFA2E15005D2E402426AD2E302426A45
:1041D300124E6F7003A3E06970057900024337AC98
:1041E3000A7902AA08AB09120DD1E960EDE50AF5D7
:1041F3000C780C12087679027CFE7DFFAA08AB09C5
:10420300124BEA1208BAE96003024335E50AC2E534
:10421300F50A9003B5E07051E50AA2E6404B74033A
:10422300120B06AC82AD83AA08AB09120B6DE970C1
:104233003212450B8A0C8B0DA80CA90DE8FEE9FF81
:10424300E8496025EE24020A0AEF122B25601AEED4
:104253002402FCEF3400FD7403120B06AA82AB8325
:10426300121F7DE50AD2E5F50A900348E0F50C90AC
:104273000368E0F50EA3E0F50F780E1208727D01D6
:104283007C00900348E0F9AA0EAB0F120D8974026B
:104293001208BAE9F8900348E004F0E86003024327
:1042A30035E50AA2E55004740E80027406C0E0747A
:1042B30001120B06D0E01259648A0E8B0FAE0EAFBB
:1042C3000FEE4F606912435512436C8882898374E1
:1042D30001F07478550AA3126956E50C126956A3C6
:1042E300E508F0E509124344E4F0E50AA2E5500FBE
:1042F3007403120B06AC82AD83E8240612433B8E93
:10430300828F83A3A374FDF0A374FFF0E50B601504
:10431300902579E493F8E50BC3985009EE24131222
:104323005937E50BF0EEFAEFFB120C0F800679100C
:10433300800279C7740B8049FAE93400FB121F7DB0
:104343002288828983A3A3A3A3124350221256CBAC
:10435300A322EE24171259487401F0120F45EE24DC
:104363001A125948EAF0A3EB22F012694A340012F8
:10437300437622F58312437C22E0F8A3E0F922740A
:104383000D1208BA7F0802059174F61203767A00BB
:104393007B10125E5260089003D47401F080299060
:1043A3000651E06401900EF67006E0FC790180048A
:1043B300E0FC79037A007B00120CF3902561124331
:1043C300CE7A007B101243DC0239A51243D222E4D9
:1043D30093FC740193FD227B009003C2E0F9121752
:1043E300EB2274EC1203768A088B098C0C8D0D89F1
:1043F3000E7414120B06124DC97416120B06E0F557
:1044030010A3E0F511120FBDE960077AFF7BFF02ED
:104413004508900EF5E0640260030244FB7900AAAC
:1044230008AB09120DD7A90E120DCB8A128B13AE4E
:1044330012AF13EE4F70030244E38E828F83A3A364
:10444300A3A3A3E064018E828F83A3A37069125098
:10445300888E828F83A3A3A3A3A3A3E054186043EE
:10446300902577E4938E828F83A3A3A3A3F0EA65B9
:104473000C7003EB650D6014EA650A7003EB650BC2
:10448300600AEA65107003EB6511701F781012085B
:1044930072AC0AAD0BAA0CAB0D1210B97402120860
:1044A300BA8008900367125E3CA3F074FE6A70033F
:1044B30074FF6B601D804EA3A3A3E0640360298E89
:1044C300828F83A3A3A3A3A3E0640470057AFE02EF
:1044D30044108E828F83A3A3A3A3A3E06402700876
:1044E3009003B4E06402701012450B8B0BEA450B8A
:1044F3006006AA08AB09800DAA08AB09900349120C
:104503003E7D12216E026432900375124BF012103D
:104513007D2274F7120376EAFEEBFF120BC1E970FA
:104523000AEEFAEFFB120BCDE96006EEFAEFFB8021
:10453300047AFE7BFF0238F974F01203768A0A8B41
:104543000B8C0E8D0F8909750800120FBDE97900D8
:1045530060030246B2AA0AAB0B120DD7A909120DCA
:10456300CB8A0C8B0DAE0CAF0DEE4F60198E828F84
:1045730083A3A3A3A3A3E0640270559003B4E064F0
:104583000270030246B0AA0AAB0B90034F123E7DA2
:1045930012216E120BD38A0C8B0DA80CA90DE849BE
:1045A30070030246B088828983A3A3A3A3A3E0A2D6
:1045B300E040030246B0750C01A2E150687901ACFA
:1045C3000AAD0BAA0EAB0F120D23E970640246B0BD
:1045D3008E828F83A3A3A3A3A3E064037005750C4A
:1045E3000280528E828F83A3A3A3A3A3E0640160FE
:1045F300030246B09003751246C08E828F83124A1F
:10460300158A0C8B0DA80CA90DE84960D190257073
:10461300E493FA88828983E0C39A50C2A3E06003DB
:104623000246B080B988828983A3A3A3A3A3D2E15E
:10463300F0EE4F603A8E828F83A3A3A3A3A3A3E0DC
:104643005418602B7508018E828F83A3A31206DA98
:10465300750CFE750DFF780C1208727900AC0AAD6B
:104663000BAA0EAB0F120DE974041208BA803E9028
:104673000368E0650E7004A3E0650F70149025785D
:10468300E493FCA909AA0AAB0B120CF37508018089
:104693001CA90CAC0AAD0BAA0EAB0F120D23E970CB
:1046A3000C750801A909AA0AAB0B120D7DA9080212
:1046B3004387E50C2415F582E50D12594B1253A8D7
:1046C3002274EA12037674F01209348A0C8B0D8C6F
:1046D300088D097426120B06E0F514A3E0F5157591
:1046E30012069003F5124C0E60239003751246C018
:1046F300AA08AB091210A78A108B11EA4511600DA5
:104703008A828B83A3E0700579000249FDE50C24BE
:104713001DF50EE50D3400F50F850E82124BFAF5EB
:104723001388828983A3A3A3E0FA88828983A3A33E
:10473300A3A3E0F9EA2400FEE439FFAA08AB0912B7
:104743000D83850E82850F83124A38E029F50BE528
:104753000AA2E5500375120E7487550A7017741870
:10476300550A6418600FE50C2417F582E50D1260F5
:104773000A651260077901121F65808C530A78C39A
:10478300EE94F8EF94FF501D7900EEFAEFFB124A16
:1047930007601288828983A3A3A3A3A3A3E0541869
:1047A300600302470B78081208727D00124A2B122D
:1047B30008BAE9F8740368700302470BE860030260
:1047C30048767418550A700302492BE50AD2E0F5BE
:1047D3000AA2E45004D2E1F50AA90A125081124A4E
:1047E30007605388828983A3A3A3A3A3A3E05418D8
:1047F300604488828983A3A3A3A3A3E064017036E2
:10480300E510451160309003751246C08882898394
:10481300124A158A0E8B0FA80EA90FE84960178854
:10482300828983A3E0600F851082851183A3125BC5
:1048330059500302470BE50AF50E780E120876125B
:104843004A1E1208BAE9702B7C007D00851482850C
:10485300158374FFF0A3F0850C82850D83A3A3A3B6
:10486300A3A3A3A3A3E060031246B5A90B1250812F
:1048730012190B851482851583E0F47003A3E0F409
:1048830060399003B4E06402700302470B124DBA1F
:10489300E0FAA3E0123E7912216EEA65087003EB99
:1048A3006509600302470BEEFAEF123E7912216E9F
:1048B300851482851583EAF0A3EBF0780812087259
:1048C3007D01124A2B1208BAA90AEEFAEFFB120D68
:1048D300D78A088B09A808A909900368E0687003C0
:1048E300A3E06960030249EEEEFAEFFB120BD38AF1
:1048F300088B09A808A909E849606E88828983A3FF
:10490300A3A3A3E06401600D88828983A3A3A3A367
:10491300E064027054851882851983AC82AD83EEFE
:10492300FAEFFB120B6D8055900361E0600FE50A0F
:10493300F50E780E120876124A1E1208BAE50AF529
:104943000E780E12087679027CFE7DFFEEFAEFFBFD
:10495300124BEA1208BAE96003024876851482858D
:10496300158374FFF0A30248BD120F45EAFCEBFD6B
:10497300851882851983AA82AB83121F7D850C82D9
:10498300850D83A3A3A3A3A3A3A3A3E06401700F33
:104993001246B57408120B06AA82AB83121F7D124E
:1049A3004BC41257D04430F50878081208767401C6
:1049B300120B068582088583097808120872740B26
:1049C300120B068582088583097808120872E5139D
:1049D300F50878081208767900EEFCEFFD12508195
:1049E300120D1D74061208BA02470B124BC412595A
:1049F3003A124A38E50BF0120F5D74101208BA7FB1
:104A03000E020591120DCB8A0E8B0FA80EA90FE88B
:104A13004922A3A31255271210A7227901AC08AD8E
:104A23000912551C124BEA22AC0BA91312551C1286
:104A33000D897402221257D8A3A3A3A32274F012E0
:104A4300037674F01209348A0C8B0DECFAEDFB75C6
:104A53000F089003F5124C0E6014125B528A828B7E
:104A630083E58245836007A3E07003024BBF124BCB
:104A7300C43400124BFAF50B88828983124BCDE0C4
:104A8300FBEC2400FEE43BFF88828983A3A3124B43
:104A9300CDA3A3E0FBECF508E43BF5098882898309
:104AA300A3A3A3A3A3A3A3E0F50EE50AA2E45003E3
:104AB300750F10A2E550067408250FF50F748F5576
:104AC3000A700FE50C2417F582E50D12600A650FD5
:104AD30060087901121F65024BBF530A707800E525
:104AE3000AA2E45022124BC412600A2408FCA3E079
:104AF3003400FD7408120B06AA82AB83121F7D7863
:104B030008E50AC2E4F50AE50AA2E55028124BC4F7
:104B130012600A28F8A3E03400F9E82408FCE93419
:104B230000FD851882851983AA82AB83121F7DE558
:104B33000AC2E5F50AAC0EA90BEEFAEFFB120D8FD4
:104B4300E9F87403686075900368E06E7003A3E08E
:104B53006F605EE87054E50AF50F780F120876125D
:104B63004BDB1208BAE97054780A12087674011202
:104B73000B0685820C85830D780C120872740B1258
:104B83000B0685820C85830D780C120872E50BF5F4
:104B93000A780A120876A90EAC08AD09EEFAEFFB03
:104BA300120D1D74061208BA8012740468700D8009
:104BB300B7780A120876124BDB1208BA7410024354
:104BC30084E50C241DF582E50D22A3A3A3E0FC8854
:104BD300828983A3A3A3A3227901124DC112594B46
:104BE300124BF0124BEA22120D47740122E0FCA390
:104BF300E0FDAA08AB0922F583124000A3E0F50A01
:104C030088828983A3A3E0229003391255832274F7
:104C1300E812037674F5120934EAFEEBFF8C088D73
:104C23000989147423120B06E0F50F7424120B0682
:104C3300E0F512A3E0F5137426120B06E0F516A3B4
:104C4300E0F5177428120B06E0F50EA90F120D9567
:104C53008A108B117401120B067408F0E50EA2E49E
:104C630050037410F0E50EA2E55004E02408F0852B
:104C73001882851983AA82AB83120FA58A0C8B0D28
:104C8300EA450D7003024DA1EA2417F582EB124D9C
:104C9300B3120F45E50C241AF582E50D12593A12A9
:104CA30039097403120B06AC82AD83AA10AB11123F
:104CB3000B6DE9601D124DAB7403120B06A882A99C
:104CC30083E50C2418F582E50D12593AE8F0A3E9BF
:104CD3008024E50EA2E4501FE5106E7003E5116F0A
:104CE3007015124DABE50C2418F582E50D12593AF7
:104CF300E512F0A3E513F0124DBA124DC9850A82ED
:104D0300F5837402F0A3E50E124DD1E50FF0EE85A5
:104D13000A82850B83A3A3A3F0EF850A82850B8305
:104D2300A3A3A3A3124DD1A3A3A3E508F0E509858B
:104D33000A82850B83A3A3A3A3A3A3F0AA10AB1199
:104D4300120D83E92514850A82850B83A3A3A3A3EC
:104D5300A3A3A3F0750800E50EA2E45011AC12ADB5
:104D630013E50A2408FAE50B12433D750808E50E1E
:104D7300A2E55014AC16AD17E50A2508F8E50B3487
:104D830000F9E8240812433B850C82850D83A3A315
:104D9300E510F0A3E511F0AA0CAB0D120C0F740B88
:104DA3001208BA7F10020591E50C2416F582E50D71
:104DB30012594B7401F022124DC112594B22E50CCA
:104DC300126951E50D22E0F50AA3E0F50B22F08507
:104DD3000A82850B83A3A32274F21203768A088BBB
:104DE30009ECFEEDFF890A7900124E6F7003A3E010
:104DF30069700479018073750B01900368E065089D
:104E03007004A3E06509601F750B00780B12087628
:104E1300A90AEEFCEFFDAA08AB09120FF9740112FF
:104E230008BAE9F50B80417900EEFAEFFB120DCBDE
:104E3300EA4B602B8A828B83A3A3A3A3A3A3E0548F
:104E430018601C7508FE7509FF78081208728A82BB
:104E53008B83A3A31206DA1267661208BA80097954
:104E630001EEFAEFFB120CA5A90B8014120DD78AE1
:104E73000C8B0DA80CA90D900368E068221208BAE8
:104E83007F0602059174F412037675082875090CE0
:104E93007A1012646E8B0BEA450B700312419790E4
:104EA3000353E014F0700C902576E493900353F0D1
:104EB300120DE37E007F00806C850882850983A341
:104EC300A3A3A3E06059F46056E5082404F582E542
:104ED30009125E367049850882850983A3A3A3A3BB
:104EE300A3E0640370197902850882850983124659
:104EF300C0850882850983A3A3125088120D2385D8
:104F03000882850983A3A3A3A3A3E064016010859A
:104F1300088285098374FEF0A304124FE2E4F012C1
:104F2300333C12318E9025651265CA408C7E007F1A
:104F3300008039120EEB8E088F0974037808120A69
:104F43003574A02508FC740D3509FD7A2F7B0D12ED
:104F53000ED9EA4B70DD8E088F0974037808120AA4
:104F630035124FB0126811E4F012333C90256CE413
:104F730093F8C3EE98EF9400501B8E088F097403C7
:104F83007808120A35124FB8E82407F582E9125E51
:104F93003670D680A17E007F00800A124FC3600264
:104FA30014F012333C1265C740F1023B46124FB86E
:104FB300888289832274A02508F8740D3509F922A3
:104FC300EEF8EFF9E875F006A4F8AAF075F006E933
:104FD300A42AF9744028F582740D39F583E022126E
:104FE3004FE9A3A3A322F0850882850983A3A32203
:104FF30074F712037674E1120934ECFEEDFF7508C1
:1050030000EE4F60728A828B83E0241C125E67126B
:105013004C0E60638A828B831250888518828519AF
:1050230083AC82AD83EA241BF582EB125D38EA245C
:105033001CF582EB125084120F2D740B120B061207
:10504300508C7003A3E069702E7402120B06E064A7
:10505300017024741D120B06123E7DE0640170176B
:10506300741D120B06123E7FA3A3E0F88E828F837A
:10507300E0687003750801A908741F0238F6124D21
:10508300C13400F58312552722122AE3E068227403
:10509300F4120376E97024790090034D123E7D12D9
:1050A300216E8A0A8B0BAE0AAF0B74FE6E7003740B
:1050B300FF6F701A902573E4936013790190034D89
:1050C300123E7D12216E8A0A8B0BAE0AAF0B120FB2
:1050D300690234A474F612037674F31209341216B7
:1050E300838A088B09AE08AF09900368E06E7003EA
:1050F300A3E06F60E9120F51EA6E7002EB6F60DE9E
:10510300EEFAEFFB120FBDE970D4EE4F60D08518B5
:1051130082851983E4F004120B06EEF0A3EF12511B
:105123003AE970BA74FE6E700374FF6F60B0EEFA02
:10513300EFFB740D0239A2123A27120B8522C082AB
:10514300C083120F6902376D7F0A02059174F21250
:105153000376EAFEEBFF8C0A8D0B8908740E120BA3
:1051630006E0F50974FC6E700374FF6F7005790037
:10517300024E837900120DD78A0C8B0DAE0CAF0D46
:10518300900368E06E7003A3E06F7006E509A2E682
:1051930050DCA909126654706179007AFE7BFF1214
:1051A3006654705674185509700302528778007953
:1051B300008003122CDD902565122CD4400302528B
:1051C30087E8FAE9FBEA75F007A4FAACF075F00793
:1051D300EBA42CFB742E2AF582740C3BF583E0546C
:1051E3001870D0E875F007A4F8AAF075F007E9A4E1
:1051F3002AF9742828F8740C39F988828983A3A3BF
:10520300A3A3A3A3E05418600974185509700302FB
:10521300517188828983EEF0A3EFF074FE650A7002
:105223000474FF650B60031253AE88828983A3A3C2
:10523300A3A3A3A3E509F0A2E0500D88828983A369
:10524300A3A3A3A3A3D2E2F0740165088882898390
:10525300A3A3A3A3A3703874011253D2E05418601C
:1052630028902577E49388828983A3A3A3A3125369
:105273009C1210A78B0DEA450D6003025171780053
:10528300790080397902025173900367E080D7E097
:105293006401700302517188828983A3A3A3A3A32A
:1052A300A3E054186007902577E493800490036685
:1052B300E0124344E508F0025171122CDD90256D94
:1052C300E493FAC3E89AE9940040030251717A0027
:1052D3007B00804BEAFCEBFDEC75F007A4FCAEF021
:1052E30075F007EDA42EFD742A2CF582740C3DF5A0
:1052F30083125953E8FCE9FDEC75F017A4FC85F023
:105303000975F017EDA42509FD74B82CF582740A0C
:105313003DF583E06E7003A3E06F609E123211903F
:10532300256512319E40AD1243CEEC6A7002ED6BDF
:105333007088E875F017A4F8AAF075F017E9A42AA5
:10534300F974B828FE740A39FF7C177D007900EEE2
:10535300FAEFFB12166B8E828F831253B490037590
:1053630012538EA3A3A3A3A3A3E8F0A3E912539418
:105373007401F0EE240E12593774011253BC120259
:1053830025EE240D125937E80252B912378BA3A325
:1053930022F0EE240F12594822F01253A5AA0AABA9
:1053A3000B22900375E0FCA3E0FD2288828983A38E
:1053B300A3E50AF0A3E50BF022F01253C1229025D6
:1053C30070E4932401F8E43400F97A027B0022129A
:1053D3004350A32274ED1203768A088B09890E12B7
:1053E3005505400579050254D3121959AA08AB098A
:1053F3001255D79025631254D6650A7003E9650BDD
:1054030070077AFE7BFF1255D7902563E41254DEB2
:10541300E50A98E50B9940030254D11254E2601255
:10542300E50A75F006A4F875F006E50B12552D1282
:105433001731E50E6018E50A75F006A4F8AAF075B1
:10544300F006E50B125559701A79010254D3E50A97
:1054530075F006A4F8AAF075F006E50B12553AE4C8
:10546300F0A3F0E50A75F006A4F8AAF075F006E5D6
:105473000B1254FAA31257E688828983A3AA82AB3C
:10548300831255488A828B83E0603F1254E2603A6C
:105493008E108F11751200781012086EE50EC3334B
:1054A300FCE433FDE50A75F006A4F50AA8F075F0EF
:1054B30006E50BA428F50B7444250AF582740D3513
:1054C3000B1250861231AF1208BA790080027907A5
:1054D30002666A122E36E82290255B125FF122E5FE
:1054E3000A75F006A4F8AAF075F006E50B12553517
:1054F300F8A3E0F9E84922A42A12568E8882898308
:10550300A322ECFEEDFF90256EE493F8E9C3982205
:10551300F58312552712173122E50C126951E50D57
:105523003400F583E0FAA3E0FB22125535FAA3E039
:10553300FB2212553AE022A42AF9744428F5827416
:105543000D39F58322E50EF0900EF712555222E045
:1055530088828983F0221256B2F50CE93400F50DE6
:10556300E50EC333FAE433FB12172B850C82850D4A
:1055730083EAF0A3EBF0850C82850D831255832219
:1055830012437CE8492274F4120376ECFEEDFF74B7
:105593000C120B06123990880889091255D7AC0AE8
:1055A300AD0BECF8EDF99025631255DF5021E8754A
:1055B300F006A4F8AAF075F006E91254FAE08E8218
:1055C3008F831255F21255E812399C7900800279C3
:1055D30004023B46120D598A0A8B0B221231A7C3D0
:1055E300EC9AED9B22124378850882850983221267
:1055F30056C72274F61203767E007F008028EEF8E9
:10560300EFF9E875F006A4F8ACF075F006E9A42C00
:10561300F9744228F582740D1262756A7003A3E06F
:105623006B605712333C1265C740D31265C27002D8
:10563300E96F704674FE6A700374FF6B703C7E0002
:105643007F00800312333C1265C7502E124FC37084
:10565300F3EEF8EFF9E875F006A4F8125684125643
:10566300B960171256A0F8E912569888821255139A
:10567300850882850983E4F0A3F0EEFAEFFB023993
:10568300A575F006E912568C22A42AF9744028F86D
:10569300740D39F9223400F98808890922EEF8EFEC
:1056A300F9E875F006A4F875F006E91256B222126D
:1056B300568CE8240422A3A374FE1256C412558305
:1056C30022F0A3041256CB22F088828983A3A3A3DA
:1056D300A32274F6120376EA241DF582EB1257D047
:1056E300F9604BEA241DF582EB12600A2402FCA345
:1056F300E03400FD12550940030257C378008029A6
:105703008C828D83E0F508A3E0FFE5082400E43FE5
:10571300F509E833FEE433FF74882EF582740D3FF8
:10572300F5831257E61257C608E8C39940D28A8216
:105733008B83A3A3A3A3A3A3A3A3A31246C09003F2
:1057430068E06C7003A3E06D700F7C887D0D122AF6
:105753004C125084120D4D8067EA2411F582EB122E
:10576300600A605CFC74FF2CF0750801780812086D
:105773007675088875090D7808120872E9F50878B6
:1057830008120876EA2412F582EB12600AF508780B
:1057930008120876EA2415F582EB12593A1206DA52
:1057A300ECF9122A4C1246BD8A828B83A3A3A3A3CE
:1057B300A3A3A3A3A3125088120D6574071208BAFA
:1057C3000239A5EC24020C0CED3400FD2212594BD6
:1057D3001257D8E022E0F8A3E0F5838882A3228859
:1057E300828983E508F0A3E509F02274EA120376BF
:1057F30074FD1209348A148B158C0E8D0F890D7468
:1058030019120B06125953741B120B06E0F511748F
:105813001C120B06E0F50C741D120B06124DC97415
:105823001F120B06E0F5106008E50CC33324048057
:10583300027402C0E07401120B06D0E01259648AAC
:10584300088B09EA4509700302592F8A828B83A3C7
:10585300A3E514F0A3E51512645DE50EF0A3E50FCF
:10586300F0EA2413F582EB12593AE50DF0EA241419
:10587300F582EB12593AE511F0EA2417F582EB129F
:10588300600A64017040120F4B8A0E8B0FA80EA999
:105893000F850882850983A3A3A3A3E0687003A3EC
:1058A300E0696022EE4F6011E508241AF582E509EC
:1058B30012593AEEF0A3EF800CE5082417F582E5C0
:1058C3000912593AE4F012593E1259538E828F83CA
:1058D3007405F0A3E5107004E50C80487401250CF1
:1058E30012595D7A008028850A82850B83E012595C
:1058F30059850A82850B83A3E08E828F83F0E50AA4
:105903002402F50AE50B3400F50BA30EAF830AEA74
:10591300C3950C40D2120F4BEA125959120F4BEB9D
:105923008E828F83F0AA08AB09120C0F740302490D
:10593300FFEE240CF582EF12594B22122A5D125905
:105943004B22EE240BF582EF3400F58322900334CF
:10595300E0FEA3E0FF228E828F83F0A3AE82AF83AB
:1059630022123A27120FA522C082C083E9C333FC57
:10597300E433FDEA2CFAEB3DFBEA24FEF582EB343B
:10598300FF12508602376D74F212037689098A0A70
:10599300125505400479008040750800800205080F
:1059A300E508C39509502AE508C333F8E433F9EE53
:1059B30028F582EF39F583C082C083120F4B8A0C1E
:1059C3008B0DD083D082E0650C7004A3E0650D706D
:1059D300CDE50A650870BE7901024E8374F01203A7
:1059E3007674F31209348A088B098C0A8D0B890C9F
:1059F300750D00120FBDE979006003025AE1AA0890
:105A0300AB09120DD7A90C120DCB8A0E8B0FAE0E5C
:105A1300AF0FEE4F7003025ADF8E828F83A3A3A3CF
:105A2300A3A3A3E0A2E24003025ADF120F4BEA65ED
:105A33000A7003EB650B7011780D120876E4F50E0E
:105A4300F50F780E1208728044AA0AAB0B120BC72B
:105A5300E9640170688518828519837404F0740100
:105A6300120B061253B4851882851983AA82AB835D
:105A7300120B85E964017045750D01780D120876E6
:105A8300E4F50EF50F780E120872750D00780D12FD
:105A93000876780D1208767408120B0685820E8537
:105AA300830F780E120872902579E493F9AC0AAD4E
:105AB3000BAA08AB09120D6574071208BA8E828F00
:105AC30083A3A3A3A3A3A3E0A2E1400D8E828F83AC
:105AD300A3A3A3A3A3A3C2E2F0750D01A90D0243DF
:105AE3008274F6120376E9FE7900120DD7EEF912ED
:105AF3000DCB8A088B09A808A909E8496006126931
:105B030098F9800279040239A574F61203767E07A8
:105B130090035CE07034125B528A088B09A808A9D1
:105B230009E8496025900361E0640188828983A3C1
