:020000040000FA
:06000000020A300201B902
:03002B0002086B5D
:030033000206338F
:030053000200EABE
:03006B0002060D7D
:1000830002014E0101FF01010503010F10FEFF0EE6
:10009300130E130E130E13C411BE110E13BF1F0044
:1000A3000000008320000000000C0000000C000191
:1000B300FFFF0101005405000000CC05E8036400C4
:1000C3006400B801020200080000050207051E02D1
:1000D300051E020A0A03B80B02803E0102FFFF1449
:1000E30096511800020206C0E074F21203D2A2AFC6
:1000F300E433FED2AFE5A7FFE5A1F5085F54106036
:1001030006121A7675A1EFE5085F54086008121A03
:100113007C75A1F7802BEFA2E0C0D0E508A2E092A6
:10012300F012096D158182F05017906198E0F890F4
:10013300069DE0C398A2D265D0335002E8F075A1C2
:10014300FEEEA2E092AF7F01020431C0E074F2122E
:1001530003D2A2AFE433FED2AF9061A4E0F8759B63
:1001630000E59158540860087591F7121AC4802A63
:10017300E59158541060087591EF121ACA801BE874
:10018300A2E0C0D0E591A2E092F012096D15818240
:10019300F05007E0C2E0F0121C0E9061A3E0F8E516
:1001A300E9585404600E121BE475E9FB906193E077
:1001B300A2E640F2808BC0E074F21203D2A2AFE455
:1001C30033FED2AF9061A5E0F8E5BF585404600652
:1001D30075BFFB121C26020144C3E498F8E499F9A5
:1001E30012021D8026C3E49AFAE49BFBE920E7E9A7
:1001F30012021DE498F8E499F922C3E498F8E4990B
:10020300F912021DE498F8E499F9C3E49AFAE49B1D
:10021300FB22EB20E7CFE920E7E0B90010BB0008A1
:10022300E88AF084F8AAF022E4FBC8FA22EB7022F1
:100233007B10C833C8C933C9335007C39AC3DBF231
:1002430080069A50012ADBEAC833F4C8C933F4C9DB
:10025300FA2275F008E4C833C8C933C933C99AC947
:100263009B5004C92AC93BD5F0ECFBC833F4C8E45E
:10027300C9FA22080808EAC0E0EBC0E086F0E7A468
:10028300FA180986F0E7A42AFA180986F0E7A42ADF
:10029300FA180986F0E7A42AFA1986F0E7A4FBE521
:1002A300F02AFA190886F0E7A42BFBE5F03AFA19CD
:1002B3000886F0E7A42BFBE5F03AFA18180986F054
:1002C300E7A4C5F02BFBE43AFA1908E7C5F0C6A486
:1002D30026F6E5F03BFBE43AFA1886F0E7A4F6E5E8
:1002E300F00826F6E43B08F6E43A08F6D0E0FBD043
:1002F300E0FA22E4CFC0E0E4CEC0E0E4CDC0E0E425
:10030300CCC0E075F020C3E633F608E633F608E622
:1003130033F608E633F6181818EC33FCED33FDEE2C
:1003230033FEEF33FFC3EC9709ED9709EE9709EF1F
:1003330097191919400FFFEC97FC09ED97FD09EE8A
:1003430097FE191906D5F0BEECF709EDF709EEF79C
:1003530009EFF7191919D0E0FCD0E0FDD0E0FED089
:10036300E0FF222518C582C0E0E51934FFC583C02C
:10037300E0E518C3958224F810AF088583198582B8
:10038300188008858319858218D2AFCEF0A3E520A3
:10039300F0A37808E608F0A3DEFAEFF0A3E58124E2
:1003A300FAF8E608F0A3E608F0A3E608F0A30808C5
:1003B300E608F0A3E608F0A315811581D0E0FED08E
:1003C300E0F8158115811581E8C0E0EEC0E022C098
:1003D300D02518C582C0E0E51934FFC583C0E0E528
:1003E30018C3958224F310AF08858319858218807A
:1003F30008858319858218D2AFC8F0A3E9F0A3EA70
:10040300F0A3EBF0A37908E709F0A3D8FAECF0A383
:10041300EDF0A3EEF0A3EFF0A3D0E0F0A3D0E0F073
:10042300A3D0E0F0A3E520F0A3E5F0F0A322851923
:1004330083851882E0C0E0A3E0F9A3E0FAA3E0FB20
:10044300A37808E0F608A3DFFAE0FCA3E0FDA3E04D
:10045300FEA3E0FFA3E0C0E0A3E0C0E0A3E0F5D08B
:10046300A3E0F520A3E0A3F5F010AF088583198579
:1004730082188008858319858218D2AFD082D083F1
:10048300D0E0F8D0E032120A92B900030204CBE4C0
:100493009003017864790A8002F0A3D8FCD9FA901A
:1004A3000C64AA82AB83900086786579018015E499
:1004B30093A3AC82AD838A828B83F0A3AA82AB839E
:1004C3008C828D83D8E9D9E77582C27583DD740385
:1004D3001207E37582C675831E74001207E30E00CC
:1004E3000975F0108E1A8F1B85821F85831E851850
:1004F30082851983E0CEA3E0CF851F82851E83EB1F
:10050300C9EAC8EDCBECCAC3E833C8E933C9EA3357
:10051300CAEB33CBC3EA9EF51DEB9FF51CB3500426
:10052300AB1CAA1DEC33CCED33CDD5F0DAAE1AAF4C
:100533001B22D083D082ECC0E0EDC0E0E493A3FCA7
:10054300E493A3FDED4C600D120651EC24FFFCED8A
:1005530034FFFD80EFE493A3FCE493A3FDED4C6033
:100563000D1206EEEC24FFFCED34FFFD80EFD0E02E
:10057300FDD0E0FCE493A3C0E0E493C0E02285193E
:1005830083851882E0A3FEE0A3F5207808E0A3F6B4
:1005930008DFFAE0A3FFE0A3C0E0E0A3C0E0E0A32C
:1005A300C0E0E0A3C0E0E0A3C0E010AF088582187C
:1005B3008583198008858218858319D2AFD083D0AB
:1005C300820207E9D083D082E9C0E0E493A3C38623
:1005D300F0C5F095F0F908E493A386F0C5F095F023
:1005E300700BE493A3C3994005E9048002A3E47567
:1005F300F002A42582F582E5F03583F583D0E0F996
:10060300E493A3C0E0E493C0E022C0E074F21203D9
:10061300D2A2AFE433FED2AFE589A2E150031219AF
:1006230092758900C2C5EEA2E092AF7F0102043148
:10063300C0E074F21203D2A2AFE433FED2AFE58B73
:10064300A2E05003121992758B00C2E880D8C0E073
:10065300C3E49396087401939618400FE49366706D
:100663000808740193661870007019A3A3C3E49378
:1006730096087401939618A3A3400DD0E0D0E0D060
:10068300E0020571A3A3A3A3A3A3D0E02274048073
:100693000474028000CCC0E0EDC0E0E518C39CCC3C
:1006A300AD1950011D10AF068C188D1980068C18DA
:1006B3008D19D2AF120765D0E0FDD0E0FC227402A1
:1006C3008000CCC0E0EDC0E0E518C39CCCAD195070
:1006D300011D10AF068C188D1980068C188D19D248
:1006E300AF120743D0E0FDD0E0FC22C0E0C0F088A9
:1006F300F0E4936670080874019366187000A8F01C
:10070300A3A3700BD0F0D0E0D0E0D0E0020571A33A
:10071300A3D0F0D0E022D083D082CCC0E0E493A376
:1007230060061207A51470FAE493A360061208CBBF
:100733001470FAD0E0FCE493A3C0E0E493C0E02299
:10074300CAC0E0E493A3C582CCC582C583CDC5836B
:10075300F0A3C582CCC582C583CDC583DAE5D0E0DD
:10076300CA22CAC0E0E0A3C582CCC582C583CDC579
:1007730083F0A3C582CCC582C583CDC583DAE6D019
:10078300E0CA22C008C3E096F50808A3E096420831
:1007930008A3E096420808A3E09645087001D3D069
:1007A3000822C0E0E493A3D39C5010E493A3C39C1A
:1007B300400AD0E0D0E0D0E0020736A3A3A3D0E004
:1007C300227009080808226016181818C6C333C611
:1007D30008C633C608C633C608C633C6D5E0EA2200
:1007E300C09FF59FE473D09F22D083D082C09FE443
:1007F30093C0E0740193C0E0740293F59F227404E4
:10080300800A74038006740280027401C0E0F40459
:1008130012081CD0E0120A6D222518F58210AF08C9
:10082300F518400215198008F51840021519D2AFC2
:1008330085198322C0D0251810AF08F5185002057A
:10084300198008F51850020519D2AFD0D022BB0188
:1008530002E722C082C08389828A83BB0003E080CF
:1008630002E493D083D08222C0E0C0D0E8C0E0E5A8
:10087300A8D2AFC2C7A2E792AFD0E0F8D0D0D0E001
:10088300326016080808C6C313C618C613C618C6AE
:1008930013C618C613C6D5E0EA22C3E0C696F60807
:1008A300A3E0C696F608A3E0C696F608A3E0C696AC
:1008B300F622251810AF08F518400215198008F51F
:1008C3001840021519D2AF22C0E0E493A36C70095B
:1008D300D0E0D0E0D0E0020736A3A3D0E022E76661
:1008E30070100809E766700A0809E76670040809CA
:1008F300E76622C3E09608A3E09608A3E09608A360
:10090300E096A2D265D03322E066701008A3E066B9
:10091300700A08A3E066700408A3E06622C3E096A9
:10092300F008A3E096F008A3E096F008A3E096F0A1
:1009330022E026F008A3E036F008A3E036F008A38F
:10094300E036F022E627F60809E637F60809E63727
:10095300F60809E637F622E026F608A3E036F6089D
:10096300A3E036F608A3E036F622C0E0E8C0E0E5EF
:100973008124FCF8E6A2E7D0E0F8D0E0227004225C
:10098300600D18C6C333C608C633C6D5E0F41822B3
:10099300E657F60809E657F60809E657F60809E6A2
:1009A30057F622E056F608A3E056F608A3E056F6FB
:1009B30008A3E056F622E056F008A3E056F008A399
:1009C300E056F008A3E056F022E647F60809E647AA
:1009D300F60809E647F60809E647F622E4C396F661
:1009E30008E496F608E496F608E496F622C3E7963A
:1009F3000809E7960809E7960809E79622C6F4C6A8
:100A030008C6F4C608C6F4C608C6F4C622600D08B4
:100A1300C6A2E713C618C613C6D5E0F322C3E096F1
:100A230008A3E09608A3E09608A3E0962275D000F9
:100A330075814075180175190300020489E0F608F1
:100A4300A3E0F608A3E0F608A3E0F622600C08C6CC
:100A5300C313C618C613C6D5E0F422E6F008A3E60E
:100A6300F008A3E6F008A3E6F022CAC0E0E6F0A38C
:100A730008DAFAD0E0FA22E0FAA3E0FBA3E0FCA351
:100A8300E0FD22EAF0A3EBF0A3ECF0A3EDF022E506
:100A9300C754F84401F5C77901222518F582E435D6
:100AA30019F58322C2AF75D69F020000221207EC0C
:100AB300EDDF021207ECCFE0021207EC24E302128F
:100AC30007EC71E4021207EC14E5021207EC5BE693
:100AD300021207EC79E6021207ECD122001207ECAE
:100AE300E322001207EC3523001207EC96230012D1
:100AF30007EC2024001207ECC424001207EC18258D
:100B0300001207EC3125001207EC5725001207EC01
:100B13009225001207ECD625001207ECFD250012E2
:100B230007EC4E26001207ECFE26001207ECB62750
:100B3300001207EC7E28001207EC3E29001207EC96
:100B43008229001207ECA729001207ECEA290012F8
:100B530007EC372A001207EC8F2B001207EC152C39
:100B6300001207EC332C001207EC5D2C001207EC8B
:100B7300772C001207EC862C001207EC912C001244
:100B830007EC512D001207ECAA2D001207EC6C2E76
:100B9300001207EC742E001207EC382F001207EC3A
:100BA300A42F001207ECCF30001207ECF430001230
:100BB30007EC0531001207EC7B31001207EC0D3214
:100BC300001207EC6532001207EC2533001207EC24
:100BD3004433001207EC5334001207EC653400125F
:100BE30007ECB834001207ECF534001207EC0235B9
:100BF300001207EC8536001207ECDA37001207EC17
:100C03000C38001207EC9F38001207ECD83800129A
:100C130007EC2439001207EC403A001207EC893C38
:100C2300001207EC943C001207EC9F3C001207EC07
:100C3300AA3C001207ECB43C001207ECBF3C0012C4
:100C430007ECD93C001207ECE33C001207ECED3C47
:100C5300001207ECF83C001207EC203D001207ECF1
:100C63007B3D001207EC853D001207ECA93D001205
:100C730007ECCD3D001207EC2B3E001207EC6F3E54
:100C8300001207EC8B3E001207EC023F001207EC48
:100C93003A3F001207EC863F001207ECE33F0012D5
:100CA30007EC9D40001207EC8142001207ECDA4288
:100CB300001207EC0A44001207EC3044001207EC60
:100CC300B945001207EC3549001207EC074B001237
:100CD30007ECD04C001207EC7D4D001207ECE84EF8
:100CE300001207EC874F001207ECCC4F001207EC01
:100CF3003650001207EC4550001207ECCC5200129C
:100D030007EC7E54001207ECEB54001207ECCA55B3
:100D1300001207ECE356001207EC6058001207ECD0
:100D23007F58001207ECD458001207ECD95900126F
:100D330007EC015A001207EC595A001207EC385B12
:100D4300001207EC7C5B001207ECC75B001207EC98
:100D5300325C001207EC735D001207ECD75D0012E2
:100D630007EC255F001207EC8561001207ECB66102
:100D7300001207EC6E63001207ECC363001207EC6A
:100D8300C764001207EC6465001207ECBD6500122E
:100D930007EC7066001207EC1267001207ECB267EB
:100DA300001207EC5768001207ECB881011207EC38
:100DB300F781011207EC3E84011207EC88840112CB
:100DC30007ECA385011207EC1386011207EC488692
:100DD300011207ECBC87011207EC3F8A011207ECF2
:100DE300688B011207ECFE8B011207EC06950112CA
:100DF30007EC9B95011207EC8298011207EC759999
:100E0300011207ECD699011207ECF29A011207ECD2
:100E1300389C011207EC1A9D011207ECFF9E011288
:100E230007EC10A1011207EC7AA1011207EC4CA206
:100E3300011207EC03A3011207EC0DA3011207EC47
:100E43003BA3011207ECF8A3011207ECCFA4011294
:100E530007EC96A5011207EC48A6011207EC71A650
:100E6300011207EC93A6011207ECE9A8011207ECA3
:100E7300C1A9011207EC05AA011207EC6DAA011220
:100E830007EC25AB011207EC57AB011207EC9BAB48
:100E9300011207ECD1AB011207EC1DAC011207ECF8
:100EA30072AC011207EC77AC011207ECCAAC011269
:100EB30007ECEFAC011207ECFEAD011207EC62AEDA
:100EC300011207ECD2AE011207EC5EAF011207EC80
:100ED3002BB2011207EC0FB3011207EC92B401120B
:100EE30007ECC8B6011207EC76B7011207EC26B877
:100EF300011207EC67BA011207EC0ABB011207ECF7
:100F030051BB011207ECFDBC011207EC11BD01122C
:100F130007EC1BBD011207EC43BD011207EC4FBDEB
:100F2300011207EC6EBD011207EC55BF011207EC6D
:100F33008CBF011207EC96BF011207ECCCBF011264
:100F430007EC1BC1011207EC5FC1011207EC07C2DA
:100F5300011207ECEAC2011207EC95C3011207EC78
:100F6300E1C4011207ECDFC5011207EC85C60112CB
:100F730007EC15C7011207EC2CC7011207EC63C776
:100F8300011207EC6DC7011207EC78C7011207ECD9
:100F930096C7011207ECDAC7011207EC37C8011232
:100FA30007EC5CC8011207EC76C8011207EC02C912
:100FB300011207EC1FCA011207EC8CCA011207ECDD
:100FC30073CB011207EC9ACB011207EC0ECC011282
:100FD30007EC89CC011207EC8DCD011207EC83CE0F
:100FE300011207EC32CF011207EC45D0011207ECD6
:100FF300E1D0011207EC6ED1011207EC4CD20112C1
:1010030007EC84D2011207ECDCD2011207ECA5D362
:10101300011207ECC6D3011207EC4DD4011207EC01
:1010230071D4011207EC93D4011207ECDCD4011242
:1010330007ECF2D6011207ECD9D7011207EC8AD8D4
:10104300011207ECC0DA011207EC10DB011207EC06
:1010530050DB011207EC92DB011207ECEEDB01120D
:1010630007EC1CDC011207EC40DC011207EC93DCFB
:10107300011207ECC1DC011207ECFADC011207ECE8
:101083004FDD011207ECB5DD011207EC09DF011298
:1010930007EC2CE1011207EC99E1011207ECC2E124
:1010A300011207EC4DE2011207ECB4E2011207EC66
:1010B300FFE2011207EC23E3011207EC47E30112FD
:1010C30007ECA2E3011207ECBDE3011207EC76E49F
:1010D300011207EC59F9031207EC98F9031207EC14
:1010E3007880021207ECBE80021207EC9E81021286
:1010F30007ECA082021207ECA383021207EC2F85F0
:10110300021207EC8D85021207EC4A86021207ECE5
:101113006887021207ECD987021207EC15880212BE
:1011230007EC6388021207EC6D88021207ECB188A2
:10113300021207EC0D89021207ECA889021207ECD0
:10114300258A021207ECF48A021207EC8D8B021235
:1011530007ECAD8B021207ECE38B021207EC148C45
:10116300021207ECD58C021207ECE58C021207EC95
:10117300398D021207EC548D021207EC668D0212B0
:1011830007EC6F8D021207ECC98D021207EC258E56
:10119300021207EC718E021207EC8C8E021207EC1E
:1011A300BD8E021207ECDA8E021207ECE68E0212F3
:1011B30007EC5A90021207EC7390021207ECDA90D4
:1011C300021207ECED90021207ECFB90021207ECFF
:1011D300AF91021207EC9392021207EC9993021259
:1011E30007EC2394021207EC2D94021207EC9A9455
:1011F300021207ECB194021207ECE394021207EC1B
:101203001C95021207EC4695021207ECA7950212F1
:1012130007ECC795021207ECE595021207EC2B9633
:10122300021207EC5197021207EC9E97021207EC89
:10123300CD97021207EC4398021207EC6B98021247
:1012430007ECA498021207ECB298021207EC0A9971
:10125300021207EC5999021207EC9899021207EC53
:10126300C899021207ECF499021207ECFF990212D3
:1012730007EC1D9A021207ECDF9A021207ECE99AB7
:10128300021207EC249B021207EC3A9B021207ECB2
:101293008F9B021207ECA39B021207ECB19C021274
:1012A30007ECC49C021207ECD99C021207EC7B9D4D
:1012B300021207ECFE9D021207ECBC9E021207EC21
:1012C300C79E021207ECF39F021207EC0FA0021253
:1012D30007EC61A0021207ECA0A0021207ECB5A074
:1012E300021207EC17A1021207ECA6A1021207ECE7
:1012F300F1A1021207EC42A4021207ECC0A40212ED
:1013030007EC35A5021207EC57A7021207EC6FA7EB
:10131300021207EC72A7021207EC7EA7021207EC77
:1013230092A7021207EC9AA7021207ECCDA70212AA
:1013330007EC7DA8021207ECF3A8021207EC66A9DA
:10134300021207EC1AAA021207ECCFAA021207EC48
:10135300EEAA021207EC8EAB021207EC9AAB021252
:1013630007ECC5AB021207ECC8AB021207EC32ACB8
:10137300021207EC5AAD021207EC32AE021207EC6E
:10138300BDAE021207ECD6AF021207EC93B0021205
:1013930007ECCCB0021207ECFDB0021207ECBBB1B4
:1013A300021207ECEBB1021207ECC6B2021207EC11
:1013B3005FB3021207ECEAB3021207EC9BB402120A
:1013C30007EC1EB5021207EC50B5021207EC91B5FB
:1013D300021207EC6B9A031207ECD09A031207EC84
:1013E3000D9B031207EC5C9B031207EC729D031227
:1013F30007EC559F031207ECBFA2031207ECFAA2F6
:10140300031207EC1CA3031207EC9CD6021207EC91
:10141300B3A3031207ECD6A3031207EC03A403122E
:1014230007EC5FA4031207ECA68E031207EC248FCC
:10143300031207EC5A8F031207ECC68F031207EC53
:101443003991031207EC5591031207EC9A91031299
:1014530007EC2892031207EC8192031207ECAE9378
:10146300031207ECC094031207ECD1DF021207EC5E
:101473008995031207ECEA95031207EC2B960312E6
:1014830007ECD896031207ECEA97031207EC1598BA
:10149300031207EC6098031207ECA798031207ECFA
:1014A3003999031207ECF499031207ECABA4031266
:1014B30007ECB5A4031207EC01A5031207EC6FA513
:1014C300031207EC90A5031207EC40A6031207ECE6
:1014D300D4A8031207ECDDA8031207EC30A903120A
:1014E30007EC59A9031207ECC0A9031207EC51AA90
:1014F300031207EC93AA031207ECDDAA031207EC0D
:101503003CAB031207EC68AB031207ECF9AB031215
:1015130007EC38AC031207EC77AC031207ECACAC66
:10152300031207ECBEAC031207ECD0AC031207ECBA
:10153300EFAC031207ECF8AC031207ECAEAD0312E9
:1015430007ECEEAD031207ECF3F5031207ECCEE75D
:10155300031207EC04E8031207EC4DE8031207EC4F
:101563009DE9031207ECA368001207ECE26900127D
:1015730007EC1E6A001207ECDD6B001207EC066C29
:10158300001207EC996E001207ECDD6E001207ECF7
:101593006670001207ECFE70001207EC6671001211
:1015A30007EC0772001207EC4972001207EC89720C
:1015B300001207EC1474001207EC8475001207EC98
:1015C300A977001207ECD777001207ECFE77001219
:1015D30007EC0778001207EC8E78001207ECAC7B5F
:1015E300001207ECE0FF011207ECF6FF011207EC13
:1015F3000EF9031207ECA0D7031207ECB3D70312BB
:1016030007EC50D8031207EC8BD8031207ECA6D8CB
:10161300031207ECCBD8031207EC10D9031207EC23
:1016230041D9031207EC72D9031207ECF8DA03125B
:1016330007EC73F0031207ECA9F0031207ECC5F0F3
:10164300031207EC07F1031207EC17F1031207EC7F
:10165300ACF1031207ECB6F1031207EC05DB03123E
:1016630007ECBADB031207EC6FDC031207ECB4DC04
:10167300031207EC07DD031207EC4CDD031207EC42
:1016830022FA031207ECA0E6021207ECF5E60212B7
:1016930007ECE9E7021207EC82E8021207ECCCE858
:1016A300021207EC2EE9021207EC42E9021207ECE0
:1016B30024EB021207EC2BEC021207EC66EC02128D
:1016C30007EC66EE021207EC81EE021207ECD0EE95
:1016D300021207ECE6EE021207ECF3EE021207EC3D
:1016E30027EF021207EC40EF021207ECEAEF0212B7
:1016F30007EC44F0021207EC92F0021207ECB7F188
:10170300021207ECD9F1021207EC61F4021207ECA2
:1017130096F4021207EC1CF5021207EC91F5021283
:1017230007EC96F5021207ECD2F5021207EC31F63C
:10173300021207EC03F7021207EC37F7021207EC69
:1017430041F7021207EC44F7021207ECC1F7021249
:1017530007ECDCF7021207ECEFF7021207EC1BF8B9
:10176300021207EC56F8021207EC59F8021207ECC2
:1017730064F8021207ECA0F8021207EC01F5031259
:1017830007EC12F5031207EC9AF5031207EC53B7B3
:10179300031207ECA2B7031207EC44B9031207ECD8
:1017A30002BB031207EC4ABB031207EC6CBC031227
:1017B30007EC9DBD031207ECBFBD031207EC1BBE74
:1017C300031207EC9DBE031207ECB0E4011207EC11
:1017D300DEE4011207EC34E6011207ECB2E6011273
:1017E30007EC2EE7011207EC97E7011207ECDAE7A3
:1017F300011207EC63E8011207EC09E9011207EC97
:1018030095E9011207ECD7E9011207EC43EE011247
:1018130007ECC3EF011207ECA1F0011207ECD0F0C3
:10182300011207EC02F3011207EC82F5011207EC37
:101833003BF6011207EC58F7011207ECAFFA01125D
:1018430007ECBFFA011207EC2CFC011207ECB8FC01
:10185300011207ECE1FD011207ECC6FE011207ECD1
:1018630048FF011207EC0080031207ECBA80031251
:1018730007EC2C81031207ECC881031207EC3882B2
:10188300031207EC1C85031207ECF385031207EC24
:101893006086031207ECDD87031207ECA7880312A7
:1018A30007EC1789031207ECE08A031207ECF38BAA
:1018B300031207EC8C8C031207EC528D031207EC16
:1018C300F6CC031207EC4ACD031207ECA2CD0312A8
:1018D30007ECEDCD031207EC4FCE031207ECBBCEA2
:1018E300031207EC6ECF031207ECAFCF031207EC22
:1018F300CBCF031207EC27D0031207EC65D00312FA
:1019030007EC00EA031207EC31EA031207ECEBEAF7
:10191300031207EC51EB031207EC44DE031207EC4E
:10192300D0DF031207ECC6F6031207ECD7F6031257
:1019330007EC77F7031207ECDAEB031207ECE8EB9B
:10194300031207ECECFF021207EC31F8031207EC69
:1019530041F8031207EC59F8031207ECBAF8031223
:1019630007ECFFF3031207EC84F4031207ECE8F42B
:10197300031207EC92ED031207ECB4ED031207EC2C
:101983001AEE031207EC3AEE031207EC80EE031291
:1019930007ECDBEE031207EC42C8031207EC57C84F
:1019A300031207EC68C9031207ECA9C9031207EC79
:1019B300C3C9031207EC43CA031207EC5CCB03123F
:1019C30007ECD0CB031207ECEACB031207ECFDCBF9
:1019D300031207EC0BCC031207EC25CC031207EC24
:1019E3003CCC031207EC66CC031207ECB4CC031215
:1019F30007EC96D0031207ECA4D0031207EC1ED118
:101A0300031207EC02D2031207ECBBD3031207EC59
:101A1300E8FA031207ECD1BE031207EC26BF031248
:101A230007EC22C1031207EC54C1031207EC76C181
:101A3300031207EC8FC1031207ECA8C1031207ECD2
:101A4300B2C2031207EC4DC3031207EC12EF0312E9
:101A530007EC36EF031207EC4FEF031207EC82EFAC
:101A6300031207ECB3EF031207ECE1EF031207ECE9
:101A730043F0031207EC52F0031207EC5CF003127D
:101A830007EC69F0031207EC7BE0031207ECA1E01B
:101A9300031207ECDEE0031207ECEDE0031207ECA0
:101AA3000CE1031207EC74E1031207EC7DE103126E
:101AB30007ECDCE1031207EC00E2031207ECBFE2E0
:101AC300031207ECCCE2031207ECDDE2031207EC8E
:101AD300E6F9031207EC03FA031207ECC4C303127B
:101AE30007EC22C5031207EC2FC5031207EC42C50E
:101AF300031207EC61C5031207EC77C5031207EC69
:101B03008BC5031207EC00C6031207EC65C603126C
:101B130007EC15C7031207ECEAC7031207ECFAC771
:101B2300031207EC09C8031207EC98F7031207EC3A
:101B3300BCF7031207ECE4F7031207EC0CF80312EB
:101B430007EC0BE3031207EC32E3031207EC53E356
:101B5300031207ECB8E3031207EC71E5031207EC79
:101B63008AE5031207EC96E5031207ECAAE50312D4
:101B730007ECC8E5031207ECD2E5031207ECDCE53A
:101B8300031207ECEFE5031207EC42E6031207EC3E
:101B93007BE6031207ECAAE6031207ECF8E603124E
:101BA30007EC47E7031207EC62E7031207EC6CE765
:101BB300031207EC7DE7031207ECC3E7031207ECFC
:101BC300BDF8031207EC17AE031207EC41AE031284
:101BD30007EC5DAE031207EC70AE031207EC86AEA2
:101BE300031207ECE3AE031207EC16AF031207EC84
:101BF30052B3031207EC78B4031207ECABB403122D
:101C030007ECF7B4031207EC23B6031207EC4BB649
:101C1300031207EC60B6031207EC70B6031207EC6D
:101C2300B4B6031207EC15B7031207EC25B703127A
:101C330007ECB9F1031207ECD4F1031207ECFDF141
:101C4300031207EC17F2031207EC3CF2031207EC42
:101C53005BF2031207EC73F2031207ECA1F2031217
:101C630007ECBBF2031207ECA2F9031207EC20D432
:101C7300031207EC27D4031207EC33D5031207EC46
:101C830063D5031207EC89D5031207ECACD5031215
:101C930007ECCED5031207EC08D6031207EC6ED679
:101CA300031207ECA7D6031207ECF3D6031207ECD3
:101CB30020D7031207EC40D7031207ECA4FD02124E
:101CC30007ECC6FD021207ECBEFE021207ECE9FFA9
:101CD300021207ECECF2031207EC5EF3031207ECBB
:101CE3009CF3031207ECDDF3031207EC2D7C0012C7
:101CF30007EC4C7C001207EC9B7C001207ECB77CD2
:101D0300001207ECE87C001207ECF87C001207ECE9
:101D1300057D001207EC127D001207ECFE7D001218
:101D230007EC3C7E001207EC467E001207EC567F60
:101D3300001207EC617F001207EC737F001207ECBF
:101D43007C7F001207EC867F001207ECD9F80212A1
:101D530007EC1EFD021207EC3AFD021207EC93FAA0
:101D6300031207EC5DFA031207ECC0FA031207EC47
:101D73000AFB031207ECF0D5021207EC36D4021269
:101D830007ECE6D1021207EC6DD1021207EC14D175
:101D9300021207ECA4D0021207EC7BD0021207EC6C
:101DA3005BCE021207EC27CE021207ECF4CD02122F
:101DB30007ECD8CD021207ECF1CC021207ECA9CC48
:101DC300021207ECF4CA021207EC74CA021207ECFF
:101DD30071CA021207EC6EC9021207EC3CC9021267
:101DE30007EC79C8021207ECA4C6021207EC35C649
:101DF300021207EC07C6021207EC55DF021207ECCA
:101E03000CDF021207ECC4DE021207EC12DE021230
:101E130007EC84DD021207EC04C6021207ECF1C5DD
:101E2300021207EC9CC5021207EC8BC5021207ECE9
:101E330077DD021207EC7DC4021207EC47C40212DD
:101E430007ECF5C3021207EC96C3021207EC71DA32
:101E5300021207EC1D95031207EC65C3021207EC8F
:101E63002DC0021207ECEDBF021207ECE1BF021214
:101E730007EC41BF021207EC81BE021207EC03BC60
:101E8300021207EC94B9021207EC52B9021207ECE2
:101E930026B8021207ECDBB7021207EC1AB70212DC
:101EA30007ECEDB6021207EC30B6021207EC00B6EF
:101EB300021207ECD3D7021207ECC6B5021207ECE5
:101EC3007FA30300000080FBE473000136360101A9
:101ED30000010201000103010001040106060502DD
:101EE3000000070100340801000F090401010D017E
:101EF30000FF0E08000017020000190100FF1A017D
:101F030000011B0100FE1C0100081D0200001F014F
:101F1300000120010001210200002301000F24021F
:101F230000002601000127010008280200FF2A0102
:101F330000072B0102402C0100002D0100012E019E
:101F430000012F0100FF30010B1C310800003A0192
:101F530000083B01000F2F01000003027102300152
:101F630060021102700201020202020280021002E8
:101F730061023A0041006302730272026202430289
:101F830000021302380000020002040212020002DF
:101F930000020002000204020402370037003C0280
:101FA3004402000239000002000265020002350209
:101FB3008102000205028202830200020300710013
:101FC30030016000110070003102200350048000D2
:101FD30010006100000014006300730072006200CF
:101FE300430000001300060000000000040012007C
:101FF3000000000000000000040004003700370068
:102003003C024400000000000000000065000000E6
:102013003500810000000500000083000000030478
:102023007104020460041104700402040204010434
:1020330002041004610400041404630473047204AE
:1020430062044304000413040604000400040404AB
:10205300120400040004000400045104640000049A
:1020630000040004440400040004000400046504A4
:10207300000435048104640005040004830400049F
:10208300010371030103010301030103010322039C
:102093000203010310030003000300030003000312
:1020A30000030003420300032403060300030003A9
:1020B3000403120325032303250323030403040357
:1020C300000300030003440300030003230300038E
:1020D30065032100350381030003050300030003A7
:1020E300000301017101010101011101010131012C
:1020F300010101018001100161013B001400630132
:1021030073017201620143010001130106013D01E4
:102113003500040112010001000100010001040166
:102123000401330133013C01440132013600000153
:1021330000016501000135008101000105018201F3
:102143008301000136000100060000000F000000BB
:102153000000000000000000000003FFFF00000477
:1021630003FFFF0000FFFF0FF4010005C404032079
:10217300000100000B000000000000000003010F3D
:1021830000007E1813001E1801007E180200E817D5
:102193000300EE170400F4170500FA1706000618EB
:1021A300FFFF000001F20D06280E08220E0B400E61
:1021B300106E0D02F80D05160E07FE0D0CD40D0D55
:1021C300E60DFF000003EAF5E5D5D5C5B5A5959560
:1021D300858575756565555545453535252515152C
:1021E300051E124E1224122A1248123C12361254A1
:1021F300125A1260126C1230121812121200160FB9
:1022030000000B150B020002220F320000060E1312
:1022130020132613E8112C13E211EE1122111C11C5
:1022230058115E1152110A116E138C139213741309
:1022330080137A13303016181920231A1C1E300C01
:102243000E020B040B0A0708000F00383C3E363B16
:102253003B352B432C303017181921301B1D1F30F1
:1022630000011916181616152303000003494842E6
:102273004D181725050262133213381344133E1306
:1022830042126612861372127812020402010101CD
:102293000109022E113411281164110000000000FD
:1022A300003A114C1100BE040A150004007F00E837
:1022B300030C002800000000000308100C0A0308A8
:1022C3000900040001FF1E1E0C05040F1008C08244
:1022D300C0838A828B83E0D2E7F01217400234B1C5
:1022E300C082C083790012279D12582FC082C083F9
:1022F3009003341245B5D083D082C3E09CA3E09D04
:10230300500C125F03FAA3E0122314600109023494
:10231300B1FBEA75F00BA4FAA8F075F00BEBA42857
:10232300FB900336E02AF8A3E03B8882F583E05470
:102333000F2274F7120366890812279D122843ACF3
:10234300F075F00BE9A42CF9900336E028FEA3E026
:1023530039FF7401650860067402650870208A827B
:102363008B8312282F12389174026508701B122672
:10237300EE12287670138E828F83E4F0800BEA24AA
:1023830003FCEB12281112281DEEFAEFFB120ADAF6
:102393000237EE74F412036612682A79008E828F74
:1023A30083E06076890A890B8065E50A75F00BA4E2
:1023B300FAA8F075F00BE50B1223217046E50A75B8
:1023C300F00BA4F8AAF075F00BE50B1228558E82DA
:1023D3008F83E085088285098312293785088285E2
:1023E3000983A3123891EE2403FCEF12281A123644
:1023F3006F1252A9AA08AB09120ADA7901900334C1
:10240300124CBEE50A2401F50AE50B3400F50B1264
:1024130026F6E50A9AE50B9B4090023A3B74F512C7
:102423000366EAFEEBFF740B120A9D123674750AFB
:1024330001EC4D602BEC126846ED12582F123889CF
:102443007901120AE6E5084509606F850882850966
:1024530083A31268347902AA08AB09120AE6805AE8
:10246300E5084509602B125833123EFD12367012EF
:102473002860700CEEFAEFFB120AECE9F50A80CB48
:10248300EE2403FA12279870317903EEFAEFFB80FA
:10249300CA8E828F83A3E064FE7003A3E0F4700B03
:1024A300EE24030A0A0A122798700CEEFAEFFB12C5
:1024B3000AECE9F50A8003750A00A90A7F030205FD
:1024C3008174F71203669003341237FEEA4B602FD0
:1024D300EA75F00BA4FAA8F075F00BEBA428FBEA5D
:1024E300FEEBFF12155A9003361237FE9003361295
:1024F3004B036012EEFCEFFD79001214BE800790CF
:102503000336E4F0A3F00237EE90033412426DC3B6
:10251300EE98EF9922C082C083EC4D6005121CE651
:1025230080097C087D0079001214BE0234B174F670
:102533001203667900EA4B601878008808125B760C
:10254300EB125EFF60047901780808E8C394084041
:10255300EA02389A74F712036674F31208B5ECFEB4
:10256300EDFF851882851983E4F004120A9DEAF0D1
:10257300A3EB12502F7403120A9DAC82AD83EEFAC3
:10258300EFFB120AFEEEFAEFFB120B040237E974BB
:10259300F712036674F31208B5ECFEEDFF8518829B
:1025A300851983E4F0EAFCEBFD7403120A9D1229FA
:1025B300307401120A9D1238858E828F83123891EE
:1025C30074FE68700374FF69600479018002790006
:1025D3000237E974F7120366EAFEEBFF1226347042
:1025E3001412263F8E828F83E0F4F88A828B83E075
:1025F30058F0120ADAA9080237EE74F7120366EAF2
:10260300FEEBFF7508008E828F83E0602212263472
:10261300701D12263F8A828B83E08F838E82F8E0BF
:1026230058700CE0F88A828B83E048F0120ADA8053
:10263300C4120AE0E9F508740165082212683F1222
:102643002847122789FAA3E039FB2274F4120366A0
:102653008A088B097C007D001226EE12281D1227A2
:10266300AE1268317900850882850983A3E064FE90
:102673007003A3E0F460717E007F008062EEFAEFE6
:102683001223146057EEFAEFFBEA75F00BA4FAA8D5
:10269300F075F00BEBA428FB900336E02AF50AA3B0
:1026A300E03BF50B850882850983A3124F7D850ADC
:1026B30082850B83A3E06A7003A3E06B701EE50AB7
:1026C3002403FAE50B122799700AE50A2403FCE5B3
:1026D3000B12281A1227A2790112584512308D12B3
:1026E30026F6EE9AEF9B4095023A3BEA24030A0A48
:1026F3000AEB2290033412541CC32274F3120366B0
:102703008A088B098A828B83A312683412279D124D
:102713006831750C001226EE12279970547E007FE3
:1027230000804912277BFAA3E0398A82F583E054BB
:102733000F603612277BF50AA3E039F50BE50A246F
:1027430003FCE50B1228243400FB121CE0E96401AE
:102753007017850A82850B83A31254DDA312389167
:102763001227A2750C0112584512308D12250C4008
:10277300B2A90C7F05020581EEF8EFF9E875F00BBD
:10278300A4F812278922AAF075F00BE9A42AF9907C
:102793000336E02822EF12287022126845EB22123A
:1027A30027AE125840EEF0A3EFF022E50812684678
:1027B300E5092274F5120366EAFEEBFF8E828F832E
:1027C300A31268347C007D00EE24030A0A0AEF1288
:1027D300281DEEFAEFFB120AE0E9F50A7401650A17
:1027E300702912683F122843AAF075F00BE91228EA
:1027F30055850882F58312282F122860700DE5088D
:102803002403FCE50912281112281D0224BD3400FB
:10281300FDEE2403FAEF221228243400FB120AFEF1
:10282300223400FDE5082403FAE50922A312283423
:102833002212283822E0F8A3E0F98E828F83A322A4
:10284300122847223400F583124271E875F00BA475
:10285300F82212278FF508A3E039F50922E8F0A33F
:10286300E9F0E5082403FAE5091228702212287614
:102873006401223400FB120B04E92274F312036691
:1028830074E61208B512682A750C017508007509FB
:1028930000750A00750B00851882851983E4F0EE34
:1028A3002403FCEF3400FD7403120A9D122930E95E
:1028B30064017023740B120A9D1238897401120A81
:1028C3009D124F817003A3E06960518518828519B9
:1028D30083858208858309740D120A9DE4122937C2
:1028E300740E120A9D123891740D120A9DAA82ABBE
:1028F30083120B22E96401700B740D120A9D858209
:102903000A85830B780A120809AC08AD09EEFAEFC1
:10291300FB120AF27402120837E9F50CEEFAEFFB28
:10292300120B1CA90C741A120837022776122C03F7
:10293300120B28221237F912426D22C082C083780B
:102943000079008003122A2E1226F6E89AE99B509A
:1029530029E8FAE9FBEA75F00BA4FAACF075F00B81
:10296300EBA42CFB900336E02AFCA3E03B8C82F51E
:1029730083E0540F70CF7900800279010234B1C033
:1029830082C0839022AC1242C3EC75F012A4FCA85F
:10299300F075F012EDA428FD79FF7A0C7B07121471
:1029A300BE0234B174F7120366E9FEEAFF7A007BD4
:1029B30000780079008028E8FCE9FDEC75F012A4AA
:1029C300FC85F00875F012EDA42508122E43C39E72
:1029D300400AE0FCEFC39C4003122F62122A2E121E
:1029E3002E3740D30237EEC082C08378007900804F
:1029F30003122A2E122A22501F122E47F470F2E8D5
:102A030075F012A4F8AAF075F012E9A42AF9740C6F
:102A130028FA740739FB80047A007B000234B190F2
:102A230022AC122EF8C3E89AE99B22E8240108E9B4
:102A33003400F92274F012036674F31208B58A0A9B
:102A43008B0B8C0C8D0D8908EC450D6016AA0CAB15
:102A53000D120B768A0E8B0FAE0EAF0FEE4F600387
:102A6300022AF5120B4C8A0E8B0FA80EA90FE8FE53
:102A7300E9FFE849607C9022BA122B576022740365
:102A8300650860067404650870167A047903120BEE
:102A9300469022BA122B6E40077A007B00022B5419
:102AA3009022B8122B57601B7401650860067402EC
:102AB3006508700F7A027901120B469022B8122B27
:102AC3006E50D68518828519837401F0120A9D12FF
:102AD30052A9AC0CAD0D7403120A9D122BFC740B9E
:102AE300120A9D12367C123C71E41252911210624A
:102AF3008004EE4F604A780074FF2508C3940450A5
:102B03000278048E828F831252A98E828F83A3A3AD
:102B1300A3A3E508F0E88E828F83A3A3A3A3A31244
:102B230052B1120215122F0F8E828F83A3A3A3A378
:102B3300A3A3A3F0122F06120A7A125829120A86A7
:102B4300122B5C4005900C68E4F0120F3CEEFAEF98
:102B5300FB0242771253CB49227A047900120B46C7
:102B63009022AC125EE5EA98EB9922122B877583CB
:102B7300227582ACE493C398F8A3E49399F9C3EA6A
:102B830098EB9922E493F8740193F92274F21203F7
:102B93006674F31208B58A088B09ECFEEDFF750A1B
:102BA30000EEFAEFFB120B768A0C8B0DA80CA90D25
:102BB300E849603E88828983E065087004A3E06584
:102BC30009602F88828983A3A3A3A3E0C39405503C
:102BD300211256D78518828519837401F0120A9D34
:102BE3001256DBEEFCEFFD7403120A9D122BFC75EB
:102BF3000A01A90A740D024D75122C03120B34221B
:102C0300AA82AB83120AFE851882851983AA82AB36
:102C1300832274F6120366122C51600FA3A3A3A39D
:102C2300E014C39404500479018002790002389AB5
:102C330074F6120366122C51600FA3A3A3A3E0142E
:102C4300C39402500479018002790002389A120B6E
:102C5300708A828B83E58245832274F6120366129F
:102C63002C51600BA3A3A3A3E07004790180027924
:102C73000002389AC082C083EAFCEBFD7A007B0035
:102C83000234AEC082C0837C007D000234AE74F493
:102C930012036674F31208B5EAFEEBFF8C0A8D0B80
:102CA300C3EC94F8ED94FF4007EE4F7003022D4AF6
:102CB300750800750900802E8518828519837401B3
:102CC300F01230B5120A9D1230C360137403120A56
:102CD3009DAC82AD83EEFAEFFB121CE0E97049E58F
:102CE300082401122EE39022ACE41253D3E5089892
:102CF300E509995052E50875F012A4F8AAF075F0A9
:102D030012E509A42AF9125F1860D4EE4F70A97472
:102D1300FF650A700474FF650B60C41230A5650A71
:102D23007004A3E0650B70B7E50875F012A4F5080D
:102D3300A8F075F012E509A428F509740C2508FA22
:102D430074073509FB80047A007B00023A3674F479
:102D530012036674F31208B5750800120B768A0A1B
:102D63008B0BAE0AAF0BEE4F602A85188285198351
:102D730074011237F3F8A3E0F9740B120A9D1239A8
:102D830014120B167C127D0079FFEEFAEFFB12147E
:102D9300BE750801122B5C5009900C687401F01287
:102DA3000F3CA908023A3674F7120366E9FE74FE73
:102DB3006A700374FF6B7800790070058052122AE1
:102DC3002E122E37504AE8FCE9FDEC75F012A4FCF4
:102DD300AFF075F012EDA42F122E43F460E0E8FC7F
:102DE300E9FDEC75F012A4FC75F012EDA42FFD744F
:102DF3000C2CF58274073DF583E06A7003A3E06B46
:102E030070BC8009122E4714C394044017122A2E53
:102E1300122A225018EE70EC122E4764016005E06E
:102E2300640370E9123096FAA3E0FB80047AFE7B18
:102E3300FF0237EE9022AC1242C7C3E89CE99D2201
:102E4300122F9722E8FAE9FBEA75F012A4FAACF024
:102E530075F012EBA42CFB74102AF58274073BF572
:102E630083E022120B880234B1C082C083790180CF
:102E7300F274F01203668A0A8B0B7A047901120B3F
:102E8300468A0C8B0DEA450D603EEAC333FAEB33F9
:102E9300FB12155A8A088B09AE08AF09EE4F60235F
:102EA3007AFE7BFF120B8E74FE6A700374FF6B60F5
:102EB3001B8508828509831237FEE5082402122E3A
:102EC300E380E1750C0080047E007F00850A828523
:102ED3000B83E50CF0EEFAEFFB02427CE5082407D6
:102EE300F508E5093400F509229022AC1242C7C364
:102EF300EA9CEB9D22E493FA740193FB221214B231
:102F030074032212583AE4F090819A22E88E828F59
:102F130083A3A3A3A3A3A3A3A3122F317401122FEB
:102F230031A3F0EE241012583DE4F0A3F022123C3A
:102F33007DA3A3A322C082C0837A007B00800419EF
:102F4300122F62122EEC5010122F81C3940550F0F1
:102F5300E970EC122F6B80047A007B000234B1EA33
:102F630024010AEB3400FB22EA75F012A4FA75F08F
:102F730012EBA428FB740C2AFA74073BFB22EAFC2D
:102F8300EBFDEC75F012A4FCA8F075F012EDA4288B
:102F9300122F9722FD74102CF58274073DF583E000
:102FA3002274F712036674F31208B57E007F0002E1
:102FB3003049E50875F017A4F8A9F0126179FAA36E
:102FC300E0FBEEF8EFF9E875F012A4F8ACF075F059
:102FD30012E9A42C1230A46A7003A3E06B603FE5EE
:102FE3000875F017A4F8AAF0EA126178F8A3E0F9DB
:102FF3007401120A9DE0687003A3E0696020E5088C
:1030030075F017A4F8EAF9748828FC740839FD747C
:1030130003120A9DAA82AB83121CE0E96014E5083F
:1030230075F017A4F8A9F0748628FA740839FB120E
:10303300106E05089022BEE493F8E508C398500388
:10304300022FB512308D9022AC1264BF5039EEF8C6
:10305300EFF9123096F47003A3E0F460E68518826A
:103063008519837401F0EEF8EFF9E875F012A4F80E
:1030730075F012E9A42AF91230B5120A9D1230C371
:1030830060C175080080AD0237E9EE24010EEF340C
:1030930000FF22E875F012A4F8AAF075F012E9A473
:1030A3002AF91230A922740C28F582740739F583A2
:1030B300E022740E28F58274073912426B740B22D6
:1030C300E8F0A3E912391C120B2EE922C082C08357
:1030D30090033D7410F0A3740EF090033F740AF054
:1030E300A3740EF09003437424F0A3740CF0023421
:1030F300B1C082C0839003417404F0A3740EF00244
:1031030034B174F7120366EAFEEBFF900377E064D1
:1031130008601BE0640460168E828F83E0540364AE
:1031230001704812366F123D72E06406703D8E8264
:103133008F83A3A3E064FE7003A3E0F4602D8E826B
:103143008F83A3A3123885900368E0687003A3E01C
:1031530069700BEE2415F582EF125EFF6008120E04
:10316300CAE9F5088008120ED080F67508C2EEFA97
:10317300EFFB1215600225F874F41203668A088BBC
:10318300098A828B83E0F8A3E0FAE82AFAE43400A0
:10319300FB12155A8A0A8B0BAE0AAF0BEE4F606314
:1031A300850882850983E0FC7D0079001214BE8EB8
:1031B300828F83A3A3126834120F0C8E828F83A392
:1031C300A3A3A31237FE850882850983E0F8EE28BE
:1031D300F8EF340012388D850882850983A3E0C097
:1031E300E0EE240D12582CD0E0F0120F1EEE240E48
:1031F30012582CE9124EDEE0C0E0EE241112582CD6
:10320300D0E0F0EEFAEFFB023A3B74F4120366747B
:10321300EB1208B58A088B098C0A8D0BE9FE900323
:1032230077E064046005E06408700479C2802EA32B
:103233007808120A5EEE90037E1234EF120A5E746F
:1032430005120A9DE9F07404120A9D7401F07407D3
:10325300120A9DE4F0900377740212344C74150241
:103263003A3874F612036674EB1208B5EAFEEBFF04
:10327300124B0060030233097A077B0012155A9040
:1032830003391237FE124B0060788E828F83120A45
:103293007A90033A123D75120A861266F8C0E0125C
:1032A3003315D0E0F0EE2405FAEF3400FB8A088BE7
:1032B300098A82F583E0C0E0123310D0E0123A327B
:1032C300E0C0E0123310A3D0E0123872120A7A85FC
:1032D3001882851983120A8688828983E0C0E07484
:1032E30005120A9DD0E0F0850882850983E0C0E0DD
:1032F3007404120A9DD0E0F07407120A9D12344B35
:1033030080067910800279017415023897123315FB
:10331300A322900339E0FAA3E0F5838A82A3A3A34F
:10332300A322C082C083124B00600D900339125454
:103333000A900339E4F0A3F0120E3A12100E02348D
:10334300B174F012036674EB1208B5ECFEEDFF895D
:10335300087425120A9D780C120A407429120A9DDA
:10336300E0F9742A120A9DE0FC742B120A9DE0FD19
:10337300740F697005740F6C6012900CB3E06402F3
:10338300700579C1023446E9C39C40F6900378780E
:103393000C120A5EE50890037EF0E990037CF0ECE2
:1033A300A3F0ED90037FF074FF6A700374FF6B70FA
:1033B3001D900CBEE0F47003A3E0F470051214D06A
:1033C300800C900CBE1237C6E8F0A3E98007900387
:1033D30075EAF0A3EBF0EE4F6017EEFAEFFB121075
:1033E300CEE96401700BEEFCEFFD7A897B03121CBE
:1033F300E6900368E4F0A3F090036BF0A3F090036E
:1034030088F0900CB3E06402700890037C740FF0B2
:10341300A3F09003777405F014120A9DE4F090036F
:1034230078120A7A851882851983120A8690037E98
:10343300E0C0E07405120A9DD0E0F07407120A9D03
:1034430012344B7415024279E412391C121D1622F0
:10345300C082C083900338E07003121818120BDC8B
:10346300804CC082C083900338E0900C677004E402
:10347300F0802D7401F0900338E0F460237C41E088
:10348300C394415002E0FCECF8E0C398F0EC75F013
:10349300E8A4CCA8F075F003A428FD7A801242CFEB
:1034A3007A677B0C7941121CFE8003120B7CD0835C
:1034B300D0820207E974F412036674EB1208B58A2A
:1034C300088B098C0A8D0B90037774011234EF1269
:1034D3000A5E7405120A9DE9F07404120A9D7403CE
:1034E300F07407120A9D12344B02326012387D7851
:1034F300082274F71203667C01120BEE0237EE7496
:10350300F212036674FC1208B5E9851882851983E3
:10351300F0EAFEEBFF8C0A9003751245B5120E2EEE
:103523008A088B09EA4509700579CA02366A8A82D4
:103533008B83A3A3A3A3A3A3A3E064FE7003A3E0CD
:10354300F4700579C302366A900375124F7D121029
:1035530074850882850983A3A3A3A3A3A3A3A3A319
:10356300A3E0049003881237CD7402120A9D7402FB
:10357300F014120A9DAA82AB83120F788A0C8B0D6A
:10358300AE0CAF0DEE4F700302366112366F123E72
:10359300F17406F0A3A882A9839003621254471220
:1035A300424AF0EE241312582C74011252897440CB
:1035B300F0A3E4124ED7A3A312367C123891EE2463
:1035C3001112582CE50AF0EEFAEFFB120BB2E9FEEA
:1035D30060030236639003777409F0122EDFAA08A2
:1035E300FB794B121CFE8508828509831237BF12B3
:1035F300389190036AE0F8851882851983E0686042
:103603000CE090036A12391879E1121CFE900CA1A8
:10361300123885900CA3E0687003A3E069601A90E8
:10362300033B123891900CA3124F7D120F36900C6E
:10363300A31245B57A011242CF7A007B049003C2EC
:10364300E0F912161A900CA3123674740278081259
:103653000980AC08AD09FA7B041242D180027E10C6
:1036630090053DE4F0EEF97404024D75EE12583BFB
:1036730022E0F508A3E0F509221236802212283849
:10368300A32274F512036674E21208B585188285C5
:103693001983ECF0A3EDF0EAFEEBFF89087429121D
:1036A3000A9DE0F509742C120A9DE0F50A90037750
:1036B300E064046005E06408700579C20237B774FA
:1036C3002A120A9DE064FE7003A3E0F4700579C337
:1036D3000237B790037774031239187950121CFE1E
:1036E300742A120A9DAA82AB83794B121CFE851899
:1036F300828519831237C6123891E50890036AF060
:10370300742A120A9D1237BF123891E50990036299
:103713001237CD74CE55094480C0E07412120A9D4D
:10372300D0E0F07401250A900388F0740F120A9D0B
:103733007402F0742A120A9D1238857407120A9DC6
:10374300E8F0A3E91238047410120A9D1238917438
:1037530005120A9DE508F0741B120A9DE4F090031C
:103763007D740FF07A7D7B037954121CFE90037CE9
:10377300740FF07A7C7B037947121CFE90037CE084
:10378300C3940F50237405120A9DE0C0E074021223
:103793000A9DD0E0F07404120A9D7401F004120A29
:1037A3009DAA82AB83121D227405120A9DAA82ABC5
:1037B30083121D04741E1208370224BF12426D9037
:1037C300036B2212426D90037522F0EEFCEFFD7A3B
:1037D300897B03121CE62274F7120366EB90037FC6
:1037E300F0120E1C8005740D1208377F010205814B
:1037F3001237F9A3E022123872A322EAF0A3EBF006
:1038030022123878F8A3E0F92274F712036674F8E9
:103813001208B5EAFEEBFF7900900377E0640870C5
:103823004485188285198374FDF0A374FFF0120F89
:10383300067402120A9D1237FE7405120A9DE412E1
:1038430037F9E0C0E07404120A9DD0E012386DC06D
:10385300E07406120A9DD0E0F07407120A9DE41288
:103863003918120F5A74080237EB123872E022F03B
:103873008E828F832212387DE022F085188285198B
:10388300832212426D22E0F8A3E0F912583AE8F0DD
:10389300A3E9F0221208377F02020581C082C083A8
:1038A30090034974B4F0A3740CF09003EF74B4F074
:1038B300A3740FF090034D74EAF0A3740CF090031B
:1038C3004F74B4F0A3740CF090035174F0F0A3742C
:1038D3000CF00234B174F412036674F91208B58A59
:1038E300088B098C0A8D0B85188285198378081239
:1038F3000A5E7404120A9DE9F07405120A9DE4F04D
:103903007406120A9DE4123918120BC47407023AA2
:1039130038E8F0A3E912391C2212387DAA82AB835E
:103923002274F41203668A088B098A828B831258E5
:1039330048EE4F7003023A30900312124B036015A6
:103943008A828B83A3A3E0F9EEFAEFFB90031312B1
:103953003D75121ECB8E828F83A3A3A3A3A3A3A320
:10396300A3A3E0640270748E828F83A3A3A3A3A393
:10397300A3E054027003023A02850882850983A3F7
:10398300A3E064E960798E828F83A3A3A3A3A3A397
:10399300A3A3A3A3E07014900CB6E0048E828F83DC
:1039A300A3A3A3A3A3A3A3A3A3A3F08E828F83A301
:1039B300A3A3A3A3A3A3A3A3A3E014123A32A3A391
:1039C300A37404F0900CB7125283E8F0A3E91263D6
:1039D3005C8B0BEA450B7003125D3A8E828F83A3D7
:1039E300A3A3A3A3A3A3A3A3E0640260128E828F65
:1039F30083A3A3A3A3A3A3A3A3A3E06406702E8E10
:103A0300828F83A3A3A3A3A3A3E0A2E0501F8508EF
:103A130082850983A3A3E0F9EEFAEFFB121DAC8EB6
:103A2300828F83A3A3A3A3A3A3E054FEF080091270
:103A33003C7922740D1208377F0402058174EC125D
:103A4300036674DD1208B5EAFEEBFF8C088D09747A
:103A530037120A9D780C120A40750A007405120A7F
:103A63009DAC82AD83120AB67412120A9DE07008EF
:103A73007415120A9DE060207405120A9DE0A2E607
:103A8300501E8E828F83A3A3A3A3A3A3A3A3A312D6
:103A93004F7D120F90E960087903121CCE023C5F40
:103AA3007405120A9DE0540C64047005750B0180C3
:103AB30003750B00E0A2E55035750A01E50BA2E0A2
:103AC300402C120F0C8A108B11A810A91112366FFB
:103AD300E0687003A3E06960157405120A9D12681B
:103AE3003B124F79121DB8E96004790480AC740568
:103AF300120A9DE0A2E650227406120A9DE05403C6
:103B030070187405120A9DE0540C640C600CE054A8
:103B13000C640860057510018003751000740512AC
:103B23000A9DE05403F8740268700C12683B124F4C
:103B330079120AC8023C5F740168703AE510A2E08A
:103B43005003123C677405120A9DA882A98374036B
:103B5300120A9DE8F0A3E912426185188285198350
:103B6300123C71E0C0E07402120A9DD0E0123918D1
:103B7300121E9C023C5FE86003023C5F90035FE01F
:103B8300640170108E828F83A3A3A3A3A3A3E07009
:103B930003023AED7422120A9D7402124261741AEE
:103BA300120A9D123891E510A2E050087405120A1A
:103BB3009D123C67E50BA2E0506AEE240FF582EFFD
:103BC300125EFFC0E07417120A9DD0E0F090031458
:103BD300124B037003023C5F120F0C8A128B13A863
:103BE30012A913741A120A9DE0687003A3E06970A6
:103BF3006B780C120801780A12080D78081208096C
:103C0300A910740C120A9DAC82AD837421120A9D13
:103C1300AA82AB83900314123D72121ECB74071257
:103C230008378038780C120801780A12080D7808D2
:103C3300120809900375120694EE2412F582EF120E
:103C43005C2D7423120A9DAC82AD83740E120A9DFF
:103C5300AA82AB83121DA0740912083774231208B9
:103C63003702632712683B125418120ABC22E8F089
:103C7300A3E9123C7922123C7D22F08E828F83A32A
:103C8300A3A3A3A3A32274F71203661216F20237A7
:103C9300EE74F71203661216FE0237EE74F7120380
:103CA3006612170A0237EEC082C083121704023469
:103CB300B174F71203661217100237EE74F712038A
:103CC300667409120A9DE0F508780812080D1217A8
:103CD3001C74010237EBC082C0831217280234B16F
:103CE300C082C08312172E0234B174F71203661216
:103CF30017340237EE74F7120366EAFEEBFF890806
:103D03007401650870147900120D2C9022C9E49394
:103D1300FC7900EEFAEFFB120CA20237EE74F412F8
:103D2300036674F91208B5E9FE8A088B098C0A8DBB
:103D33000B7413120A9D124F7D90058A124B036078
:103D430027EE851882851983F07401120A9D78087D
:103D5300120A5EEAF8EBF97405120A9D12391490FF
:103D6300058A123D72121ECB02390FFB90034BE002
:103D7300F8A3E0F583888222C082C08312176A0207
:103D830034B174F7120366900C6AE0F97E00800B7D
:103D9300125EEB540D64017001190E123F7F500344
:103DA300E970ED0237EE74F7120366900C6BE0F9DD
:103DB3007E00800B125EEB548D64817001190E122C
:103DC3003F7F5003E970ED0237EE74F21203668908
:103DD3000BE975F006A4240CF508E5F0122EE78A2A
:103DE3000CE508250CFAE5093400FB12155A8A0C78
:103DF3008B0DAE0CAF0DEE4F6027AC08AD0979000B
:103E03001214BE12366FE50BF0EE2508F8EF3509F4
:103E1300F98E828F83A3A3A3A3A3A3A3A3A312387F
:103E230091EEFAEFFB024D7874F6120366EAFEEBAD
:103E3300FF120C7E900C69E0F8E9C39840099003E7
:103E430045124F7D120C84EE2402F8EF12558D902B
:103E53000347125447900347E004F0EEFAEFFB12D6
:103E63000C8A850882850983E0025A43C082C08395
:103E73007900900345800109124F7D8A828B83E587
:103E830082458370F20234B174F7120366EAFEEBE3
:103E9300FFEE4F6056900345124B03604E888289B4
:103EA300837A007B00EE65827003EF6583600FAA5F
:103EB30082AB83123EF1E5824583602F80E7900356
:103EC30045123EFD687002EF698E828F837008127F
:103ED30038859003458003126339123891EEFAEF67
:103EE300FB121E6CEEFAEFFB1215600237EE123E68
:103EF300F522124271888289832212426DEE22C01A
:103F030082C083900345800488828983124B0360B7
:103F13000B888289831245B5EC4D70EC8A828B83C2
:103F2300E4F0A3F0E8496006888289838003900364
:103F3300451237FE0234B174F712036690034580CD
:103F4300048A828B83123F7A4B60257E0080010EA8
:103F5300123F7F50ECEE75F006A4FCADF0EA2CFCAA
:103F6300EB3DFDEC2410F582ED123FCF70E18004B0
:103F73007A007B000237EE12541CEA22123FD8EE7D
:103F8300C3982274F71203667D0080010D123FD49B
:103F9300EDC3985034ED75F006A4FEA8F0E8FFEAEF
:103FA3002EFEEB3FFFEE2410F582EF123FCF70DCC5
:103FB300ED75F006A4FEE8FFEA2EFAEB3FFBEA24D8
:103FC30011F582EB125EFF4CF00237EE125F0B69C4
:103FD30022123FD822126845EB3400F583E0F82221
:103FE30074F6120366120DA47A007B008025EAF8AA
:103FF300EBF9E875F006A4F8ACF075F006E9A42C2B
:104003001253F1126706A3E41254E7F0A312670CEC
:104013001268839022B4122B6640D37A007B00800F
:104023001C8A088B0974037808120980124EA5A311
:1040330074FEF0A3041252C7A3E41268839022BD56
:1040430012408240DC7A007B00801D8A088B097451
:1040530003780812098074AE125B77740B1263BE87
:1040630074FEF0A3041268839022C312408240DBE3
:104073009022C7E493900353F012408C02389AE4E1
:1040830093F8C3EA98EB9400227CE87D037A107BD3
:10409300009003C2E0F91216142274F0120366743E
:1040A300F51208B58A088B09890A8C0BE9A2E0503E
:1040B300147508FC7509FFA2E15005D2E402415FC3
:1040C300D2E302415F124D647003A3E06970057986
:1040D3000002422CAC0A7902AA08AB09120D80E94E
:1040E30060EDE50AF50C780C12080D79027CFE7D73
:1040F300FFAA08AB09124ADF120837E9600302423C
:104103002AE50AC2E5F50A9003B5E07051E50AA273
:10411300E6404B7403120A9DAC82AD83AA08AB0937
:10412300120B0AE970321244008A0C8B0DA80CA9F9
:104133000DE8FEE9FFE8496025EE24020A0AEF12C2
:104143002876601AEE2402FCEF3400FD7403120A91
:104153009DAA82AB83121CE6E50AD2E5F50A900319
:1041630048E0F50C900368E0F50EA3E0F50F780E38
:104173001208097D017C00900348E0F9AA0EAB0FF9
:10418300120D387402120837E9F8900348E004F07E
:10419300E8600302422AE50AA2E55004740E800295
:1041A3007406C0E07401120A9DD0E01258598A0EB9
:1041B3008B0FAE0EAF0FEE4F606912424A1242618F
:1041C300888289837401F07478550AA312684BE5D9
:1041D3000C12684BA3E508F0E509124239E4F0E557
:1041E3000AA2E5500F7403120A9DAC82AD83E82442
:1041F300061242308E828F83A3A374FDF0A374FF53
:10420300F0E50B60159022CAE493F8E50BC39850D0
:1042130009EE241312582CE50BF0EEFAEFFB120B08
:10422300B280067910800279C7740B8049FAE934A9
:1042330000FB121CE62288828983A3A3A3A3124254
:1042430045221255C0A322EE241712583D7401F0E3
:10425300120F06EE241A12583DEAF0A3EB22F012D5
:10426300683F340012426B22F58312427122E0F858
:10427300A3E0F922740D1208377F0802058174F652
:104283001203667A007B10125D4760089003D474B2
:1042930001F0802990062DE06401900CB47006E0D3
:1042A300FC79018004E0FC79037A007B00120CA204
:1042B3009022B21242C37A007B101242D102389A82
:1042C3001242C722E493FC740193FD227B00900306
:1042D300C2E0F912160E2274EC1203668A088B09E7
:1042E3008C0C8D0D890E7414120A9D124CBE74161B
:1042F300120A9DE0F510A3E0F511120F90E9600793
:104303007AFF7BFF0243FD900CB3E064026003027B
:1043130043F07900AA08AB09120D86A90E120D7A93
:104323008A128B13AE12AF13EE4F70030243D88E73
:10433300828F83A3A3A3A3A3E064018E828F83A3AD
:10434300A37069124F7D8E828F83A3A3A3A3A3A31C
:10435300E0541860439022C8E4938E828F83A3A312
:10436300A3A3F0EA650C7003EB650D6014EA650A1C
:104373007003EB650B600AEA65107003EB6511705F
:104383001F7810120809AC0AAD0BAA0CAB0D121062
:104393008C74021208378008900367125D31A3F012
:1043A30074FE6A700374FF6B601D804EA3A3A3E0C9
:1043B300640360298E828F83A3A3A3A3A3E0640471
:1043C30070057AFE0243058E828F83A3A3A3A3A362
:1043D300E0640270089003B4E064027010124400B9
:1043E3008B0BEA450B6006AA08AB09800DAA08AB44
:1043F30009900349123D72121ECB02632790037585
:10440300124AE51210502274F7120366EAFEEBFF1C
:10441300120B5EE9700AEEFAEFFB120B6AE9600613
:10442300EEFAEFFB80047AFE7BFF0237EE74F012A4
:1044330003668A0A8B0B8C0E8D0F8909750800128F
:104443000F90E9790060030245A7AA0AAB0B120D8E
:1044530086A909120D7A8A0C8B0DAE0CAF0DEE4FA7
:1044630060198E828F83A3A3A3A3A3E06402705574
:104473009003B4E0640270030245A5AA0AAB0B9053
:10448300034F123D72121ECB120B708A0C8B0DA8B8
:104493000CA90DE84970030245A588828983A3A36B
:1044A300A3A3A3E0A2E040030245A5750C01A2E18A
:1044B30050687901AC0AAD0BAA0EAB0F120CD2E90E
:1044C30070640245A58E828F83A3A3A3A3A3E06494
:1044D300037005750C0280528E828F83A3A3A3A35E
:1044E300A3E0640160030245A59003751245B58EF0
:1044F300828F8312490A8A0C8B0DA80CA90DE849F7
:1045030060D19022C1E493FA88828983E0C39A50F0
:10451300C2A3E060030245A580B988828983A3A36F
:10452300A3A3A3D2E1F0EE4F603A8E828F83A3A3BD
:10453300A3A3A3A3E05418602B7508018E828F8375
:10454300A3A3120694750CFE750DFF780C120809CF
:104553007900AC0AAD0BAA0EAB0F120D98740412BE
:104563000837803E900368E0650E7004A3E0650F92
:1045730070149022C9E493FCA909AA0AAB0B120C8C
:10458300A2750801801CA90CAC0AAD0BAA0EAB0FD7
:10459300120CD2E9700C750801A909AA0AAB0B1217
:1045A3000D2CA90802427CE50C2415F582E50D12B9
:1045B300584012529D2274EA12036674F01208B531
:1045C3008A0C8B0D8C088D097426120A9DE0F51454
:1045D300A3E0F5157512069003F5124B03602390C3
:1045E30003751245B5AA08AB0912107A8A108B110C
:1045F300EA4511600D8A828B83A3E070057900027E
:1046030048F2E50C241DF50EE50D3400F50F850E7B
:1046130082124AEFF51388828983A3A3A3E0FA8861
:10462300828983A3A3A3A3E0F9EA2400FEE439FF6C
:10463300AA08AB09120D32850E82850F8312492D0C
:10464300E029F50BE50AA2E5500375120E748755B0
:104653000A70177418550A6418600FE50C2417F5CF
:1046630082E50D125EFF651260077901121CCE8090
:104673008C530A78C3EE94F8EF94FF501D7900EE43
:10468300FAEFFB1248FC601288828983A3A3A3A3D9
:10469300A3A3E05418600302460078081208097DBA
:1046A30000124920120837E9F874036870030246C0
:1046B30000E8600302476B7418550A700302482030
:1046C300E50AD2E0F50AA2E45004D2E1F50AA90A08
:1046D300124F761248FC605388828983A3A3A3A355
:1046E300A3A3E05418604488828983A3A3A3A3A34C
:1046F300E064017036E51045116030900375124592
:10470300B58882898312490A8A0E8B0FA80EA90FD6
:10471300E849601788828983A3E0600F851082854A
:104723001183A3125A4E5003024600E50AF50E7890
:104733000E12080D124913120837E9702B7C007D05
:104743000085148285158374FFF0A3F0850C8285A0
:104753000D83A3A3A3A3A3A3A3A3E060031245AA6A
:10476300A90B124F76121722851482851583E0F464
:104773007003A3E0F460399003B4E06402700302B1
:104783004600124CAFE0FAA3E0123D6E121ECBEAD4
:1047930065087003EB65096003024600EEFAEF1249
:1047A3003D6E121ECB851482851583EAF0A3EBF0D0
:1047B30078081208097D01124920120837A90AEE68
:1047C300FAEFFB120D868A088B09A808A909900342
:1047D30068E0687003A3E06960030248E3EEFAEF60
:1047E300FB120B708A088B09A808A909E849606EB7
:1047F30088828983A3A3A3A3E06401600D888289CF
:1048030083A3A3A3A3E0640270548518828519834C
:10481300AC82AD83EEFAEFFB120B0A805590036175
:10482300E0600FE50AF50E780E12080D1249131217
:104833000837E50AF50E780E12080D79027CFE7D25
:10484300FFEEFAEFFB124ADF120837E96003024773
:104853006B85148285158374FFF0A30247B2120F90
:1048630006EAFCEBFD851882851983AA82AB8312C5
:104873001CE6850C82850D83A3A3A3A3A3A3A3A3F3
:10488300E06401700F1245AA7408120A9DAA82AB54
:1048930083121CE6124AB91256C54430F50878084B
:1048A30012080D7401120A9D858208858309780810
:1048B300120809740B120A9D8582088583097808FA
:1048C300120809E513F508780812080D7900EEFCC3
:1048D300EFFD124F76120CCC740612083702460015
:1048E300124AB912582F12492DE50BF0120F1E74FC
:1048F300101208377F0E020581120D7A8A0E8B0F74
:10490300A80EA90FE84922A3A312541C12107A225D
:104913007901AC08AD09125411124ADF22AC0BA97C
:1049230013125411120D387402221256CDA3A3A3ED
:10493300A32274F012036674F01208B58A0C8B0D6F
:10494300ECFAEDFB750F089003F5124B036014129C
:104953005A478A828B83E58245836007A3E070030D
:10496300024AB4124AB93400124AEFF50B8882891D
:1049730083124AC2E0FBEC2400FEE43BFF888289F9
:1049830083A3A3124AC2A3A3E0FBECF508E43BF51F
:104993000988828983A3A3A3A3A3A3A3E0F50EE5B8
:1049A3000AA2E45003750F10A2E550067408250F00
:1049B300F50F748F550A700FE50C2417F582E50D7A
:1049C300125EFF650F60087901121CCE024AB453D0
:1049D3000A707800E50AA2E45022124AB9125EFF77
:1049E3002408FCA3E03400FD7408120A9DAA82ABDC
:1049F30083121CE67808E50AC2E4F50AE50AA2E593
:104A03005028124AB9125EFF28F8A3E03400F9E8EF
:104A13002408FCE93400FD851882851983AA82AB3A
:104A230083121CE6E50AC2E5F50AAC0EA90BEEFA01
:104A3300EFFB120D3EE9F87403686075900368E0BC
:104A43006E7003A3E06F605EE87054E50AF50F78BB
:104A53000F12080D124AD0120837E97054780A125F
:104A6300080D7401120A9D85820C85830D780C1242
:104A73000809740B120A9D85820C85830D780C122C
:104A83000809E50BF50A780A12080DA90EAC08AD62
:104A930009EEFAEFFB120CCC74061208378012747D
:104AA3000468700D80B7780A12080D124AD01208F4
:104AB300377410024279E50C241DF582E50D22A31B
:104AC300A3A3E0FC88828983A3A3A3A32279011271
:104AD3004CB6125840124AE5124ADF22120CF67401
:104AE3000122E0FCA3E0FDAA08AB0922F583123EF4
:104AF300F5A3E0F50A88828983A3A3E02290033912
:104B03001254782274E812036674F51208B5EAFEAB
:104B1300EBFF8C088D0989147423120A9DE0F50FAD
:104B23007424120A9DE0F512A3E0F5137426120A09
:104B33009DE0F516A3E0F5177428120A9DE0F50E23
:104B4300A90F120D448A108B117401120A9D740867
:104B5300F0E50EA2E450037410F0E50EA2E5500454
:104B6300E02408F0851882851983AA82AB83120F8B
:104B7300788A0C8B0DEA450D7003024C96EA2417D4
:104B8300F582EB124CA8120F06E50C241AF582E508
:104B93000D12582F1237FE7403120A9DAC82AD8397
:104BA300AA10AB11120B0AE9601D124CA074031278
:104BB3000A9DA882A983E50C2418F582E50D1258F5
:104BC3002FE8F0A3E98024E50EA2E4501FE5106E60
:104BD3007003E5116F7015124CA0E50C2418F582D3
:104BE300E50D12582FE512F0A3E513F0124CAF12A6
:104BF3004CBE850A82F5837402F0A3E50E124CC6FF
:104C0300E50FF0EE850A82850B83A3A3A3F0EF855E
:104C13000A82850B83A3A3A3A3124CC6A3A3A3E574
:104C230008F0E509850A82850B83A3A3A3A3A3A3A5
:104C3300F0AA10AB11120D32E92514850A82850BF7
:104C430083A3A3A3A3A3A3A3F0750800E50EA2E483
:104C53005011AC12AD13E50A2408FAE50B124232E7
:104C6300750808E50EA2E55014AC16AD17E50A2544
:104C730008F8E50B3400F9E82408124230850C8269
:104C8300850D83A3A3E510F0A3E511F0AA0CAB0DEA
:104C9300120BB2740B1208377F10020581E50C2446
:104CA30016F582E50D1258407401F022124CB6122B
:104CB300584022E50C126846E50D22E0F50AA3E010
:104CC300F50B22F0850A82850B83A3A32274F212CB
:104CD30003668A088B09ECFEEDFF890A7900124D01
:104CE300647003A3E069700479018073750B01900C
:104CF3000368E065087004A3E06509601F750B0095
:104D0300780B12080DA90AEEFCEFFDAA08AB0912F5
:104D13000FCC7401120837E9F50B80417900EEFAE4
:104D2300EFFB120D7AEA4B602B8A828B83A3A3A33A
:104D3300A3A3A3E05418601C7508FE7509FF780847
:104D43001208098A828B83A3A312069412665B124C
:104D5300083780097901EEFAEFFB120C54A90B8096
:104D630014120D868A0C8B0DA80CA90D900368E014
:104D730068221208377F0602058174F412036675F0
:104D830008F67509097A101263638B0BEA450B70F9
:104D93000312408C900353E014F0700C9022C7E48C
:104DA30093900353F0120D927E007F00806C850870
:104DB30082850983A3A3A3A3E06059F46056E508A1
:104DC3002404F582E509125D2B7049850882850963
:104DD30083A3A3A3A3A3E0640370197902850882C4
:104DE3008509831245B5850882850983A3A3124FDC
:104DF3007D120CD2850882850983A3A3A3A3A3E014
:104E03006401601085088285098374FEF0A304128F
:104E13004ED7E4F012308D122EDF9022B61264BF0B
:104E2300408C7E007F008039120EAC8E088F09748F
:104E3300037808120980746E2508FC740B3509FD8C
:104E43007ADE7B0C120E9AEA4B70DD8E088F0974A2
:104E5300037808120980124EA5126706E4F0123097
:104E63008D9022BDE493F8C3EE98EF9400501B8E0F
:104E7300088F0974037808120980124EADE82407DD
:104E8300F582E9125D2B70D680A17E007F00800A37
:104E9300124EB8600214F012308D1264BC40F1025D
:104EA3003A3B124EAD8882898322746E2508F874CA
:104EB3000B3509F922EEF8EFF9E875F006A4F8AA24
:104EC300F075F006E9A42AF9740E28F582740B39FB
:104ED300F583E022124EDEA3A3A322F08508828588
:104EE3000983A3A32274F712036674E11208B5ECD5
:104EF300FEEDFF750800EE4F60728A828B83E0241B
:104F03001C125D5C124B0360638A828B83124F7D9C
:104F1300851882851983AC82AD83EA241BF582EB65
:104F2300125C2DEA241CF582EB124F79120EEE74FB
:104F33000B120A9D124F817003A3E069702E740255
:104F4300120A9DE064017024741D120A9D123D72C1
:104F5300E064017017741D120A9D123D74A3A3E04F
:104F6300F88E828F83E0687003750801A908741FA7
:104F73000237EB124CB63400F58312541C2212286C
:104F830034E0682274F4120366E970247900900314
:104F93004D123D72121ECB8A0A8B0BAE0AAF0B74F5
:104FA300FE6E700374FF6F701A9022C4E493601353
:104FB300790190034D123D72121ECB8A0A8B0BAE00
:104FC3000AAF0B120F3C02320674F612036674F337
:104FD3001208B51214D08A088B09AE08AF099003E2
:104FE30068E06E7003A3E06F60E9120F12EA6E705F
:104FF30002EB6F60DEEEFAEFFB120F90E970D4EE76
:105003004F60D0851882851983E4F004120A9DEE5F
:10501300F0A3EF12502FE970BA74FE6E700374FFA1
:105023006F60B0EEFAEFFB740D02389712391C1261
:105033000B2222C082C083120F3C0234B17F0A02CA
:10504300058174F2120366EAFEEBFF8C0A8D0B896D
:1050530008740E120A9DE0F50974FC6E700374FF68
:105063006F70057900024D787900120D868A0C8BDA
:105073000DAE0CAF0D900368E06E7003A3E06F708C
:1050830006E509A2E650DCA90912654970617900B9
:105093007AFE7BFF12654970567418550970030236
:1050A300517C780079008003122A2E9022B6122AAE
:1050B30025400302517CE8FAE9FBEA75F007A4FAFC
:1050C300ACF075F007EBA42CFB74FC2AF582740991
:1050D3003BF583E0541870D0E875F007A4F8AAF004
:1050E30075F007E9A42AF974F628F8740939F988E0
:1050F300828983A3A3A3A3A3A3E05418600974180C
:105103005509700302506688828983EEF0A3EFF09D
:1051130074FE650A700474FF650B60031252A38862
:10512300828983A3A3A3A3A3A3E509F0A2E0500D5F
:1051330088828983A3A3A3A3A3A3D2E2F074016506
:105143000888828983A3A3A3A3A37038740112528E
:10515300C7E0541860289022C8E49388828983A307
:10516300A3A3A312529112107A8B0DEA450D60038B
:105173000250667800790080397902025068900302
:1051830067E080D7E06401700302506688828983F8
:10519300A3A3A3A3A3A3E0541860079022C8E49396
:1051A3008004900366E0124239E508F0025066126B
:1051B3002A2E9022BEE493FAC3E89AE994004003AE
:1051C3000250667A007B00804BEAFCEBFDEC75F045
:1051D30007A4FCAEF075F007EDA42EFD74F82CF5D2
:1051E3008274093DF583125848E8FCE9FDEC75F03B
:1051F30017A4FC85F00975F017EDA42509FD748645
:105203002CF58274083DF583E06E7003A3E06F60B4
:105213009E122F629022B6122EEF40AD1242C3ECC3
:105223006A7002ED6B7088E875F017A4F8AAF07540
:10523300F017E9A42AF9748628FE740839FF7C174D
:105243007D007900EEFAEFFB1214BE8E828F83127B
:1052530052A9900375125283A3A3A3A3A3A3E8F0B7
:10526300A3E91252897401F0EE240E12582C740132
:105273001252B1120215EE240D12582CE80251AE4F
:10528300123680A3A322F0EE240F12583D22F0120F
:10529300529AAA0AAB0B22900375E0FCA3E0FD220D
:1052A30088828983A3A3E50AF0A3E50BF022F01219
:1052B30052B6229022C1E4932401F8E43400F97A2F
:1052C300027B0022124245A32274ED1203668A0870
:1052D3008B09890E1253FA400579050253C8121738
:1052E30070AA08AB091254CC9022B41253CB650AAE
:1052F3007003E9650B70077AFE7BFF1254CC902292
:10530300B4E41253D3E50A98E50B9940030253C65C
:105313001253D76012E50A75F006A4F875F006E596
:105323000B125422121560E50E6018E50A75F0069B
:10533300A4F8AAF075F006E50B12544E701A790121
:105343000253C8E50A75F006A4F8AAF075F006E55D
:105353000B12542FE4F0A3F0E50A75F006A4F8AAA3
:10536300F075F006E50B1253EFA31256DB88828922
:1053730083A3AA82AB8312543D8A828B83E0603F6E
:105383001253D7603A8E108F1175120078101208DD
:1053930005E50EC333FCE433FDE50A75F006A4F519
:1053A3000AA8F075F006E50BA428F50B7412250A7C
:1053B300F582740B350B124F7B122F0012083779CD
:1053C300008002790702655F122B87E8229022ACE6
:1053D300125EE622E50A75F006A4F8AAF075F00657
:1053E300E50B12542AF8A3E0F9E84922A42A12553E
:1053F3008388828983A322ECFEEDFF9022BFE4938E
:10540300F8E9C39822F58312541C12156022E50CA7
:10541300126846E50D3400F583E0FAA3E0FB22129F
:10542300542AFAA3E0FB2212542FE022A42AF9748F
:105433001228F582740B39F58322E50EF0900CB532
:1054430012544722E088828983F0221255A7F50C73
:10545300E93400F50DE50EC333FAE433FB12155AB4
:10546300850C82850D83EAF0A3EBF0850C82850D14
:105473008312547822124271E8492274F4120366AB
:10548300ECFEEDFF740C120A9D1238858808890919
:105493001254CCAC0AAD0BECF8EDF99022B41254D3
:1054A300D45021E875F006A4F8AAF075F006E912C5
:1054B30053EFE08E828F831254E71254DD1238913A
:1054C300790080027904023A3B120D088A0A8B0B99
:1054D30022122EF8C3EC9AED9B2212426D850882AC
:1054E300850983221255BC2274F61203667E007F5F
:1054F300008028EEF8EFF9E875F006A4F8ACF07533
:10550300F006E9A42CF9741028F582740B12616A71
:105513006A7003A3E06B605712308D1264BC40D3F2
:105523001264B77002E96F704674FE6A700374FF09
:105533006B703C7E007F00800312308D1264BC5080
:105543002E124EB870F3EEF8EFF9E875F006A4F8F2
:105553001255791255AE6017125595F8E912558D0B
:105563008882125408850882850983E4F0A3F0EE4B
:10557300FAEFFB02389A75F006E912558122A42A44
:10558300F9740E28F8740B39F9223400F988088964
:105593000922EEF8EFF9E875F006A4F875F006E9CC
:1055A3001255A722125581E8240422A3A374FE12E4
:1055B30055B912547822F0A3041255C022F0888200
:1055C3008983A3A3A3A32274F6120366EA241DF519
:1055D30082EB1256C5F9604BEA241DF582EB125E8D
:1055E300FF2402FCA3E03400FD1253FE40030256E5
:1055F300B8780080298C828D83E0F508A3E0FFE56D
:10560300082400E43FF509E833FEE433FF74562E23
:10561300F582740B3FF5831256DB1256BB08E8C3C1
:105623009940D28A828B83A3A3A3A3A3A3A3A3A3F7
:105633001245B5900368E06C7003A3E06D700F7CB6
:10564300567D0B12279D124F79120CFC8067EA24BA
:1056530011F582EB125EFF605CFC74FF2CF07508A1
:1056630001780812080D75085675090B7808120899
:1056730009E9F508780812080DEA2412F582EB12FD
:105683005EFFF508780812080DEA2415F582EB127F
:10569300582F120694ECF912279D1245B28A828B79
:1056A30083A3A3A3A3A3A3A3A3A3124F7D120D14A8
:1056B300740712083702389AEC24020C0CED3400FC
:1056C300FD221258401256CDE022E0F8A3E0F58304
:1056D3008882A32288828983E508F0A3E509F02262
:1056E30074EA12036674FD1208B58A148B158C0EC6
:1056F3008D0F890D7419120A9D125848741B120AD2
:105703009DE0F511741C120A9DE0F50C741D120A3C
:105713009D124CBE741F120A9DE0F5106008E50C43
:10572300C333240480027402C0E07401120A9DD0C2
:10573300E01258598A088B09EA4509700302582474
:105743008A828B83A3A3E514F0A3E515126352E5C4
:105753000EF0A3E50FF0EA2413F582EB12582FE5C0
:105763000DF0EA2414F582EB12582FE511F0EA2428
:1057730017F582EB125EFF64017040120F0C8A0E64
:105783008B0FA80EA90F850882850983A3A3A3A362
:10579300E0687003A3E0696022EE4F6011E508241E
:1057A3001AF582E50912582FEEF0A3EF800CE508F5
:1057B3002417F582E50912582FE4F01258331258D2
:1057C300488E828F837405F0A3E5107004E50C8086
:1057D300487401250C1258527A008028850A828564
:1057E3000B83E012584E850A82850B83A3E08E82D9
:1057F3008F83F0E50A2402F50AE50B3400F50BA3C9
:105803000EAF830AEAC3950C40D2120F0CEA12586A
:105813004E120F0CEB8E828F83F0AA08AB09120B8A
:10582300B274030248F4EE240CF582EF12584022BE
:105833001227AE12584022EE240BF582EF3400F506
:105843008322900334E0FEA3E0FF228E828F83F055
:10585300A3AE82AF832212391C120F7822C082C0FA
:1058630083E9C333FCE433FDEA2CFAEB3DFBEA2482
:10587300FEF582EB34FF124F7B0234B174F2120354
:105883006689098A0A1253FA400479008040750830
:105893000080020508E508C39509502AE508C333CB
:1058A300F8E433F9EE28F582EF39F583C082C0833B
:1058B300120F0C8A0C8B0DD083D082E0650C700420
:1058C300A3E0650D70CDE50A650870BE7901024D50
:1058D3007874F012036674F31208B58A088B098C86
:1058E3000A8D0B890C750D00120F90E97900600386
:1058F3000259D6AA08AB09120D86A90C120D7A8A91
:105903000E8B0FAE0EAF0FEE4F70030259D48E8283
:105913008F83A3A3A3A3A3A3E0A2E240030259D4CA
:10592300120F0CEA650A7003EB650B7011780D1208
:10593300080DE4F50EF50F780E1208098044AA0A43
:10594300AB0B120B64E964017068851882851983B7
:105953007404F07401120A9D1252A98518828519E4
:1059630083AA82AB83120B22E964017045750D0192
:10597300780D12080DE4F50EF50F780E120809756F
:105983000D00780D12080D780D12080D7408120A17
:105993009D85820E85830F780E1208099022CAE432
:1059A30093F9AC0AAD0BAA08AB09120D14740712D4
:1059B30008378E828F83A3A3A3A3A3A3E0A2E1400E
:1059C3000D8E828F83A3A3A3A3A3A3C2E2F0750DBD
:1059D30001A90D02427774F6120366E9FE790012FB
:1059E3000D86EEF9120D7A8A088B09A808A909E831
:1059F30049600612688DF98002790402389A74F6B8
:105A03001203667E0790035CE07034125A478A08DB
:105A13008B09A808A909E8496025900361E064019E
:105A230088828983A3A3700B125A4E88828983507C
:105A330001A3A3E0F9121098E9FEEE70027E07EECF
:105A4300F902389A12529A12107A22E0FA8882895D
:105A530083A3E0C39A2274EE120366EAFEEBFF8986
:105A63000A8C0C8D0B7412120A9D123674125B236E
:105A73001254015051890E750F007403780E1209E8
:105A8300807474250EF582740B350FF583E0F8E509
:105A93000CC398502DE50B60247511007403781026
:105AA300120980746E2510F8740B3511F9888289F8
:105AB30083A3A3A3A3A3A3E50C125B2DF079000298
:105AC3005040790380F979007AFE7BFF125B23E46F
:105AD3009365107004790280E6E50B60E0890E752A
:105AE3000F007403780E120980746E250EF8740B80
:105AF300350FF988828983A3EEF0A3EF125B2D1291
:105B030052C7E50C12424174FF12670CE50AF0908C
:105B13000366E088828983A3A3A3A3A3A3A3809C92
:105B2300120D74E9F5109022BD2212684FA3E50807
:105B3300F0A3E5092274F6120366ECFF120D7490CC
