:020000040000FA
:06000000020A950201C88E
:03002B000208D0F8
:0300330002063F83
:030043000207852C
:030053000200F9AF
:03006B0002061971
:1000830002015D0101FF01050301611061106110AF
:1000930061101D0F170F6110121E00000000D61E05
:1000A300000000000C0000000C00010000351200ED
:1000B3000000000000EF120000000000000000003C
:1000C30000FFFF0101010033050000008405E80380
:1000D30064006400B801020200080000050207057D
:1000E3001E02051E0A03B80B020102FFFF0296510E
:1000F300180002020612C0E074F21203E1A2AFE498
:1001030033FED2AFE5A7FFE5A1F5085F5410600603
:1001130012193775A1EFE5085F5408600812193DFD
:1001230075A1F7802BEFA2E0C0D0E508A2E092F022
:100133001209D2158182F05017906198E0F8900867
:100143005FE0C398A2D265D0335002E8F075A1FEF8
:10015300EEA2E092AF7F01020440C0E074F212030A
:10016300E1A2AFE433FED2AF9061A4E0F8759B0047
:10017300E59158540860087591F7121985802AE5AE
:100183009158541060087591EF12198B801BE8A2E7
:10019300E0C0D0E591A2E092F01209D2158182F07D
:1001A3005007E0C2E0F0121ACF9061A3E0F8E5E94E
:1001B300585404600E121AA575E9FB906193E0A2EE
:1001C300E640F2808BC0E074F21203E1A2AFE433A5
:1001D300FED2AF9061A5E0F8E5BF58540460067500
:1001E300BFFB121AE7020153C3E498F8E499F9122A
:1001F300022C8026C3E49AFAE49BFBE920E7E91288
:10020300022CE498F8E499F922C3E498F8E499F904
:1002130012022CE498F8E499F9C3E49AFAE49BFBFC
:1002230022EB20E7CFE920E7E0B90010BB0008E8A4
:100233008AF084F8AAF022E4FBC8FA22EB70227B4E
:1002430010C833C8C933C9335007C39AC3DBF2801C
:10025300069A50012ADBEAC833F4C8C933F4C9FA51
:100263002275F008E4C833C8C933C933C99AC99B96
:100273005004C92AC93BD5F0ECFBC833F4C8E4C920
:10028300FA22080808EAC0E0EBC0E086F0E7A4FA27
:10029300180986F0E7A42AFA180986F0E7A42AFACF
:1002A300180986F0E7A42AFA1986F0E7A4FBE5F01B
:1002B3002AFA190886F0E7A42BFBE5F03AFA1908A5
:1002C30086F0E7A42BFBE5F03AFA18180986F0E765
:1002D300A4C5F02BFBE43AFA1908E7C5F0C6A42637
:1002E300F6E5F03BFBE43AFA1886F0E7A4F6E5F00E
:1002F3000826F6E43B08F6E43A08F6D0E0FBD0E043
:10030300FA22E4CFC0E0E4CEC0E0E4CDC0E0E4CC28
:10031300C0E075F020C3E633F608E633F608E633AB
:10032300F608E633F6181818EC33FCED33FDEE331C
:10033300FEEF33FFC3EC9709ED9709EE9709EF97AB
:10034300191919400FFFEC97FC09ED97FD09EE977A
:10035300FE191906D5F0BEECF709EDF709EEF7091A
:10036300EFF7191919D0E0FCD0E0FDD0E0FED0E0A2
:10037300FF222518C582C0E0E51934FFC583C0E01C
:10038300E518C3958224F810AF0885831985821870
:100393008008858319858218D2AFCEF0A3E520F0BB
:1003A300A37808E608F0A3DEFAEFF0A3E58124FAC8
:1003B300F8E608F0A3E608F0A3E608F0A30808E6C9
:1003C30008F0A3E608F0A315811581D0E0FED0E084
:1003D300F8158115811581E8C0E0EEC0E022C0D098
:1003E3002518C582C0E0E51934FFC583C0E0E518D0
:1003F300C3958224F310AF0885831985821880087A
:10040300858319858218D2AFC8F0A3E9F0A3EAF077
:10041300A3EBF0A37908E709F0A3D8FAECF0A3ED76
:10042300F0A3EEF0A3EFF0A3D0E0F0A3D0E0F0A3AD
:10043300D0E0F0A3E520F0A3E5F0F0A32285198333
:10044300851882E0C0E0A3E0F9A3E0FAA3E0FBA3F0
:100453007808E0F608A3DFFAE0FCA3E0FDA3E0FEE2
:10046300A3E0FFA3E0C0E0A3E0C0E0A3E0F5D0A3D6
:10047300E0F520A3E0A3F5F010AF0885831985828A
:10048300188008858319858218D2AFD082D083D093
:10049300E0F8D0E032120AF7B900030204DAE4907C
:1004A300030178B6790A8002F0A3D8FCD9FA900C3C
:1004B300B6AA82AB83900086787479018015E493A1
:1004C300A3AC82AD838A828B83F0A3AA82AB838C95
:1004D300828D83D8E9D9E77582F87583897403120D
:1004E300084875827B75831D740012084875F010E7
:1004F3008E1A8F1B85821F85831E8518828519831B
:10050300E0CEA3E0CF851F82851E83EBC9EAC8ED49
:10051300CBECCAC3E833C8E933C9EA33CAEB33CBFC
:10052300C3EA9EF51DEB9FF51CB35004AB1CAA1D3B
:10053300EC33CCED33CDD5F0DAAE1AAF1B22D0833A
:10054300D082ECC0E0EDC0E0E493A3FCE493A3FD10
:10055300ED4C600D12065DEC24FFFCED34FFFD80D5
:10056300EFE493A3FCE493A3FDED4C600D1207307D
:10057300EC24FFFCED34FFFD80EFD0E0FDD0E0FC88
:10058300E493A3C0E0E493C0E02285198385188235
:10059300E0A3FEE0A3F5207808E0A3F608DFFAE085
:1005A300A3FFE0A3C0E0E0A3C0E0E0A3C0E0E0A3BA
:1005B300C0E0E0A3C0E010AF0885821885831980EE
:1005C30008858218858319D2AFD083D08202084E62
:1005D300D083D082E9C0E0E493A3C386F0C5F0954D
:1005E300F0F908E493A386F0C5F095F0700BE4935B
:1005F300A3C3994005E9048002A3E475F002A4258E
:1006030082F582E5F03583F583D0E0F9E493A3C066
:10061300E0E493C0E022C0E074F21203E1A2AFE48D
:1006230033FED2AFE589A2E1500312180B7589009E
:10063300C2C5EEA2E092AF7F01020440C0E074F2B3
:100643001203E1A2AFE433FED2AFE58BA2E0500385
:1006530012180B758B00C2E880D8C0E0C3E49396F0
:10066300087401939618400FE493667008087401A8
:1006730093661870007019A3A3C3E49396087401DA
:10068300939618A3A3400DD0E0D0E0D0E002057DFF
:10069300A3A3A3A3A3A3D0E022D083D082C5F0E475
:1006A30093A3C5F0C395F0F5F0E493A3C395F0408D
:1006B30005E5F0048001E475F002A42582F582E5E6
:1006C300F03583F583E493A3C0E0E493C0E02274A0
:1006D30004800474028000CCC0E0EDC0E0E518C3E0
:1006E3009CCCAD1950011D10AF068C188D198006D6
:1006F3008C188D19D2AF1207CAD0E0FDD0E0FC22CE
:1007030074028000CCC0E0EDC0E0E518C39CCCAD22
:100713001950011D10AF068C188D1980068C188D89
:1007230019D2AF1207A8D0E0FDD0E0FC22C0E0C090
:10073300F088F0E4936670080874019366187000FB
:10074300A8F0A3A3700BD0F0D0E0D0E0D0E0020576
:100753007DA3A3D0F0D0E022D083D082CCC0E0E44C
:1007630093A360061208291470FAE493A360061297
:10077300091A1470FAD0E0FCE493A3C0E0E493C038
:10078300E022C0E074F21203E1A2AFE433FED2AF81
:10079300C2C0E5D1A2E450031218ADEEA2E092AFBD
:1007A3007F01020440CAC0E0E493A3C582CCC582A2
:1007B300C583CDC583F0A3C582CCC582C583CDC512
:1007C30083DAE5D0E0CA22CAC0E0E0A3C582CCC583
:1007D30082C583CDC583F0A3C582CCC582C583CD35
:1007E300C583DAE6D0E0CA22700908080822601639
:1007F300181818C6C333C608C633C608C633C60896
:10080300C633C6D5E0EA22C008C3E096F50808A3BC
:10081300E096420808A3E096420808A3E09645083C
:100823007001D3D00822C0E0E493A3D39C5010E41A
:1008330093A3C39C400AD0E0D0E0D0E0020778A3A2
:10084300A3A3D0E022C09FF59FE473D09F22D0835F
:10085300D082C09FE493C0E0740193C0E07402931C
:10086300F59F227404800A74038006740280027464
:1008730001C0E0F404120881D0E0120AD222251844
:10088300F58210AF08F518400215198008F51840D5
:10089300021519D2AF85198322BB0102E722C08258
:1008A300C08389828A83BB0003E08002E493D08300
:1008B300D08222C0D0251810AF08F51850020519B0
:1008C3008008F51850020519D2AFD0D022C0E0C07D
:1008D300D0E8C0E0E5A8D2AFC2C7A2E792AFD0E0AC
:1008E300F8D0D0D0E0326016080808C6C313C61883
:1008F300C613C618C613C618C613C6D5E0EA22C364
:10090300E0C696F608A3E0C696F608A3E0C696F6F8
:1009130008A3E0C696F622C0E0E493A36C7009D066
:10092300E0D0E0D0E0020778A3A3D0E0222518109E
:10093300AF08F518400215198008F518400215197B
:10094300D2AF22E76670100809E766700A0809E764
:100953006670040809E76622E066701008A3E06683
:10096300700A08A3E066700408A3E06622C3E09659
:1009730008A3E09608A3E09608A3E096A2D265D068
:100983003322C3E096F008A3E096F008A3E096F0C4
:1009930008A3E096F022E026F008A3E036F008A3CF
:1009A300E036F008A3E036F022E627F60809E6373A
:1009B300F60809E637F60809E637F622E026F608D0
:1009C300A3E036F608A3E036F608A3E036F622C025
:1009D300E0E8C0E0E58124FCF8E6A2E7D0E0F8D047
:1009E300E022E647F60809E647F60809E647F6086F
:1009F30009E647F622E657F60809E657F60809E638
:100A030057F60809E657F622E056F608A3E056F62D
:100A130008A3E056F608A3E056F622E056F008A332
:100A2300E056F008A3E056F008A3E056F022700465
:100A330022600D18C6C333C608C633C6D5E0F41802
:100A430022E4C396F608E496F608E496F608E496DC
:100A5300F622600D08C6A2E713C618C613C6D5E072
:100A6300F322C6F4C608C6F4C608C6F4C608C6F41C
:100A7300C622C3E7960809E7960809E7960809E737
:100A83009622C3E09608A3E09608A3E09608A3E0A5
:100A9300962275D0007581407518017519030002FF
:100AA3000498E0F608A3E0F608A3E0F608A3E0F64E
:100AB30022600C08C6C313C618C613C6D5E0F422B9
:100AC300E6F008A3E6F008A3E6F008A3E6F022CADE
:100AD300C0E0E6F0A308DAFAD0E0FA22E0FAA3E0F5
:100AE300FBA3E0FCA3E0FD22EAF0A3EBF0A3ECF010
:100AF300A3EDF022E5C754F84401F5C77901222597
:100B030018F582E43519F58322C2AF75D69F02002A
:100B130000221208514DAD011208519CAF01120879
:100B230051EFB00112085192B101120851DDB20127
:100B3300120851FBB201120851AD5800120851BFFF
:100B43005800120851115900120851725900120825
:100B530051FC5900120851A05A00120851F45A00CE
:100B63001208510D5B00120851335B001208516EDD
:100B73005B00120851B25B00120851D95B001208E6
:100B8300512A5C00120851DA5C00120851925D0090
:100B93001208515A5E00120851375F00120851BD06
:100BA3005F00120851CC5F00120851D75F00120892
:100BB30051E06000120851F16000120851676100B2
:100BC300120851F9610012085151620012085117BD
:100BD30063001208513E63001208515C630012085F
:100BE30051AF6300120851F463001208510164000D
:100BF300120851956500120851F866001208511445
:100C030068001208517E6A00120851896A001208AE
:100C130051936A001208519E6A00120851A86A0093
:100C2300120851B26A00120851BD6A00120851C875
:100C33006A00120851F96A001208511D6B0012086C
:100C430051416B00120851A66B00120851EA6B0068
:100C5300120851066C001208517D6C00120851B540
:100C63006C00120851016D001208515E6D001208EC
:100C730051406F00120851C66F001208519770005F
:100C8300120851A77300120851FC7300120851286F
:100C93007400120851747500120851C475001208CB
:100CA300511976001208511A7700120851B27700D1
:100CB300120851347800120851D47800120851F800
:100CC30020001208513121001208510B2300120891
:100CD300514A230012085194230012085139240069
:100CE300120851982400120851CC240012085139DB
:100CF30025001208515626001208515E27001208DB
:100D030051F427001208513B2B00120851E42B0029
:100D1300120851C02C00120851212D001208513E17
:100D23002E001208516830001208511F31001208BA
:100D3300512931001208515C31001208512332004D
:100D4300120851BE32001208512333001208514CCD
:100D530033001208516E33001208519D35001208FA
:100D630051743600120851B8360012085125370065
:100D7300120851E037001208511238001208515678
:100D83003800120851893800120851DE3800120861
:100D930051333900120851C73900120851293A005A
:100DA300120851913A001208513A3C00120851229C
:100DB3003D00120851643E0012085192400012088F
:100DC300515241001208518143001208512444003A
:100DD3001208516244001208510E460012085122B3
:100DE30046001208512C46001208515646001208BC
:100DF30051624600120851814600120851384700DB
:100E030012085177470012085181470012085135E3
:100E130048001208513449001208512D4A001208A3
:100E230051CA4A001208516C4B00120851834B00FF
:100E3300120851BA4B00120851D84B001208511C2A
:100E43004C00120851414C00120851274D00120862
:100E530051934D001208510D4E001208511C4F00C2
:100E63001208515B5000120851BD5000120851770F
:100E730051001208519A51001208516E5200120883
:100E830051B95200120851FB52001208515253003B
:100E9300120851895300120851B75300120851F038
:100EA30053001208511554001208519D54001208A2
:100EB30051C056001208511F5700120851B3570072
:100EC3001208511F5800120851735800120851C5D7
:100ED300AD0312085104AE0312085140B4011208C5
:100EE300519AB401120851F6B40112085142B501E6
:100EF3001208515DB5011208518EB501120851ABAC
:100F0300B501120851B7B5011208512BB7011208E8
:100F13005144B701120851ABB701120851BEB701D2
:100F2300120851CCB70112085180B801120851645C
:100F3300B9011208516ABA01120851F0BA01120834
:100F430051FABA0112085167BB011208517EBB0165
:100F5300120851B0BB01120851E9BB011208511329
:100F6300BC0112085174BC0112085194BC0112084F
:100F730051B2BC01120851F8BC011208511EBE0146
:100F83001208516BBE011208519ABE01120851108A
:100F9300BF0112085138BF0112085171BF01120875
:100FA300517FBF01120851D7BF0112085126C0015A
:100FB30012085165C00112085195C001120851C1B0
:100FC300C001120851CCC001120851EAC001120835
:100FD30051ACC101120851B6C101120851F1C1014E
:100FE30012085107C20112085110C20112085165BB
:100FF300C20112085179C20112085187C3011208B4
:10100300519AC301120851AFC30112085151C401CF
:10101300120851D4C40112085192C5011208519DFE
:10102300C501120851C3C601120851DFC6011208D7
:101033005131C70112085170C70112085185C70108
:10104300120851C7C70112085114CA01120851925C
:10105300CA0112085105CB0112085127CD0112080C
:10106300513FCD0112085142CD011208514ECD011D
:1010730012085162CD011208516ACD011208519D27
:10108300CD011208514DCE01120851C3CE011208F1
:101093005136CF01120851EACF011208519FD001F6
:1010A300120851BED0011208515ED1011208516AD3
:1010B300D10112085195D10112085198D10112089A
:1010C3005102D2011208512AD30112085102D4014C
:1010D3001208518DD401120851A6D501120851638B
:1010E300D6011208519CD601120851CDD60112081F
:1010F300516DD7011208519DD70112085178D801BB
:1011030012085111D9011208519CD9011208514DED
:10111300DA01120851CFDA0112085101DB0112087A
:101123005142DB011208518CC202120851F1C20272
:101133001208512EC3021208517DC30212085193A3
:10114300C50212085176C702120851E0CA021208FA
:10115300511BCB021208513DCB02120851A0CB0206
:10116300120851D4CB02120851F7CB0212085124B2
:10117300CC0212085180CC0212085176AC0212083C
:1011830051F4AC021208512AAD0212085196AD0275
:1011930012085109AF0212085125AF021208516A11
:1011A300AF02120851F8AF0212085151B0021208EF
:1011B300517EB10212085190B202120851EDB202EF
:1011C30012085159B302120851BAB302120851FB63
:1011D300B302120851A8B402120851BAB502120898
:1011E30051E5B50212085130B60212085177B60222
:1011F30012085109B702120851C4B702120851FB71
:10120300AC0312085173A30312085184A3031208F9
:1012130051D5A3031208511AA403120851C4A403FD
:1012230012085184A903120851C29E031208511ACD
:10123300A0031208513BB802120851E0B802120889
:101243005100B90212085120B90212085134B902EF
:101253001208518CB902120851BCB9021208513D4F
:10126300BB02120851E3BB02120851C5BC021208AB
:101273005116BD0212085159BD021208519CBD02FC
:1012830012085102BE0212085123BE02120851AFC6
:10129300BE02120851E0BE0212085154BF021208E6
:1012A3005102C102120851DCC1021208511EC202CE
:1012B30012085178C202120851399B031208515A7D
:1012C3009B03120851909C03120851BA9C03120805
:1012D30051FCFC0212085176FD0212085181FD02F5
:1012E300120851A2FD0212085139A0021208513C02
:1012F300A002120851F6A00212085121A1021208FD
:101303005168A1021208518DA102120851AEA10227
:10131300120851E2A1021208511BA2021208514401
:10132300A3021208517BA3021208519BA3021208C5
:101333005136A402120851FBA40212085132A5022D
:10134300120851A7A6021208514AA70212085143D4
:10135300A8021208516CA802120851C0A802120870
:101363005186A902120851B4A90212085149AB02CD
:10137300120851CAAB02120851FDAB02120851CC3C
:10138300CC02120851D6CC0212085122CD02120807
:101393005176A301120851B1CD02120851C8CD02F2
:1013A30012085178CE021208510CD10212085115BD
:1013B300D10212085168D10212085191D1021208C8
:1013C30051F8D10212085189D202120851CBD2022C
:1013D30012085115D30212085174D3021208510591
:1013E300D40212085144D40212085183D4021208C1
:1013F3005156AC01120851CAD402120851DCD4026E
:10140300120851FBD40212085104D502120851BA32
:10141300D502120851FAD50212085184ED021208BE
:101423005157EE0212085171EE0212085182EE0278
:1014330012085197F002120851B6F0021208510730
:1014430099031208513D9903120851869903120812
:1014530051D69A0312085177DB01120851B6DC0109
:10146300120851F2DC01120851B1DE01120851DAFF
:10147300DE011208516DE101120851B1E1011208B8
:10148300513AE301120851D2E3011208513AE4013F
:10149300120851DBE4011208511DE5011208515DE8
:1014A300E501120851E8E60112085158E801120853
:1014B300517DEA01120851ABEA01120851D2EA0147
:1014C300120851DBEA0112085136EB01120851C927
:1014D300EB01120851E7EE0112085168EF011208FF
:1014E30051E7FF011208517AAD03120851808303BB
:1014F3001208519383031208513084031208516B6D
:101503008403120851868403120851AB8403120822
:1015130051F08403120851218503120851528503A7
:10152300120851D88603120851BC7E00120851F2EA
:101533007E001208510E7F00120851507F001208DE
:1015430051607F00120851F57F00120851C5F50262
:1015530012085188F60212085148F7021208515333
:10156300F702120851BE9002120851169102120896
:1015730051C09102120851689202120851C5920299
:101583001208511E9302120851E894021208516383
:1015930095021208518D95021208514A97021208BA
:1015A30051659702120851B49702120851CA970263
:1015B300120851D797021208510B980212085121B1
:1015C3009802120851A79802120851B698021208FD
:1015D300510F9902120851699902120851B79902E1
:1015E300120851C19A02120851439D02120851DD9B
:1015F3009D021208511F9E02120851B49E02120846
:1016030051D19E02120851D49E02120851D79E0254
:101613001208514A9F02120851659F021208519104
:101623009F02120851CC9F02120851CF9F02120849
:1016330051E29F0212085109A00212085178AC032B
:1016430012085184AC03120851BEAC03120851C5F1
:10165300EF01120851F0EF01120851BCF00112081A
:101663005141F101120851AAF101120851F6F10199
:1016730012085175F20112085107F3011208519330
:10168300F301120851D5F30112085141F801120870
:1016930051C1F90112085100FA01120851C9FA01A6
:1016A3001208517DFB011208512DFD01120851B999
:1016B300FD01120851008002120851BA800212087B
:1016C300512C81021208513B8102120851B581024B
:1016D3001208512482021208512E83021208515714
:1016E3008302120851F7830212085145840212083B
:1016F30051B58402120851E98502120851C58602C8
:10170300120851368702120851B388021208517524
:101713008902120851108A021208516B8A021208B8
:1017230051D68A02120851DA8B021208519B8D029C
:101733001208513A8E02120851AC8E0212085169F6
:101743008F02120851BD8C03120851118D03120828
:1017530051698D03120851B48D03120851168E037B
:10176300120851AF8E03120851178F031208512329
:101773008F03120851B19603120851E2960312081F
:10178300519C97031208510298031208517398034E
:10179300120851838A031208510F8C0312085177E0
:1017A300AA0312085188AA0312085128AB0312088E
:1017B300510A9D03120851189D031208511DAF03CE
:1017C300120851E2AB03120851F2AB031208510D98
:1017D300AC031208516EAC0312085182A80312081D
:1017E3005107A9031208516BA903120851F6A1036B
:1017F30012085118A2031208517BA2031208519B2D
:10180300A203120851E1A2031208513CA3031208D8
:10181300510FF20212085124F2021208513DF30251
:101823001208517EF30212085198F302120851383C
:10183300F402120851ACF402120851C6F402120861
:1018430051D9F402120851E7F40212085101F502CA
:1018530012085118F50212085142F502120851906C
:10186300F50212085172F90212085180F9021208A6
:1018730051FAF902120851DEFA0212085197FC02DA
:10188300120851DDAE03120851877900120851F492
:101893007900120851B57A00120851257B0012080D
:1018A300512E7C00120851A67D001208510A7E00B9
:1018B3001208515F7E00120851687E0012085177AA
:1018C3007E001208518A7E00120851A07E00120881
:1018D30051A97E001208515FDF02120851B4DF02E2
:1018E300120851B0E102120851E2E1021208510458
:1018F300E2021208511DE20212085136E2021208F6
:101903005140E302120851DBE302120851DBA40346
:10191300120851FFA40312085118A5031208514BD2
:10192300A5031208517CA503120851AAA5031208A6
:10193300510CA6031208511BA60312085125A60336
:1019430012085132A6031208515E8F031208518404
:101953008F03120851C18F03120851D08F0312084D
:1019630051EF8F03120851579003120851609003EF
:10197300120851BF9003120851E39003120851A2B9
:101983009103120851AF9103120851C09103120839
:1019930051BDFF02120851DAFF0212085152E4024C
:1019A300120851B0E502120851BDE502120851D0E8
:1019B300E502120851EFE50212085105E60212088A
:1019C3005119E6021208518EE602120851F3E6029B
:1019D300120851A3E70212085178E802120851884D
:1019E300E80212085197E80212085149AB031208A2
:1019F300516DAB0312085195AB03120851BDAB03F4
:101A0300120851EE91031208511592031208513630
:101A130092031208519B9203120851549403120823
:101A2300516D94031208517994031208518D940354
:101A3300120851AB9403120851B59403120851BF15
:101A43009403120851D294031208512595031208E6
:101A5300515E95031208518D9503120851DB9503CE
:101A63001208512A96031208514596031208514F42
:101A73009603120851609603120851A696031208A2
:101A83005196FF0112085123D6021208514DD60276
:101A930012085169D6021208517CD60212085192DB
:101AA300D602120851EFD60212085122D7021208A9
:101AB300515EDB0212085184DC02120851B7DC02CA
:101AC30012085103DD021208512FDE02120851578A
:101AD300DE021208516CDE021208517CDE0212088B
:101AE30051C0DE0212085121DF0212085131DF0218
:101AF3001208513CA60312085157A603120851803D
:101B0300A6031208519AA603120851BFA60312088E
:101B130051DEA603120851F6A60312085124A703A7
:101B23001208513EA7031208510EAE0312085100CA
:101B3300800312085107800312085113810312080E
:101B4300514381031208516981031208518C8103A7
:101B5300120851AE8103120851E881031208514E55
:101B63008203120851878203120851D38203120899
:101B73005100830312085120830312085169A00303
:101B83001208517BA00312085166A103120851F3F6
:101B9300A1031208516FA703120851E1A70312080A
:101BA300511FA80312085160A803120851E58603C8
:101BB3001208510187031208515087031208516C10
:101BC30087031208519D8703120851AD870312083A
:101BD30051998803120851A38803120851B088034E
:101BE300120851C08903120851D48903120851DD28
:101BF3008903120851D0E80212085115ED021208A8
:101C0300511AED0212085188AE0312085152AE0365
:101C1300120851B5AE03120851FFAE03120851CAA0
:101C2300A2011208511BA101120851D69E011208EC
:101C3300515D9E01120851049E01120851989D01A5
:101C43001208516F9D01120851629B011208512E17
:101C53009B01120851FB9A01120851DF9A011208E5
:101C630051059A01120851BD9901120851F29701C9
:101C73001208517297011208516F97011208517699
:101C830096011208514496011208518195011208D8
:101C930051AC93011208513D93011208510F930166
:101CA3001208513AAC01120851E6AB011208519ED9
:101CB300AB01120851DCAA011208514FAA01120804
:101CC300510C9301120851F992011208519192019A
:101CD30012085180920112085142AA01120851615F
:101CE30091011208512B9101120851EE9001120833
:101CF300518F900112085150A701120851B8D40214
:101D03001208515E9001120851198D011208510AEF
:101D13008C01120851998B011208515E8B01120834
:101D230051298B011208511D8B011208517D8A0123
:101D3300120851C4890112085197870112085123CF
:101D43008501120851E18401120851AC8301120884
:101D530051618301120851938201120851EA8101F2
:101D6300120851868101120851C08101120851A243
:101D7300A40112085190CD0200000080FBE473001F
:101D830001363601010001020100010301000104D3
:101D930001060605020000070100340801000F09CF
:101DA3000401010D0100FF0E0800001702000019D5
:101DB3000100FF1A0100011B0100FE1C0100081DA8
:101DC3000200001F01000120010001210200002385
:101DD30001000F240200002601000127010008284A
:101DE3000200FF2A0100072B0102402C0100002DF5
:101DF3000100012E0100012F0100FF30010B1C31F6
:101E03000800003A0100083B01000F2F0100000306
:101E13000071003001600011007000310220035096
:101E2300048000100061000000140063007300725E
:101E330000620043000000130006000000000004DD
:101E4300001200000000000000000004000400373E
:101E53000037003C02440000000000000000006561
:101E63000000003500810000000500000083000031
:101E730000030271023001600211027002010202CA
:101E83000202028002100261023A004100630273FF
:101E930002720262024302000213023800000200CF
:101EA3000204021202000200020002000204020401
:101EB30002370037003C02440200023900000200EE
:101EC30002650200023502810200020502820283DA
:101ED3000200020103710301030103010301030172
:101EE30003220302030103100300030003000300A2
:101EF300030003000300034203000324030603005B
:101F0300030003040312032503230325032303040C
:101F1300030403000300030003440300030003233B
:101F23000300036503210035038103000305030058
:101F3300030003000301017101010101011101010A
:101F4300013101010101018001100161013B001414
:101F53000063017301720162014301000113010671
:101F6300013D0135000401120100010001000100DF
:101F73000104010401330133013C01440132013600
:101F83000000010001650100013500810100010528
:101F93000182018301000136000100060000000FE9
:101FA3000000000000000000000000000003FFFF2D
:101FB30000000403FFFF0000FFFF0FF4010005C44E
:101FC300040320000100000B0000000000000000DB
:101FD30003010F0100F1160200671603006D1604DA
:101FE300007316050079160600851611009D161458
:101FF30000A31615009716FFFF000003EAF5E5D5C9
:10200300D5C5B5A5959585857575656555554545BD
:1020130035352525151505770FA70F7D0F830FA1DF
:102023000F950F8F0FAD0FB30FB90FC50F890F7139
:102033000F6B0F0A430D020D0D051F0D07130D0C3A
:10204300EF0C0D010DFF000000160F00000B150B28
:10205300020002220F320000066110731079104152
:102063000F7F103B0F470FC110DF10E510C710D3D0
:1020730010CD100C0E020B040B0A0708000F3030B2
:1020830016181920231A1C1E3000011916181616CB
:102093001523030000034948424D18172505020084
:1020A300383C3E363B3B352B432C30301718192137
:1020B300301B1D1F30B51085108B10971091109B8E
:1020C3000FBF0FD910CB0FD10F0204020101010181
:1020D300090200000000000000BE040A0E00E8032D
:1020E30004001500280008040C05030908FF1E1E40
:1020F3000A040F100C74F7120375E99003B1F09002
:102103000366E4F0121B7D9003B6E4F0A3F09003A2
:10211300B2F0A3F0120E7B121B83900335E4F0A3FD
:10212300F09020F593FA7902121BE3024D8E74F2BC
:10213300120375EAFEEBFF548060699003B1E0F986
:102143001213C18A088B09EA4509604F7C0080019C
:102153000CEC75F003A4F8A9F0743628F58274200A
:1021630039F583E493F4602CE493F88508828B8338
:10217300E06870DCAA08EC75F003A4F8743728F55E
:1021830082742039F583E493C0E0740193F583D01E
:1021930082121D80AA08AB091213B5EEFAEF648010
:1021A300FB0222FEEF5420601D120D9D8A088B094D
:1021B300EA4509600A120D01AA08AB091213B5EE2C
:1021C300FAEF642080DAEEA2E0501A90036BE06429
:1021D3000F700B7900120CCBE96003122301EE643C
:1021E30001FAEF80BB542070030222CC750C00125D
:1021F30037D38B09EA450970107C027D007A207B76
:10220300009003B1E0F912150B7C0079047A007B8E
:1022130000120D798A088B09801885088285098345
:10222300A3A3A3A3A3A3A3A3A37401F0850A08856F
:102233000B09E5084509606D7C007904AA08AB0920
:10224300120D798A0A8B0B750C01E5082404F8E555
:102253000912357724FFF0A3E034FF12586A70CCDB
:10226300850882850983A3A3A3A3A3A3A3A3A3A3ED
:10227300E0640170A5850882850983A3A3A3A3A3B2
:10228300A3E054047094850882850983A3A3A3A3C0
:10229300A3A3A3A3A37406F07AB785088285098351
:1022A30012242D8087120D497C0079017A007B006E
:1022B300120D798B09EA45097009E50C70057A203E
:1022C30012472DEE64200221E4EF5402600B120E3C
:1022D30075EEFAEF64020221A3EF54046019124869
:1022E300C41247E47901900364124B48120C11EEB7
:1022F300FAEF64040221A37A007B00022534900DD7
:1023030001122BCB120CE322C082C08374EA1209A0
:1023130030851882851983AA82AB83794B121BB946
:102323007408120B027402F07409120B02AA82AB36
:10233300837950121BB97413120B02E4124D171256
:102343001BD77416023CF174F712037574E112097A
:1023530030EAFEEBFFEE4F6033851882851983ACBC
:1023630082AD83120DC17406120B02E0601E741756
:10237300120B02E0FD7401120B02E0FCEEFAEFFB1C
:102383007900120B2DE9600479A480027900024DD3
:102393008974F6120375EAFEEBFF8E828F83A3A383
:1023A300A3A3A3A3E05440601B1252061224FB60B4
:1023B300067AFF7BFF801A8E828F8312397DFAA300
:1023C300E0FB8003120DE574FE6A700374FF6B601B
:1023D30041125206124771120E39E98E828F8360C1
:1023E30006122426E480051224267401F07CD17D94
:1023F3000C8E828F83124B48121BDDE9F508701592
:10240300EE4F60097901EEFAEFFB120D55A90802B0
:1024130047A27508CDAA088E828F8312242DE96006
:10242300DF80EAE0240D123E4C22E0240C123E4CE5
:10243300E0F9120CDD2274F6120375E9FEEAFF7A65
:102443000F7B001213AFEA4B60198A828B83740CE3
:10245300F0EEA3A3F0EF8A828B83A3F01247CD792A
:1024630000802FEEF9120D7F8A088B09A808A909AD
:10247300E849601C88828983A3A3A3A3A3A3A3A37E
:10248300A37406125491E0F9120C95EEF9120D5B48
:1024930079100247A2C082C08390036BE0640F707F
:1024A30014EA4B6010900366E064086005E064047E
:1024B30070031224BB023D1BEAFCEBFD7A017B0097
:1024C3009003B1E0F912150522C082C0837900EAB6
:1024D300241DF582EB12397A24FD600B1460082465
:1024E300FD600424FD700109023D1B8E828F83A3CE
:1024F300A3A3A3A3A3A3A3A31224FF221239C2FB62
:10250300120E39E9228E828F83A3A3A3A3A3A3A3CD
:10251300A3A31224FF6402228E828F83A3A3A3A307
:10252300A3A3A3A3A3123D12900357E068221208AA
:10253300B67F0602058D74F412037574FD1209301B
:102543008A088B098A828B83A3A3E0F9120D7F8A01
:102553000A8B0BAE0AAF0BEE4F70030226408508C1
:1025630082850983A3E064F160308508828509834D
:10257300A3E064CD6024850882850983A3E0641AFF
:102583006018850882850983A3E064E9600C8508E7
:1025930082850983A3E064E170087900120D55E98F
:1025A300706C850882850983A3E0C0E07402120B76
:1025B30002D0E0123CF6EEF0A3EF12302185188230
:1025C300851983AA82AB837005120BF98003120E5F
:1025D300217402120B02E064E970338E828F83123E
:1025E300264C750A01780A120872750AE9780A12EC
:1025F3000872E508240CF582E509122B13122FFE4D
:10260300FCA3E0FD8A828B831230181208B68E82F7
:102613008F83A3A3A3A3A3A3A3A3A3E06402701024
:102623008E828F83A3A3A3A3A3A3A3A3A37406F060
:10263300850882850983A3A3E0F9120D5B120D4976
:10264300900D05122304022BD0E0F8A3E0F9E8FA79
:10265300E9FB2274F4120375EAFEEBFF7508008EA2
:10266300828F83A3A3A3A3A3E060427508088E828D
:102673008F83A3A3A3A3A3A3A3A3123C258B0BEA3A
:10268300450B601075082C8E828F83A3A3A3A3A38D
:10269300E0D2E0F08E828F83A3A3A3A3A3E054032D
:1026A3006401600302273F43081102273FEE241809
:1026B300122BDD6033EE241A122BDD700F12251B53
:1026C3007003A3E06970757508228070EE241BF512
:1026D30082EF122744241AF582EF123029EE2419CF
:1026E30012523A120C8380541225087003750801A4
:1026F30012251B7003A3E0697006E508D2E1F50813
:10270300E50860158E828F83A3A3E07006E508D2E7
:10271300E58004E508D2E6F5081224EE64017006AC
:10272300E508D2E0F5088E828F83A3A3E0600D1243
:10273300275264016006E508C2E0F508A908022BE8
:10274300D512396812274B22E0FCA3E0FDEE2212DA
:10275300396212399AF9120E27E922C082C08379AD
:10276300018A828B83A3A3E0C394024001198A8266
:102773008B83A3A3A3A3E0C39402400279008A82BC
:102783008B83A3A3A3A3A3A3A3A3A3E064F87003CE
:10279300A3E0F460458A828B83A3A3A3A3A3A3A38B
:1027A300A3A3E064F97003A3E0F4602E8A828B8311
:1027B300A3A3A3A3A3A3A3A3A3E064FA7003A3E027
:1027C300F460178A828B83A3A3A3A3A3A3A3A3A3C6
:1027D300E064FB7003A3E0F4700279008A828B83C8
:1027E300A3A3A3E0F8900354E06860027900023DDC
:1027F3001B74F012037574DE120930EAFEEBFF8ED0
:10280300828F83A3A3A3A3E0600E900D03124799C5
:102813006006900D031223047403120B02AC82AD05
:10282300838E828F83A3A3A312481B125054E960A3
:102833000F7403120B02AA82AB83120CFBE970081C
:102843007901121B8F022B08EE241B12396D7410B1
:10285300120B021247E47409120B02E06021741A8E
:10286300120B02E0FD7404120B02E0FC8E828F83D4
:10287300124B467901120B2DE96004790280C3746F
:1028830003120B02AA82AB83120CF5E9F50A740951
:10289300120B02E0702A90034EE060247422550A62
:1028A3006422601C7442550A644270CF7420120B78
:1028B30002122B26600A7420120B02122B1F70BB0C
:1028C300E9A2E650417403120B02AA82AB83120CF5
:1028D300E9E970030228437420120B0212397D6464
:1028E30003700F7420120B02A312478BA3E0640D35
:1028F30060147403120B02AA82AB83120E4BE964B9
:10290300017003022B08EE242C122B10122E3470AC
:1029130003A3E069701C7508007808120872780830
:10292300120872EE242E12523A122B2C1230181265
:1029330008B67409120B02E070030229E5122B2C6E
:10294300124B48120E9F8A088B09EA45097003024D
:102953002A827404120B02E0F88E828F83A3A3E011
:1029630028F8A3E03400F9E8240D122B178A828B90
:1029730083A3A3A3E068601CE88A828B83A3A3A339
:10298300F0908143120ADF850882850983A3A3A3FC
:10299300A3120AEB7904E9120B021250312AF8A3AD
:1029A300E034008882F583A3AA82AB8312139D8A45
:1029B3000C8B0D8C0E8D0F850882850983A3A3A331
:1029C300A3780C12080A4003022B0890817B780C31
:1029D3001209BF850882850983A3A3A3A3780C12D8
:1029E3000AC3900366E064046008E06409600302BC
:1029F3002B08E50AA2E54003022AC0EE242E122B7F
:102A0300DD851882851983F0EE242F122BDDC0E0BB
:102A13007401120B02D0E0F0EE2430122BDDC0E083
:102A23007402120B02D0E0F07414120B02E0640182
:102A33007027740E120B02123973EE2412122BDD5F
:102A4300687003A3E0697011740C120B0212251550
:102A530070077414120B02E4F0EE2424122B1012EC
:102A630006D27404120B02AC82AD837407120B02FC
:102A7300AA82AB83120BFF74041208B6022B0890D0
:102A830003ABE0640160030229E57420120B021218
:102A93002B267009E50AA2E650030229E5741012F9
:102AA3000B02E0F47003A3E0F4605AEEFCEFFD7454
:102AB30003120B02AA82AB83120D078048A2E650D1
:102AC300447420120B02124B57701A741A120B0221
:102AD300E0640270307403120B02AA82AB837900A4
:102AE300120E1580207420120B02122B1F70167405
:102AF3001A120B02E06404700C7403120B02AA8214
:102B0300AB83120E0F7422024F03EE240BF582EFF8
:102B130012396822F582E91247FDF822125218E0B1
:102B230064072212399A640622EE242A12396512A6
:102B3300274B24121239652274F4120375EAFEEB53
:102B4300FF8C088D099005E1E0600F12251B7003CF
:102B5300A3E0697005120C71804F7900124B3B1290
:102B63000CA18A828B83E58245836035A3A3A3A34B
:102B7300A3A3E05418602AE508241BF582E5091293
:102B83002B131206D6123211122B131206D6EE2471
:102B93001812523A122BAE120CB374041208B680F8
:102BA300087900122BAE120C7780278E828F83A3B5
:102BB300A3A3A3A3A3A3A3A312274B240BF582EFE1
:102BC300122BC7223400F5831239C2FB227403127D
:102BD30008B67F0402058DEE2417F582EF1247FD38
:102BE3002274F712037574F7120930EAFEEBFF90B3
:102BF3000366E06403600DE064016008E06409605B
:102C030003022CAE8E828F83A3E0707E7C007D0056
:102C13007A027B00121B89EE2402FAEF12357E1230
:102C230039739003571247E47953121BBF7900128B
:102C33002CB3E0640960031230468518828519833A
:102C430074011247BA9003667404F07401120B0204
:102C5300AA82AB83794A121BB97401120B02AC82AC
:102C6300AD837A5C7B03121BA790035712504A7AF9
:102C730003123050900351E0A2E35004D2F08002DB
:102C8300C2F01247A7122301801E8E828F83A3AE48
:102C930082AF83FC7D007A037B10121B898E828FA7
:102CA30083E0F9122CB3E4F0120D317409024D8B59
:102CB300900364122BCB120C1190036622C082C0C6
:102CC30083900335124799701F900366E0146009DF
:102CD30024FC600A14600C800F90033D8032900343
:102CE30039802D90033B8028E84960089003361211
:102CF3002FF8700C8A828B83A3E0F9120C05801BDA
:102D03009003361232AD7005120E69800E9003D314
:102D1300124799600612478B121D80023D1B74F403
:102D230012037574FB1209308A088B097A0F7B0032
:102D33001213AF8A0A8B0BAE0AAF0BEE4F7003026E
:102D43002E288E828F83124D157950121BB9850858
:102D530082850983A3E06003022E10900364E0F4EC
:102D63007003A3E0F46034900364E064FE7003A393
:102D7300E0F46027851882851983122E347003A32B
:102D8300E0696017850882850983A374EA12302EEF
:102D93007A647B037950121BBF8072851882851970
:102DA300831251F91247E47A577B037953121BB903
:102DB3009003571248151247E47A5A7B03794B1252
:102DC3001BB97A597B0379E1121BB990036BE0C3FA
:102DD300940F5021900359E0C0E07402120B02D00B
:102DE300E0F07404120B027401F004120B02AA82C5
:102DF300AB83121BD1750A00780A120872780A1283
:102E03000872900D27E0F912300F1208B685088278
:102E1300850983122E2DA3F09003667403F0EEFA56
:102E2300EFFB1247CD7405022BD2A3E08E828F8372
:102E3300221251FDE06822123E532274F5120375EB
:102E430074D81209308A088B098A828B83A3A3A3BF
:102E530012399F7415120B02AC82AD838A828B8365
:102E6300A3A3A3A3A3A3A3A3122FFEFAA3E0FB127E
:102E73000D377415120B02E0706B85088285098388
:102E8300A3A3A3A3A3A3A3A3E0C3940B40578E823E
:102E93008F83A3A3A3A3A3A3A3A3E064027046EE1B
:102EA300240B122BDDF4703D900366E06402603A5C
:102EB300E0640660359003351247996005122FF8D8
:102EC300604F900366E064086005E0640470167464
:102ED30017120B02E0F9741C120B02AC82AD8312C1
:102EE3004B3B120D3D742802571790033512479937
:102EF300701F75080078081208727808120872EEBD
:102F03002410122B10125252123666123018120865
:102F1300B68E828F83124AB71235901239737402B8
:102F2300120B021247E4EE240D122BDDC0E07404F1
:102F3300120B02D0E0123021F508A3E0F509740F5B
:102F43007808120AB47405120B02E508F07419121A
:102F53000B02E0C0E07406120B02D0E0F0741B1207
:102F63000B02E0C0E07407120B02D0E0F0741612FB
:102F73000B02E0C0E07409120B02D0E0F0741712E8
:102F83000B02E0C0E07408120B02D0E0F0EE241054
:102F9300122BDDC0E0740A120B02D0E0F0741A1297
:102FA3000B02E0C0E0740B120B02D0E0F0742712A6
:102FB3000B02E0C0E0740C120B02D0E0F0741C12A0
:102FC3000B02A982AA8389088A09750A0078081264
:102FD300086A7C087D007410120B02AA82AB83126C
:102FE30043481208B6851882851983AA82AB8312D7
:102FF3000C0B022EE81232B3640122E0F98A828BB1
:1030030083A3A3A3A3A3A3A3A3A3E0229003641274
:10301300504E90035A122BCB120DF7740222F0EE8E
:10302300240B1247FA221247FDFA22F07A577B0348
:10303300795312303922121BBF7A5A7B03794B1210
:103043001BBF22900364122BCB120E99227B00121A
:103053001B8990035A12504E7A047B00121B89225B
:10306300F012525D2274F212037574F8120930EAF9
:10307300FEEBFF8C0A8D0B890C851882851983ACB6
:1030830082AD8375838175821474081207CAF50DA6
:10309300EEFCEFFD851882851983AA82AB83124A61
:1030A300187003750D019003B2803BEEFCEFFDE554
:1030B30008240BFAE5093400124A17601E850882BA
:1030C300850983A3A3E0650C7011850882850983B4
:1030D300E0650A7004A3E0650B6038E5082414F585
:1030E30082E509122B13123588E50845096024E5AA
:1030F3000DA2E040B6850882850983E0650A700465
:10310300A3E0650B70D5850882850983A3A3E065D9
:103113000C70C8AA08AB097408022531C082C083A9
:103123009003B2023D1874F71203759003B212397B
:10313300C28012EA2414F582EB122B1312399F1268
:103143001451EEFAEFFBEA4B70E99003B2E4F0A3FB
:10315300F0024D8E7F0702058D74F1120375EAFEAE
:10316300EBFF890A8C088D098E828F83E08C828D18
:1031730083123C2FAE82AF83E0124408124379C41A
:1031830012440812321AE054038C828D831243775F
:10319300A2E2E4338C828D83124376131313541FFC
:1031A300124408124375A2E7E4338C828D83A3A3F0
:1031B300A3A312321A8E0C8F0D750E00780C120811
:1031C3006A7C087D00E5082407124FBD1208B61279
:1031D30050288E0C8F0D780C12086A7C037D00E555
:1031E30008240F124FBD1208B6E50AC3940F40140A
:1031F3008E828F83A3A3A3E0C0E0123211122B139C
:10320300D0E08006123211125485F0023157E508DE
:103213002412F582E50922A3A3123C330EAF8322C5
:1032230074F412037574F9120930EAFEEBFF89088E
:10323300900335124799600E1232AD7009EEFAEF22
:10324300FB120E63805F900364E06E7003A3E06F74
:1032530070537401650860097A787B03124A187009
:10326300447A007B021237D78B0BEA450B703690FA
:103273000367120ADF851882851983120AEB90030C
:103283006DE0C0E07404120B02D0E0F07405120B81
:10329300027401F07406120B02124D15120BC9E9E8
:1032A300609B120BCF7407022BD21232B36402223B
:1032B300125219A3A3A3A3A3A3E02274F5120375C7
:1032C3008A088B098A828B83A3AE82AF83E0F912CB
:1032D3000C298E828F83E064EB600C85088285095C
:1032E30083A3E064E17009850882850983A3E4F080
:1032F300122301750A01780A12087285088285096A
:1033030083A3E0F5087808120872790012300F12CF
:1033130008B6120D4902571AEAF0A3EBF0023D1B5F
:1033230074F61203759003B5E0701B7C0079017A83
:10333300007B00120D79EA4B600C8A828B83124763
:10334300996003120CD70247A2C082C0831237BF11
:10335300401079FF120D73E9F89020F7E493C398B6
:103363005004790180027900023D1B74F012037549
:103373008A088B09890B750C008A828B83A3A3A30C
:10338300A3A3A3A3A3E0F9120D7F8A0E8B0FAE0EA6
:10339300AF0F750A01EE4F600302344C8508828536
:1033A3000983A3A3A3A3A3A312504A850882850973
:1033B30083A3A3A3A3A3A3A3124148124B48120DB3
:1033C300678A0C8B0DAE0CAF0DEE4F700302356F99
:1033D3008E828F83A3A3A3A3E4F0A3F0E508240BB9
:1033E30012357BE0C0E0122B0DD0E0F0120E3FEE61
:1033F300240CF582EF12476DE508240EF582E509EA
:10340300123970EE240EF582EF1247E1750C01EECE
:103413002406F8EF123577547FF0A3E054FC1252E0
:10342300AFE0540460030234D2900D0912413974A1
:10343300077808120A318E828F83A3A3A3A3A3A3C1
:10344300E04508F0A3E04509F08E828F83A3A3A390
:10345300A312358674077808120AB4E5085407F5F1
:1034630008E50B607A8E828F83A3A3A3A3A3A3A3F0
:10347300A3A3740212437A240D123E48E0A2E25041
:103483000B900352124815A3A31247E4E5087003F7
:10349300023544EE2406F8EF3400F9E8FAE9FB8A32
:1034A300828B83E0547FFCA3E054FCFDE50824FFFA
:1034B300F508E434FFF50974077808120A31EC457E
:1034C30008F8ED4509F98A828B831247E480728EEE
:1034D300828F83A3A3A3A3A3A3E0448002344BE579
:1034E300087005750A0080598E828F83A3A3A3A356
:1034F300A3A3E0542060121213A9EA547F245F8E21
:10350300828F83A3A3A3A380238E828F83A3A3A3EA
:10351300A3A3A3E05410600A1213A9EA540F240AC8
:1035230080DD8E828F83A3A3A3A37401F0A3E4128F
:10353300359074041237CE8B09EA4509700312479C
:1035430060E50CA2E050288E828F83A3A3A3A3126D
:103553004D7BF9EEFAEFFB120D6DE9601212478F06
:103563006003123958EEFAEFFB121451750A00A9E1
:103573000A024F061248D822FAE5093400FB8A8270
:103583008B8322A3A3E0F508A3E0F5092212359467
:1035930022124FD9A3A3A3A3A32274F41203757415
:1035A300F71209307E00120D7FEA4B700302365F7B
:1035B3008A828B83A3A3A3A3A3A3A3A3A3E06406E9
:1035C300600302365F8A828B83A3A3A3A3A3A3A36F
:1035D300E0FF8A828B83123E5BE0C0E07408120B2B
:1035E30002D0E0123993124A1E1247E4120D91EFF2
:1035F3005408606685188285198312504A7A007BC5
:1036030000120D618B0BEA450B704F900364123A65
:1036130083121BE97C007D007A007B0080288E8268
:103623008F8312397DF47003A3E0F4602D9003645B
:10363300123666124B481218DDE9641A601C7C00CE
:103643007D00EEFAEFFB120D618A0A8B0BAE0AAF17
:103653000BEE4F70C97900121BEF7E01EEF974096E
:10366300022BD212366A22E0FCA3E0FD8E828F8306
:1036730022C082C083EA4B70059003B680068A821B
:103683008B83A3A312388360258A828B83A3A3A38E
:10369300A3A3A3A3E0540860E5EC4D60158A828BD5
:1036A3008312397D6C7003A3E06D70D280047A00BD
:1036B3007B00023D1B74F2120375EAFEEBFF890ADD
:1036C3008C088D097A107B0012144BEA4B603F8AF9
:1036D300828B83A3A3A3A3A3A3A3A3A3E4123981EC
:1036E300A3E50A12521FA312371B8A828B83A3A35B
:1036F300A3A3E4F0A312398DA3F01250B3EA240C70
:10370300F582EB123C1F123714A3A3F0A3F002259A
:1037130034A3F08A828B8322A3A3E508F0A3E509EF
:10372300F02274F4120375EAFEEBFF89088C0A8D0C
:103733000BEE4F60557401650870147901120D7317
:10374300E9F89020EFE493C398500F7911806A74DD
:10375300046508702F1237BF40F18E828F83A3A3B5
:10376300A3A3A3A3A3A3A3E508123C2FA31257A4C7
:103773008E828F83A3A3E4F0A3F09003B61247993C
:103783006021800D7402650860D079C1802BE0F858
:10379300A312480EA3A312388388828983A3A3703C
:1037A300ED80039003B6EEF0A3EF1237CE8B0BEA56
:1037B300450B70031247607900022BD57904120D73
:1037C30073E9F89020ECE493C39822F01237D322E4
:1037D3007A207B009003B1E0F912151722C082C052
:1037E30083E9F879009003B6801D8A828B83A3A3B3
:1037F300A3A3A3A3A3A3A3E068600574FF68700158
:10380300098A828B83A3A312388370DE023D1B7463
:10381300F7120375EA4B70059003B680068A828B14
:1038230083A3A312388360248A828B83A3A3A3A3D5
:10383300A3A3A3A3A3E06970E4EC60148A828B833F
:10384300E0240D12503BA2E240D380047A007B00B7
:10385300024D8EC082C0839003B680068A828B831A
:10386300A3A312388360128A828B83A3A3A3A3A387
:10387300A3A3A3E06970E580047A007B00023D1BEB
:10388300122BCBEA4B2274F21203758A0A8B0B8C30
:103893000C8D0D750800750900EA450B602E900329
:1038A300B680068E828F83A3A31238D6601EAC0C1B
:1038B300AD0DEEFAEFFB850A82850B83121D80E9BD
:1038C300640170DFEEF8EFF988088909AA08AB09EB
:1038D300022534E0FEA3E0FFEE4F2274F7120375D6
:1038E3009003B61239737C007D00800DE8FCE9FD7E
:1038F30088828983A3A3123973E8496030EA687028
:1039030002EB6970E79003B6124B48E86A7002E96C
:103913006B88828983A3A370081239739003B680DE
:10392300091239738C828D83A3A31247E4024D8E4F
:1039330074F7120375EAFEEBFFEE4F6015120D8B61
:103943001239A512478F6003123958EEFAEFFB12B2
:103953001451024D8EEE240C1239651239BA22EE3F
:10396300241DF582EF3400F58322F582EF123968C6
:10397300123D1222F582EF12396812399A22123956
:103983008522125227A3A3A3A322123985A3A3221C
:1039930012371512399A22125212E022E0FEA3E0E6
:1039A300FF228E828F83E0241C123E4C1239BA8E82
:1039B300828F831239BA221239C2FB12145122E0C8
:1039C300FAA3E022C082C083EAFCEBFDEC4D700455
:1039D30079058044EC24FBF582ED34FF12479770A0
:1039E30007123A1EE0F460051213B580E39003B1A9
:1039F300E0C0E0123A1ED0E0F09020F3E493F97AAD
:103A0300B87B031213DFE96401700B7A007B201289
:103A13004764790080027904023D1BEC24FFF582A0
:103A2300ED34FFF5832274F4120375A2AFE433F58A
:103A330008C2AF9003B81238D66038EE24FBF58283
:103A4300EF34FF1247977A007B209003B160051291
:103A530047678005E0F91213EBE4F50AF50B780AE2
:103A630012086EEEFCEFFD7AB87B031213D97402D1
:103A73001208B6E508A2E092AFEEFAEFFB022BD5EF
:103A830012504E851882851983AA82AB832274F261
:103A930012037574FC120930EAFEEBFF750AFE751A
:103AA3000BFF120D4FE960057911023C14EE24154A
:103AB300122BDD6037900D1DE0C43354E0F8E03382
:103AC3003354FC48C0E0EE2415122B10D0E0123C16
:103AD3002F123C258B09EA45096011750AFFEE2474
:103AE3000F122BDD44041247F2D2E0F08E828F8353
:103AF3001224F96006EE2412123C1CEE2413122B3E
:103B0300DD70109020F2E493C0E0EE2413122B102A
:103B1300D0E0F08E828F83E0A2E750045403801C30
:103B2300EE2414122BDD7015900343E0C0E0EE2465
:103B330014122B10D0E0F0900343E004F0EE2411B4
:103B4300122BDD640170169005D8E0600D90034ED2
:103B5300E0700A8E828F83E07003123C198E828F8D
:103B630083E064017013EE240B1239776402700949
:103B7300EE240F122BDD4440F0851882851983ACA7
:103B830082AD83EEFAEFFB120DB58A088B0974FE42
:103B9300650A700374FFF470098E828F83A3A312E6
:103BA3004FC9EA450960668E828F83E0C0E07401E5
:103BB300120B02D0E0F07402120B021250B7740120
:103BC300120B0285820C85830D780C12086EEE248D
:103BD3000F122B101206D6EE240E122BDDF50C78E5
:103BE3000C1208729003571206D67407120B02E0E8
:103BF300F9AC0AAD0B120DAF74071208B6E9FE74E7
:103C0300106E700BAA08AB0912145180027E10EEDD
:103C1300F97404022531EE2411F582EF123968E4B8
:103C2300F022A3122BCB79FF121CAF22123C3322BA
:103C3300F08E828F83A322C082C08374DE12093088
:103C43008A828B83A3A3A3A3123973740E120B026C
:103C5300E8F0A3E9123D09740C120B02123D022491
:103C63000DF582EB122BE0C0E0741A120B02D0E0C8
:103C7300F0124F16EB1239707420120B02123D0230
:103C83002415F582EB122BE0C0E07408120B02D06E
:103C9300E0F0EA241CF582EB1239707412120B0265
:103CA300123D022411F582EB122BE0C0E0740912DD
:103CB3000B02D0E0123CF674FFF07401120B027495
:103CC300FFF07402120B0274FFF09081431206D2CC
:103CD3007404120B02AC82AD837407120B02AA8226
:103CE300AB83120BFF74041208B679007422120816
:103CF300B68025123CFA22F085188285198322E8C2
:103D0300F0A3E9F0EA22123715A3123D1122A3E032
:103D1300F8A3E0F922124B48D083D08202084E74F4
:103D2300EC12037574EE1209308A128B13ECFEED5C
:103D3300FF89097426120B02124FC97428120B0251
:103D4300E0F5107429120B02123E3D742B120B0284
:103D5300E0F50EA3E0F50F7508107A1E7B00121430
:103D63004B7402120B021247717402120B021247B8
:103D7300997003023E36851882851983AA82AB8324
:103D8300795012464C124B487402120B02123E5BDE
:103D9300A31247717410120B021257A67402120B6E
:103DA30002E0240B123E487402F0120B02123E5B37
:103DB3007402F0120B0212520A1250B77402120B61
:103DC30002124B5DE509F07402120B02E0240C129F
:103DD3003E48E510F07402120B02123E45E512F064
:103DE300A3E513F07408120B02E50CF0A3E50DF044
:103DF300740A120B02E510F0850E82850F83C082D0
:103E0300C083740D120B02AC82AD83D083D0827455
:103E1300031207CAF97402120B02AA82AB83120DB2
:103E230055E96401700575080080087402120B02DD
:103E330012395EA9087412024FE0E0F50CA3E0F515
:103E43000D22E0241C123E4C22F8A3E0123E532222
:103E53003400F98882898322124B50A3A3A3A3A31E
:103E63002274EE120375EAFEEBFF8C088D098E8235
:103E73008F83A3740812482DE060088E828F83A37A
:103E83007410F0122BDA60098E828F83A3E024086A
:103E9300F0EE2415122BDD60088E828F83A3E004DD
:103EA300F08E828F83A3A3A3A3A3A3E060198E82C2
:103EB3008F83A3A3A3A3A3A3A3E0C3332402F88EF6
:103EC300828F83A3E028F0EE2411122BDD600575A9
:103ED3000B0E8003750B008E828F83A3C082C08379
:103EE300EE240D122BDDD083D082F8E028250B8C35
:103EF300828D83F0EE2411122BDD600512435828C6
:103F0300F0850882850983E0C3947540097508002C
:103F1300750900024046E0FA7B0012516570030206
:103F23004046EEFAEFFB120DBBEA85088285098352
:103F3300124772EE2402F8EF122E3A124140124059
:103F430082F0EE24040808EF122E3A124582A312DF
:103F53004082A3A3F0EE2413124068F0EE2414125F
:103F63004068A3F0750A08EE2416122BDD6010EEEC
:103F73002418125047E5082408125248750A1012F3
:103F83002BDA6016EE241A125047850A0CE5082531
:103F93000C1252487408250AF50A8E828F83A3A354
:103FA300A3A3A3A3E06059EE2407F510EF3400F5B3
:103FB30011851082F583E0C0E012404F122B13D01D
:103FC300E0124072E0C0E012404F122B13D0E01217
:103FD3004072A312405B12086A851082851183E048
:103FE300C333FCE433FD850A0CE508250C124FBDF1
:103FF3001208B6851082851183E0C333250AF50ABA
:10400300EE2415122BDD600BC0E012404F122B1370
:10401300D0E0F0122B0D12405B12086AEE240D1251
:104023002BDDFC7D00850B0A8E828F83A3E0F8E5F0
:104033000828F8E5093400F9E8250AFAE9124FC01F
:104043001208B6AA08AB097F0A02058D850A0CE59A
:1040530008250CF582E50922E0F50CA3E0F50D75C2
:104063000E00780C2212396512408CA3A3A322F010
:10407300050A8E828F83A3A3A3A3A3A3A3A322A32F
:10408300A31252B3A312408C22124586A3A3227417
:10409300F61203758A828B83E0FC90035412413934
:1040A30074027808120A31EC4508FCAD09EA2412BF
:1040B30012413374067808120A31EC4508FCED45C9
:1040C30009FDEA2415F582EB122BE06004780180E8
:1040D300027800E4C8F9ED49FDEA2411F582EB12F8
:1040E3002BE0F508880974097808120A31ED4509AF
:1040F300FDEA2416124133740B7808120A31ED4598
:1041030009FDEA2417124133740C7808120A31EDC1
:104113004509FD8A828B83A3A3A3A3A3A3124139D9
:10412300740A7808120A31ECFAED4509FB0247A23A
:10413300F582EB123968E0F50875090022E085087D
:104143008285098322A3E0F9850882850983227485
:10415300EE1203758A0A8B0BECFEEDFF750F01E976
:10416300C39408500579000243458E828F83E9F09A
:104173001245ABE96003750F0012458F8E828F8362
:104183001245D9EE124F17EF1245CEC0E0EE2411BF
:10419300122B10D0E01245C6C0E0EE2412122B10F1
:1041A300D0E0123C2F7408124FD1A3A3A3E06015F3
:1041B300124577EE2413F582EF1247E18E828F8347
:1041C300A3E02408F08E828F83A3A3A3A3A3A3A3B6
:1041D300A3E060218E828F83A385820885830912E1
:1041E30045BAEE2415F582EF1247E1850882850969
:1041F30083E02408F08E828F83A3A3A3A3A3E060AC
:104203001A8E828F83A385820885830912459E8E29
:10421300828F83A3A3A3A3A312436AEE2419123CA0
:104223001CEE241B123C1CA3124825E0700302421F
:10423300D9EE2419F8EF3400F98E828F83A3858297
:1042430008858309E0FAE50A2AF582E50B122BE0DB
:104253008882898312436AFAE50A2AF582E50B12FA
:104263002BE0C0E0EE241A122B10D0E012436A8830
:10427300828983E06059F89020EBE493C39850055A
:1042830075110C8008EE2419122BDDF5118E828F27
:1042930083A3E0F8E50A28F50CE50B12434E120858
:1042A3006AE511C333FCE433FD7ABA7B0B1243484E
:1042B3001208B6EE241B122B1074BAF0A3740BF081
:1042C300E511C333F8850882850983E0288006EE6B
:1042D3002418125482F08E828F83A3E0F88E828F8B
:1042E30083E0C3985003024168A3E0FA8A08E50A11
:1042F3002508F8E50B3400F9EE241DF582EF12488A
:10430300ED12437AC39AC0E0EE2417122B10D0E0CB
:104313001247EA602BEE2417F8EF3400F988088976
:10432300098882F583E024F21248CE240EFAA3E032
:104333003400FB88828983124771124358C398F073
:10434300A90F02404A1213857403223400F50D7538
:104353000E00780C2290034FE0F9120B33E9F88535
:104363000882850983E022F0850882850983E004B9
:10437300F022A3A3A3A3A3F08E828F83E02274F47D
:104383001203758A088B09EA12440FF0EA131354D7
:104393003F124408A3A3A3F0EAC4131312440FA3C8
:1043A300A3F0EB1244011244197409780A120AB4F7
:1043B3001243FF124418740A780A120AB4E50A5425
:1043C30001C0E0EC2418F582ED122B13D0E0124467
:1043D3001E740B780A120AB41243FFA31244187412
:1043E3000C780A120AB41243FFA3A3A3A3A3A3A3A3
:1043F300A3F0740D7808120AB402273FE50A5401AA
:104403008C828D8322540F8C828D832254038C8261
:104413008D83A3A322A3A3A3A3A3A3F08A0A8B0B35
:1044230022C082C08379008A828B83A3A3A3A3A320
:10443300A3E090034E600FE070228A828B83A3A3D4
:10444300E07019098016E060138A828B83124B3F58
:10445300900357E06A7003A3E06B70E7023D1B749F
:10446300F01203758A0A8B0B890C8C088D0912458F
:10447300AB12458F8508828509831245D9E5081259
:104483004F17E5091245CEC0E0E5082411F582E592
:1044930009122B13D0E01245C6C0E0123211122BC1
:1044A30013D0E01248F5740812490E6011124577D3
:1044B300E50824131248E91248F5E02408F08508BA
:1044C30082850983A3A3A3A3A3A3A3A3E060178562
:1044D3000882850983A31245B6E50824151248E925
:1044E30012437A2408F0850882850983A3A3A3A332
:1044F300A3E06019850882850983A3AE82AF831286
:10450300459E85088285098312437504F0AA08AB8A
:1045130009120DCDE9F50D7056850882850983A32F
:10452300A3A3A3A3A31245827014E0FA8A0EE50A9B
:10453300250EF8E50B1247D6E50CC39A80211245E8
:10454300B6E8240EF8E91247D690034FE0F9120BB0
:10455300338E828F83E0F8E50CC39824F2C399C0AD
:10456300E0E5082417F582E509122B13D0E0F0A942
:104573000D024F06E50A2408F8E50B3400F9221270
:10458300458622E0850882850983A322850A8285E0
:104593000B83A3A31245EFE0F9EA22E0F8E50A282A
:1045A300F582E50B1247FD228A828B83124F0B1291
:1045B3000DC722AE82AF83E0F8E50A28F8E50B3495
:1045C30000F922124602A3A3A3E022123968E812DB
:1045D30045FBA3A3E022A3A3A3A3A3A3A3A3A31283
:1045E30045FB1245EFA3A3E0F9EAF822E0FA850AB6
:1045F30082850B83A3A3A322F0A3E912460222F030
:10460300850A82850B83A3A3A3A322C082C0837AD6
:10461300C67B0379E2121BB97AC67B03023D1BC03A
:1046230082C083900357023D18C082C08374FE1278
:104633000930851882851983AA82AB83794B124688
:104643004C124B487402023CF1121BB98518828547
:10465300198322C082C083794A121BB9023D1B749D
:10466300F61203759003CEE0FE04F0EEF9120D7F0F
:104673008B09EA450970EDEE60EAF90247A274F08E
:10468300120375EAFEEBFF8C088D09890A74101278
:104693000B02E0F50B7411120B02E0F50C120E9FE6
:1046A300EA4B7013E50C7042A90AAC08AD09EEFAA7
:1046B300EFFB120EB7806EE50A6021EA2402F58251
:1046C300EB122BE0850A082508F8E4340013E813FD
:1046D300F070098A828B83A3A37401F0E50C604513
:1046E300E50B70068A828B83E4F07401650C7035E8
:1046F300E50B9003D57004E4F0802AE004F0900DFC
:104703000AE0F89003D5E0C398401AE4F090035A06
:10471300E06E7003A3E06F700CEEFAEFFB79011209
:104723000C2312472B024F067A017B009003B1E062
:10473300F912151122C082C08374016A7001EB70F3
:10474300077A011247628012900D01124771EA4BFA
:1047530060051224BB800312472B023D1B7A207B8A
:10476300009003B1E0F91213E5223400F583EAF077
:10477300A3EBF022C082C083900D0302331BC082DF
:10478300C083900D0502331B12521922EE240CF53F
:1047930082EF3400F583123D12E849221208B67FF6
:1047A3000202058DA2F0E43385188285198312472E
:1047B300C37952121BBF221247C37942121BBF2275
:1047C300F0AA82AB8322AA08AB099003B1E0F912E5
:1047D30013BB223400F9E508241DF582E5091239DB
:1047E30068E8F0A3E9F022124FD5A3A3E022A3F0D7
:1047F300EE24151247FA22F582EF3400F583E02206
:10480300124807223400F583E0F8A3E0F98882898F
:104813008322E0F812481B22A3E0F98E828F83A340
:10482300A322F0EE241812396522F0EE2416123971
:10483300652274F4120375EAFEEBFF7A007B04121F
:10484300472F1248C41247E49003667409F0120D0F
:10485300D98A088B09AC08AD09EE2413122B101268
:104863004B48124A18640170487A0F1248B76041E6
:104873008A828B8374021248CEFAA3E0FB8A828B6E
:1048830083A3E0FC8A828B83A3A3E0FBEC850882ED
:10489300850983A3A312477288828983124B4C1222
:1048A30041401247F1FAA3E0FB794A121BBF1247BA
:1048B300C9022BD57B001213AF8A088B09EA45097D
:1048C30022900337123D12900D0522F0EE241DF8BD
:1048D300EF1248D822123E53E0221248E12234005C
:1048E300F5837401F022F582E509123968E8F0A333
:1048F300E9221248F9221248FD22F085088285092F
:1049030083A3221248FDA3A3A3A322124906A3A3B0
:10491300E022124D1F120E2D22EE2417F582EF1204
:1049230048E1120DD9EE241A123965EAF0A3EBF02F
:104933002274F412037574F31209308908EAFEEB4A
:10494300FF7C0D7D007900851882851983AA82ABCF
:1049530083121D75EE241D122B1012520AA3E0F8C8
:10496300741F58600A7901121B8F7900024A0FE8FD
:10497300A2E55008740C120B027401F0E8A2E75090
:1049830008740B120B027401F0E8A2E6740A5008D3
:10499300120B027401F08008120B02E0640170052F
:1049A300EE24138003EE24151250477402120B02F7
:1049B300AA82AB83121BA7122B0D124A1D1247E4C6
:1049C300740A120B02E0640170331224EE703B127E
:1049D3000DE58A0A8B0BA80AA90BEE240B122BDD1B
:1049E300687003A3E0697022120DD9EAFCEBFD7431
:1049F30002120B02AA82AB83124A18600D85188239
:104A0300851983AA82AB83120C1DA908740D022B8E
:104A1300D2EEFAEFFB121BA1E922E0124A2222F89E
:104A2300A3E0F98518828519832274F6120375743D
:104A3300F31209308A088B09ECFEEDFF7C0D7D0033
:104A43007900851882851983AA82AB831253AFA399
:104A5300A3A3A3A3A3A3A3A3124AB7124AC0F8A272
:104A6300E55008740B120B027401F0E8A2E750083A
:104A7300740A120B027401F0E8A2E6EE5004241348
:104A8300800224151250477402120B02124AA9A382
:104A9300A3E0C0E0740C120B02D0E0124D17120C0D
:104AA30017740D02479FAA82AB83121BA785088246
:104AB30085098322E0124A22E8F0A3E922F01239A1
:104AC3006212520EA3E02274F712037574E1120905
:104AD30030EAFEEBFF8E828F83124B4CA3A3A3E03D
:104AE300A2E050518E828F8312264E8A828B83A33B
:104AF300A3A3A3A3A3E054FE124B648A828B831265
:104B03004B5DE0F98A828B83E0241CFAA3E0123523
:104B13007E124B48120DD3E9701B741D120B021247
:104B23004B577011851882851983AC82AD83EEFAD9
:104B3300EFFB120E1B024D898E828F83A3A3A3A3C7
:104B4300A3A3A3A3A3122BCB22124B5022125212C4
:104B5300A3A3A32212399A640422E0241B123E4C1D
:104B630022123CFAAC82AD8322E9F879007404681E
:104B7300600A740A68600574036870010902084ECC
:104B830074F61203758A828B837420F0A3A37401D5
:104B9300F0120BBD8A088B09AE08AF09EE4F601007
:104BA3008E828F837401F09003A4E0700312491C7A
:104BB300EEFAEFFB0247A2C082C0839003BA7401EE
:104BC300F0E9A2E350037403F0E9A2E15004E0D258
:104BD300E2F0023D1B74F612037579007C008A082B
:104BE3008B0978081205D3F8FF070B4C094C094CC5
:104BF300094C094C024C064C0B4CFF4B0C80097CB6
:104C03000480050C80F67C089003BAE05C6003091D
:104C13008003EC6001090247A274F61203758A82CD
:104C23008B83E07012A3124799600C8A828B8312E4
:104C33004B47121CDF80047A007B000247A274F505
:104C430012037574F31209308A088B09ECFEEDFF29
:104C5300750A12EA450970057900024D1090035751
:104C6300E065087004A3E065097014120DD9EAFC2D
:104C7300EBFD124A147005750A018003750A00855D
:104C83001882851983E4F004120B02E508F0A3E50A
:104C930009124D17120B81E960277403120B02AA44
:104CA30082AB83120B63E964017016750A01740306
:104CB300120B02AC82AD83124A146021750A008084
:104CC3001C7412650A70169003A3E06402700EEE62
:104CD300FCEFFDAA08AB09120B99E970DFEEFCEFBC
:104CE300FDAA08AB09120EA5E9F8740A68700575E8
:104CF3000A01801774A0687012EEFCEFFDAA08ABDE
:104D030009120EB1AA08AB09120EC3A90A740D0247
:104D130057177402124D1B22124D1F22123CFAAA7E
:104D230082AB832274F7120375EAFEEBFF8E828F48
:104D330083A3A3A3A3A3A3A3A3E06015EE24151247
:104D43002B10122BBB120E45E9640170047901800C
:104D5300258E828F83A3A3A3A3A3A3A3E06015EE51
:104D63002413122B10124D7BFAA3E0FB120E45E91C
:104D7300640160D97900801312366AA3A3A3A3A3A5
:104D8300A3A3A3A3E022741F1208B67F0102058D1B
:104D930074F012037574FD1209308A088B09ECFE56
:104DA300EDFF890B7413120B02E0F50C750A017405
:104DB30001120B0274041252426048E50C601DEAB2
:104DC3002417F582EB1254851252308A828B83E0CA
:104DD300D2E7F0EA2414F582EB123C1F124F16EBD4
:104DE30012480374031257A8EE88828983A3A3F0A1
:104DF300EF88828983A3A312371412371B120BB7D0
:104E0300E9F50AA90A7403024F0374EC12037574DB
:104E1300F51209308A0A8B0B890C8C0E8D0F741FC7
:104E2300120B02E0F50D7420120B02E0F510A3E063
:104E3300F5117E01EE120B02740AF0E97007E50D1D
:104E4300C333240AF0124FE87003024EEA124FFDF7
:104E53007409F0A3E50CC43354E0450D12500FE57B
:104E63000C702D7C008023ECC333F8E433F9E51098
:104E730028F8E51139F988828983124EF7888289E7
:104E830083122E2DF0A30EAF830CECC3950D40D7E8
:104E9300E5082417F582E5091248DD120DD9E50866
:104EA300241AF582E50912476D7403120B02AC82D2
:104EB300AD83AA0AAB0B120B69E96019E508241646
:104EC300F582E509124EF1120B02A882A983E508C7
:104ED30024181247DD8508828509831257A4AA087E
:104EE300AB09120BB7E9FEEEF9740B024FE012485F
:104EF300E1740322E08E828F83F0A3AE82AF83221C
:104F03001208B67F0802058D1239C2F9EA2400E4BB
:104F130039FB22EA240BF5822274EE1203758A0C04
:104F23008B0D890E8C088D097412120B02E0F50F9C
:104F33007413120B02124FC99005471247996077F9
:104F4300E50FC333F8E433F9E8240EFAE93400FB40
:104F53001213AF8A108B11AE10AF11EE4F60588E43
:104F6300828F8374D4F0A3A3E50CF0A3E50D124F55
:104F7300D1E50EF0AC08AD09EE2405FAEF12524B61
:104F8300EE240D122B10E50FF0850A08850B097529
:104F93000A00780812086AE50FC333FCE433FDEE18
:104FA300240EFAEF124FC01208B6EEFAEFFB90058B
:104FB3004712520A121D8002404AFAE5093400FBE7
:104FC300121385740322E0F50AA3E0F50B22124FB6
:104FD300D522124FD922123C33A3A3A3221208B61F
:104FE3007F0C02058D851882851983AA82AB8312F3
:104FF3000E2D8A088B09EA450922EA240BF582EB78
:105003001247FDFEA3E0FF8E828F8322F0A3AE82C0
:10501300AF83AC0EAD0FEEFAEFFB12502122121B41
:10502300A712502822EE2408FEEF3400FF22E0FAF4
:105033008E828F83A3A3E022FEA3E03400FF8E823F
:105043008F83E02212396512504E22E0FCA3E0FD6B
:1050530022122BCB120DC12274F6120375EAFEEB5A
:10506300FF9003BB801388828983E06E7003A3E003
:105073006F603A88828983A3A312479970E87A0400
:105083007B0012144B8A088B09A808A909E8496018
:105093001C888289831250B79003BB124B488882C5
:1050A3008983A3A31247719003BB1247E40247A26B
:1050B3008A828B83EEF0A3EFF02274F41203757EE1
:1050C300009003BB80070E88828983A3A3124799AC
:1050D30070F4EEC333FAE433FB125165607E7F0054
:1050E3009003BB80248882898312504AEFC333FA2A
:1050F300E433FBE5082AF582E5093BF583ECF0A3ED
:10510300EDF00F88828983A3A312479970D7900388
:10511300AC1225287003A3E0697808701912086E91
:10512300EEF50A780A1208727C787D037900900301
:10513300AC125170801A12086EEEF50A780A120842
:10514300727C787D0379009003AC124B48120E57A2
:1051530074031208B6AA08AB09121451120BCF023A
:105163002BD512144B8A088B09EA450922122BCB43
:10517300120E5D22C082C08380128A828B83A3A316
:105183001239739003BB1247E41214519003BB12FC
:10519300388370E6023D1B74F612037590036412A4
:1051A300399F9003CF1251F91247E47ACF7B0379E9
:1051B30050121BBF9003CF122747FAEFFB120EBD0D
:1051C3009003CF12399F90054912479960257A06BB
:1051D3007B001213AFEA4B601A8A828B8374D5F07B
:1051E300A3A3E412521F0412523090054912520A2B
:1051F300121D800247A21251FD22E0F8A3E0F990AC
:105203000364228E828F8312520E2212521222E0E4
:10521300F812521822A3E0F5838882221252232225
:1052230012522722F08A828B83A3A3A32212522332
:10523300A3EEF0A3EFF022F582EF1247FDF922125D
:105243004915EA4B22FAE5093400FB121BA7221287
:10525300481CA3A3A3A3A3A3A3229020EDE4932418
:1052630001F8E43400F97A027B002274F712037523
:105273007E00800412585B0E12537F40F77E00EECF
:1052830012529A74FEF0A3041252AFE4F00EEEC36E
:10529300940340EB024D8E75F003A4F8A9F074BD9E
:1052A30028F8740339F988828983A3221252B3221E
:1052B300F0888289832274F71203757F0080010FBF
:1052C3009020EAE493F8EFC3985026EF12546B6AE8
:1052D3007003A3E06B70E81258086C7003A3E06DD1
:1052E300600A74FF6C700374FF6D70D31253768081
:1052F300047A007B00024D8E74F61203757CFF7DE9
:10530300FF7AFE7BFF120E81EA4B70407508008026
:1053130036E50875F017A4F8A9F0745528F58274DA
:105323000A12547D600C745428F582740A12547D59
:105333007013744628FE740A39FF8E828F831254C9
:105343008AEEFAEFFB05081253E540C50247A27443
:10535300F41203758A088B09ECFEEDFF800B120E25
:1053630093EEFCEFFDAA08AB09120E81EA4B70EE37
:10537300022BD5744628FA740A39FB229020EAE4FA
:1053830093F8EEC3982274F7120375EAFEEBFFEE6F
:105393004F60101253A974FEF0A3041257AE14F019
:1053A300A304F0024D8E7C177D007900121D758ECB
:1053B300828F832274F7120375EAFEEBFF750800F0
:1053C3008018E50875F017A4F8A9F01258137003B4
:1053D300A3E06F600312586305081253E540E3022C
:1053E3004D8E9020EAE493F8E508C3982274F612F0
:1053F3000375120E818A088B09A808A909E8496078
:105403000AE8240DFAE93400FB80047A007B0002E9
:1054130047A274F41203758A0A8B0BECFEEDFF7539
:105423000800750900802EE50975F017A4F8A9F0A6
:1054330012584E601EE50912546B650A7004A3E00E
:10544300650B700375080AEEFCEFFD12570A600343
:105453004308A005099020EAE493F8E509C39850AE
:1054630004E50860C202273F75F017A4F8A9F012FB
:10547300547622744628F582740A39F583E022F5BE
:1054830082EF123968E422122BCB120CB92212528A
:10549300B3A3A3A3A3A3A3A3A32274F21203758AA2
:1054A300088B09ECFEEDFF740E120B02124FC97547
:1054B3000C007C007D0180101213A9E50CF5F0EAC5
:1054C30084ACF0750C007D007800790080031256DF
:1054D300471256A34003025569E8FAE9FBEA75F05F
:1054E30017A4FA85F00D75F017EBA4250D12567F5E
:1054F3007003A3E0F460D712565D65087004A3E05F
:10550300650960CA12565D6E7003A3E06F60BF1237
:10551300565D650A7004A3E0650B60B2E8FAE9FB27
:10552300EA75F017A4FA75F017EBA4250DFB745474
:105533002AF582740A12563E509474016D050C606C
:105543008DE50CC39C4087E875F017A4F8AAF075A5
:10555300F017E9A42AF9744628F582740A39F58309
:10556300124B4802563B78007900800312564712CB
:1055730056B04003025622E8FAE9FBEA75F012A49A
:10558300FA85F00D12568F64FE7003A3E0F460DC1D
:1055930012568565087004A3E0650960CF1256852D
:1055A3006E7003A3E06F60C4125685650A7004A38E
:1055B300E0650B60B7E8FAE9FBEA75F012A4FA7547
:1055C300F012EBA4250DFB74D52AF582740812564C
:1055D3003E5099E8FAE9FBEA75F012A4FA75F01265
:1055E300EBA4250D12565064016081E06402700340
:1055F30002556F74016D050C700302556FE50CC302
:105603009C500302556FE875F012A4F8AAF075F0E8
:1056130012E9A42AF974CC28F5827408025560E5CE
:105623000C6011EC700E7401650C60030254BB7CBA
:10563300010254C67AFE7BFF0225343BF583E01456
:10564300C3940622E8240108E93400F922FB74D04C
:105653002AF58274083BF583E022E8FAE9FBEA7550
:10566300F017A4FA75F017EBA4250D12567222FB5E
:1056730074462AF582740A3BF583E022125672645B
:10568300FE22E8FAE9FBEA75F012A4FA75F012EBD0
:10569300A4250DFB74CC2AF58274083BF583E02224
:1056A3009020EAE493FAC3E89AE99400229020E573
:1056B300E493FA740193FBC3E89AE99B2274F5120D
:1056C30003758A088B09ECFEEDFF750A008002055D
:1056D3000A9020EAE493F8E50AC3985028EEFCEF19
:1056E300FDE50A75F017A4F8A9F012570A60E0E582
:1056F3000A75F017A4F8A9F0744628F582740A39DC
:10570300F58312371D8010744828FA740A39FB1286
:105713001BA1E9221208B67F0302058D74F0120360
:10572300758A088B098C0A8D0B890C120E878A0ED9
:105733008B0FAE0EAF0FEE4F60551253A9E508F075
:10574300A3E5091257AE1257A6E50C600AEE240F23
:10575300122B10E50C8006EE240F12579EF09003D7
:10576300D1124799601A9003ABE064017008EE24EC
:105773000E1254828010EE240E122B107407800632
:10578300EE240E12579E1230631202241257950212
:105793004F06EE240D123965E8F0221239657401C3
:1057A30022A3A3E50AF0A3E50BF022123594A3226A
:1057B30074F51203758A088B09ECFEEDFF750A0078
:1057C300800F1258137003A3E06F60031258630530
:1057D3000A9020EAE493F8E50AC3985025E50A7590
:1057E300F017A4F8A9F012580865087004A3E0653F
:1057F3000970CF745028F582740A39F5831250B7B3
:1058030080CD02571A745028F582740A12547D22EF
:10581300745028F582740A12547D6E2274F71203B1
:1058230075EAFEEBFF7508008019E50812546B6EEC
:105833007003A3E06F700A12584E7005E508125802
:105843005C05081253E540E2024D8E744828FA7451
:105853000A39FB120B63E922EE75F017A4F8A9F0DD
:10586300125376120E93221252B3123D12E84922BA
:10587300C082C08374F8120930851882851983ACFD
:1058830082AD8375838175822474081207CA8518D3
:1058930082851983AC82AD83124A1864017004793E
:1058A30000800279017408023CF1C082C0838A82BD
:1058B3008B83E0D2E7F01216070263A8C082C0838D
:1058C3007900125D79127381C082C0839003301214
:1058D3006FA3D083D082C3E09CA3E09D500C1275CC
:1058E30050FAA3E01258F06001090263A8FBEA75BD
:1058F300F00BA4FAA8F075F00BEBA428FB9003328D
:10590300E02AF8A3E03B8882F583E0540F2274F782
:105913001203758908125D79125E1FACF075F00BE6
:10592300E9A42CF9900332E028FEA3E039FF7401C7
:10593300650860067402650870208A828B83125E94
:105943000B126A5674026508701B125CCA125E520F
:1059530070138E828F83E4F0800BEA2403FCEB1236
:105963005DED125DF9EEFAEFFB120B390266DB74A3
:10597300F412037512794479008E828F83E0607686
:10598300890A890B8065E50A75F00BA4FAA8F075FE
:10599300F00BE50B1258FD7046E50A75F00BA4F801
:1059A300AAF075F00BE50B125E318E828F83E085D2
:1059B3000882850983125F13850882850983A312F0
:1059C3006A56EE2403FCEF125DF612657F1272FB3A
:1059D300AA08AB09120B397901900330126FBEE5A7
:1059E3000A2401F50AE50B3400F50B125CD2E50A33
:1059F3009AE50B9B409002680F74F5120375EAFE5B
:105A0300EBFF740B120B02126584750A01EC4D60F7
:105A13002BEC127960ED127381126A4E7901120B2D
:105A230045E5084509606F850882850983A31279D6
:105A33004E7902AA08AB09120B45805AE5084509BD
:105A4300602B127385126C78126580125E3C700CA9
:105A5300EEFAEFFB120B4BE9F50A80CBEE2403FAC7
:105A6300125D7470317903EEFAEFFB80CA8E828F78
:105A730083A3E064FE7003A3E0F4700BEE24030A37
:105A83000A0A125D74700CEEFAEFFB120B4BE9F588
:105A93000A8003750A00A90A7F0302058D74F712B1
:105AA30003759003301266E0EA4B602FEA75F00B42
:105AB300A4FAA8F075F00BEBA428FBEAFEEBFF12A7
:105AC300144B9003321266E0900332126FAA6012F5
:105AD300EEFCEFFD7900121D758007900332E4F0B0
:105AE300A3F00266DB900330126F2EC3EE98EF999A
:105AF30022C082C083EC4D6005121BA780097C087D
:105B03007D007900121D750263A874F6120375797E
:105B130000EA4B601878008808127507EB12754C81
:105B230060047901780808E8C3940840EA0266F340
